:100000000C942A000C9447000C9447000C94470071
:100010000C9447000C9447000C9447000C945C141B
:100020000C9447000C94A7140C9441150C944700B1
:100030000C9447000C9447000C9447000C94470024
:100040000C946C110C9447000C9447000C944700DE
:100050000C94470011241FBECFE5D8E0DEBFCDBF12
:1000600014E0A0E6B0E0E6E7F8E402C005900D92E7
:10007000AE30B107D9F714E0AEE0B4E001C01D9294
:10008000A937B107E1F70E9464220C9439240C943B
:100090000000EF92FF920F931F937B018C0120E0F1
:1000A00030E040E05FE40E94490388238CF0C801FF
:1000B000B70120E030E040E05FE40E94C1010E940F
:1000C000A9039B01AC01205030404040504806C07D
:1000D000C801B7010E94A9039B01AC01B901CA0183
:1000E0001F910F91FF90EF900895A0E0B0E0EBE733
:1000F000F0E00C948623DC012B01FA019C919230F4
:1001000008F439C1EB018881823008F433C194309E
:1001100069F4843009F02FC111969C91119789815F
:10012000981709F428C1A0E6B0E025C1843009F48D
:1001300021C18230A9F4923009F01DC19A01AD01AC
:1001400088E0EA010990AE01E90109929E0181501F
:10015000C1F7E201898111969C918923818308C1AD
:10016000923009F407C112962D903C901397EB0141
:100170008A819B811496AD90BD90CD90DC901797AD
:10018000EC80FD800E811F819101281B390BB90184
:1001900037FF04C066277727621B730B6032710537
:1001A0000CF061C0121613066CF537014801062EDB
:1001B00004C096948794779467940A94D2F721E0C8
:1001C00030E040E050E004C0220F331F441F551FB1
:1001D0006A95D2F721503040404050402E213F21B7
:1001E00040235123211531054105510521F021E01E
:1001F00030E040E050E079018A01E628F72808293C
:1002000019293CC0232BD1F1260E371E350146019A
:10021000062E04C096948794779467940A94D2F734
:1002200021E030E040E050E004C0220F331F441FC3
:10023000551F6A95D2F721503040404050402A2146
:100240003B214C215D21211531054105510521F04E
:1002500021E030E040E050E059016A01A628B728CB
:10026000C828D9280BC0821593052CF01C01AA249C
:10027000BB24650103C0EE24FF24870111969C91E5
:10028000D20111968C91981709F445C0992339F041
:10029000A80197012A193B094C095D0906C0A6016E
:1002A00095012E193F09400B510B57FD08C01182D3
:1002B0003382228224833583468357831DC081E0A5
:1002C00081833382228288279927DC01821B930B4A
:1002D000A40BB50B84839583A683B7830DC0220F2F
:1002E000331F441F551F24833583468357838281E0
:1002F000938101979383828324813581468157813D
:10030000DA01C9010197A109B1098F5F9F4FAF4F72
:10031000BF4328F30BC0918333822282EA0CFB1C7B
:100320000C1D1D1DE482F5820683178383E0808304
:10033000248135814681578157FF1AC0C901AA27F8
:1003400097FDA095BA2F81709070A070B0705695EF
:10035000479537952795822B932BA42BB52B848318
:100360009583A683B7838281938101969383828349
:10037000DF0101C0D201CD01CDB7DEB7E2E10C94BF
:10038000A223A0E2B0E0E7ECF1E00C9492236983B1
:100390007A838B839C832D833E834F835887E9E048
:1003A000EE2EF12CEC0EFD1ECE010196B7010E943F
:1003B0009A058E010F5E1F4FCE010596B8010E946F
:1003C0009A058A8991E089278A8BC701B801AE0115
:1003D000475E5F4F0E9475000E94C504A096E6E04C
:1003E0000C94AE23A0E2B0E0E8EFF1E00C9492238D
:1003F00069837A838B839C832D833E834F835887C5
:10040000F9E0EF2EF12CEC0EFD1ECE010196B701A6
:100410000E949A058E010F5E1F4FCE010596B8010E
:100420000E949A05C701B801AE01475E5F4F0E9466
:1004300075000E94C504A096E6E00C94AE23A0E2ED
:10044000B0E0E5E2F2E00C94862369837A838B8343
:100450009C832D833E834F835887CE010196BE0136
:10046000675F7F4F0E949A05CE010596BE016F5EC1
:100470007F4F0E949A059985923088F08989823051
:10048000C8F0943019F4823051F404C0843029F457
:10049000923081F480E690E0C6C0923049F420E0CA
:1004A0009A858A89981321E02A87CE010996BBC0D4
:1004B000823049F420E09A858A89981321E02A8BBA
:1004C000CE014196B0C02D843E844F8458886D88FB
:1004D0007E888F88988CEE24FF248701AA24BB2471
:1004E000650140E050E060E070E0E0E0F0E0C10174
:1004F00081709070892BE9F0E60CF71C081D191D1E
:100500009A01AB012A0D3B1D4C1D5D1D80E090E062
:10051000A0E0B0E0E614F7040805190520F481E036
:1005200090E0A0E0B0E0BA01A901480F591F6A1F8E
:100530007B1FAA0CBB1CCC1CDD1C97FE08C081E0F5
:1005400090E0A0E0B0E0A82AB92ACA2ADB2A3196B6
:10055000E032F10549F0660C771C881C991C569412
:10056000479437942794C3CFFA85EA892B893C892D
:100570008B859C85280F391F2E5F3F4F17C0CA01FE
:1005800081709070892B61F016950795F794E79428
:1005900080E090E0A0E0B0E8E82AF92A0A2B1B2BC3
:1005A00076956795579547952F5F3F4F77FDE7CF36
:1005B0000CC0440F551F661F771F17FD4160EE0CDE
:1005C000FF1C001F111F21503040403090E05907A0
:1005D00090E0690790E4790760F32B8F3C8FDB0193
:1005E000CA018F779070A070B07080349105A1051A
:1005F000B10561F447FD0AC0E114F10401051105DC
:1006000029F0405C5F4F6F4F7F4F40781A8EFE1786
:1006100011F081E08A8F4D8F5E8F6F8F78A383E01A
:10062000898FCE0149960E94C504A096E2E10C9400
:10063000A223A8E1B0E0EFE1F3E00C9492236983F8
:100640007A838B839C832D833E834F83588789E0F5
:10065000E82EF12CEC0EFD1ECE010196B7010E9492
:100660009A058E010F5E1F4FCE010596B8010E94BC
:100670009A058985823040F08989823028F0C70147
:10068000B8010E94120601C08FEF6896E6E00C9454
:10069000AE23A8E1B0E0EFE4F3E00C949223698389
:1006A0007A838B839C832D833E834F83588789E095
:1006B000E82EF12CEC0EFD1ECE010196B7010E9432
:1006C0009A058E010F5E1F4FCE010596B8010E945C
:1006D0009A058985823040F08989823028F0C701E7
:1006E000B8010E94120601C08FEF6896E6E00C94F4
:1006F000AE23A8E1B0E0EFE7F3E00C949223698326
:100700007A838B839C832D833E834F83588789E034
:10071000E82EF12CEC0EFD1ECE010196B7010E94D1
:100720009A058E010F5E1F4FCE010596B8010E94FB
:100730009A058985823040F08989823028F0C70186
:10074000B8010E94120601C081E06896E6E00C94B0
:10075000AE23ACE0B0E0EFEAF3E00C9496236983BB
:100760007A838B839C83CE010196BE016B5F7F4FA2
:100770000E949A058D81823061F1823050F184307F
:1007800021F48E81882351F12EC02F81388537FDC9
:1007900020C06E812F3131051CF06623F9F023C093
:1007A0008EE190E0821B930B29853A854B855C8511
:1007B00004C056954795379527958A95D2F76623B5
:1007C000B1F050954095309521953F4F4F4F5F4F79
:1007D0000EC020E030E040E050E009C02FEF3FEFD6
:1007E0004FEF5FE704C020E030E040E050E8B9019F
:1007F000CA012C96E2E00C94B223A8E0B0E0E3E05A
:10080000F4E00C948E237B018C0161157105810548
:10081000910519F482E0898360C083E089838EE1C9
:10082000C82ED12CDC82CB82ED82FE820F8318870A
:10083000C801B7010E947604FC013197F7FF3BC065
:10084000222733272E1B3F0B57016801022E04C0BD
:10085000D694C794B794A7940A94D2F740E050E096
:1008600060E070E081E090E0A0E0B0E004C0880FBC
:10087000991FAA1FBB1F2A95D2F70197A109B10999
:100880008E219F21A023B1230097A105B10521F05E
:1008900041E050E060E070E04A295B296C297D2945
:1008A0004D835E836F8378878EE190E08E1B9F0B74
:1008B0009C838B8312C0309781F00E2E04C0EE0C07
:1008C000FF1C001F111F0A94D2F7ED82FE820F83D6
:1008D0001887CE1ADF0ADC82CB821A82CE010196FB
:1008E0000E94C5042896EAE00C94AA23EF92FF9296
:1008F0000F931F937B018C0180E0E81680E0F806DF
:1009000081E0080780E0180788F48FEFE816F1040B
:100910000105110531F028F088E090E0A0E0B0E09A
:1009200017C080E090E0A0E0B0E012C080E0E816E0
:1009300080E0F80680E0080781E0180728F088E1E9
:1009400090E0A0E0B0E004C080E190E0A0E0B0E082
:1009500020E230E040E050E0281B390B4A0B5B0BF3
:1009600004C016950795F794E7948A95D2F7F70196
:10097000E859FF4F8081281B310941095109C901FC
:100980001F910F91FF90EF900895DF92EF92FF92E9
:100990000F931F93FC01E480F58006811781D180BD
:1009A0008081823048F480E090E0A0E1B0E0E82A65
:1009B000F92A0A2B1B2BA5C0843009F49FC0823072
:1009C00021F4EE24FF24870105C0E114F1040105A0
:1009D000110519F4E0E0F0E096C0628173819FEFA9
:1009E000623879070CF05BC022E83FEF261B370B1B
:1009F0002A3131052CF020E030E040E050E02AC000
:100A0000B801A701022E04C07695679557954795C2
:100A10000A94D2F781E090E0A0E0B0E004C0880F33
:100A2000991FAA1FBB1F2A95D2F70197A109B109E7
:100A30008E219F21A023B1230097A105B10521F0AC
:100A400081E090E0A0E0B0E09A01AB01282B392BC7
:100A50004A2B5B2BDA01C9018F779070A070B070C0
:100A600080349105A105B10539F427FF09C0205C48
:100A70003F4F4F4F5F4F04C0215C3F4F4F4F5F4F81
:100A8000E0E0F0E02030A0E03A07A0E04A07A0E470
:100A90005A0710F0E1E0F0E079018A0127C06038E0
:100AA000710564F5FB01E158FF4FD801C7018F774D
:100AB0009070A070B07080349105A105B10539F433
:100AC000E7FE0DC080E490E0A0E0B0E004C08FE35A
:100AD00090E0A0E0B0E0E80EF91E0A1F1B1F17FF10
:100AE00005C016950795F794E794319687E016951B
:100AF0000795F794E7948A95D1F705C0EE24FF2473
:100B00008701EFEFF0E06E2F679566276795902FCE
:100B10009F77D794DD24D7948E2F8695492F462B27
:100B2000582F5D29B701CA011F910F91FF90EF90D7
:100B3000DF900895FC01DB01408151812281622F09
:100B40006F7770E0221F2227221F9381892F880F41
:100B5000822B282F30E0991F9927991F11969C937B
:100B6000119721153105A9F541155105610571054B
:100B700011F482E037C082E89FEF13969C938E9326
:100B800012979A01AB0167E0220F331F441F551FD4
:100B90006A95D1F783E08C930DC0220F331F441F59
:100BA000551F12968D919C911397019713969C93C4
:100BB0008E931297203080E0380780E0480780E469
:100BC000580758F314962D933D934D935C931797C4
:100BD00008952F3F310579F44115510561057105DF
:100BE00019F484E08C93089564FF03C081E08C9332
:100BF00012C01C9210C02F57304013963C932E9376
:100C0000129783E08C9387E0440F551F661F771F70
:100C10008A95D1F7706414964D935D936D937C9390
:100C2000179708951F93DC01FB019C91923008F403
:100C300047C08081823008F443C0943051F411964B
:100C40001C91843099F58181682F70E0611B7109D6
:100C50003FC0843021F0923031F48230B9F181818B
:100C6000882389F12DC011961C9111978230F1F0E3
:100C700081811817D9F412962D913C911397828196
:100C800093818217930794F028173907BCF01496C4
:100C90008D919D910D90BC91A02D2481358146812F
:100CA0005781281739074A075B0718F4112341F0C9
:100CB0000AC082179307A407B50740F4112319F05F
:100CC00061E070E005C06FEF7FEF02C060E070E0B0
:100CD000CB011F910895DF93CF9300D0CDB7DEB73E
:100CE0009A83898389819A819093520480935104D5
:100CF000E981FA8110820E94931B80E895E20E94AC
:100D00002E200E94DA1486EB97E00E942F150F9098
:100D10000F90CF91DF910895DF93CF93CDB7DEB7DA
:100D2000E8970FB6F894DEBF0FBECDBF9BAB8AAB82
:100D300080E2FE013896DF01982F1D929A95E9F71F
:100D40001F821D8215C08D81482F50E08D81282F74
:100D500030E08AA99BA9FC01E20FF31F2081CE019C
:100D60008896FC01E40FF51F20838D818F5F8D83B2
:100D70008D818A3040F30E941E1FE0915104F09152
:100D8000520481E080831E821C82B4C01E8241C056
:100D90008C81282F30E0CE018896FC01E20FF31FF2
:100DA0008081482F50E08E81282F30E0C901880FC4
:100DB000991F820F931F0196880F991FFC01E85914
:100DC000FE4F808191814817590701F58C81882F4A
:100DD00090E09C012F5F3F4FCE018896FC01E20F0F
:100DE000F31F8081482F50E08E81282F30E0C90109
:100DF000880F991F820F931F880F991FFC01E459D8
:100E0000FE4F808191814817590739F08E818F5F9D
:100E10008E838E81843108F4BBCF80910E048F5F66
:100E200080930E048C81282F30E08E81482F50E073
:100E3000C901880F991F820F931F880F991F9C016A
:100E40002D5C3B4FCA01880F991F840F951F880F97
:100E5000991F88599E4F3DAB2CAB9FAB8EABA6E044
:100E6000A8AFEEA9FFA900808EA99FA901969FAB0C
:100E70008EABACA9BDA90C92ECA9FDA93196FDAB36
:100E8000ECABF8ADF150F8AF88AD882351F78E8107
:100E9000882F90E0880F991FFC01E759FD4F808152
:100EA00091819B838A83198218C08F81482F50E0DB
:100EB0008981282F30E08A819B81FC01E20FF31F9A
:100EC0002081CE010896FC01E40FF51F20838F815D
:100ED0008F5F8F8389818F5F89838E81882F90E0D8
:100EE000FC01EF56FD4F908189818917F0F28C81CA
:100EF0008E5F8C838C81282F30E0CE018896FC0198
:100F0000E20FF31F8081882379F08C81882F90E095
:100F10009C012F5F3F4FCE018896FC01E20FF31F2B
:100F20008081882309F032CF8F81282F30E0CE01D5
:100F30000896FC01E20FF31F1082CE0108960E9472
:100F40008D1D80913304909134040E94FD14809192
:100F50003704909138040E943221E8960FB6F89435
:100F6000DEBF0FBECDBFCF91DF910895DF93CF934A
:100F7000CDB7DEB70E94AC218091A502282F30E0CA
:100F800080910E04882F90E0019728173907F4F418
:100F900080913704909138040E9432218091A502FB
:100FA000282F30E0C901880F991F820F931F880FE7
:100FB000991FFC01ED5CFB4F808191810E94FD1423
:100FC0008091A5028F5F8093A5020AC081E0809383
:100FD000A50210920E04E0915104F0915204108287
:100FE000CF91DF910895DF93CF93CDB7DEB72091F6
:100FF0000F04309110048091140490911504880F0F
:10100000991FF901E80FF91F8091120490911304C0
:101010009183808380911104882F90E001979C0137
:1010200080911404909115048217930758F520912C
:101030000F043091100480911104882F90E00296E3
:10104000880F991FF901E80FF91F11821082809112
:101050001404909115040196909315048093140440
:1010600010921304109212048091140490911504AC
:10107000FC01EA55FD4F208182E194E0622F0E943D
:10108000082027C080911104882F90E001979C01CF
:10109000809114049091150428173907D1F4109207
:1010A000150410921404109213041092120420914B
:1010B0000F043091100480911104882F90E0029663
:1010C000880F991FF901E80FF91F81E090E09183E3
:1010D0008083CF91DF910895DF93CF93CDB7DEB7B3
:1010E00088E00E94F81F82E00E940F1683E00E94B1
:1010F0000F1683EF97E00E941E20CF91DF91089595
:10110000DF93CF9300D00F92CDB7DEB79A83898358
:101110006B8389819A819093100480930F048B8153
:10112000893020F48B818250809311040F900F90AE
:101130000F90CF91DF910895DF93CF93CDB7DEB7B6
:101140008091140490911504009769F580910F0423
:10115000909110049C0180911104882F90E0880FD9
:10116000991F820F931F62E00E94571620910F046F
:101170003091100480911104882F90E00196880F1F
:10118000991F820F931F63E00E94571680911404E9
:1011900090911504FC01EA55FD4F208182E194E015
:1011A000622F0E940820CF91DF910895DF93CF93A3
:1011B000CDB7DEB728970FB6F894DEBF0FBECDBF10
:1011C0009E838D8378876F8380E090E0A0E0B0E01D
:1011D00089839A83AB83BC83ED81FE812081318139
:1011E000EF81F88580819181A901481B590BCA01C3
:1011F000CC01A0E0B0E0BC01CD010E94FD039B0149
:10120000AC01CA01B9010E941F02DC01CB019C01A3
:10121000AD0169817A818B819C810E94F201DC01A0
:10122000CB0189839A83AB83BC838D819E81FC0132
:10123000329620813181EF81F88582819381A901E5
:10124000481B590BCA01CC01A0E0B0E0BC01CD01A4
:101250000E94FD039B01AC01CA01B9010E941F025B
:10126000DC01CB019C01AD0169817A818B819C817C
:101270000E94F201DC01CB0189839A83AB83BC839A
:101280008D819E81FC01349620813181EF81F8852A
:1012900084819581A901481B590BCA01CC01A0E0AA
:1012A000B0E0BC01CD010E94FD039B01AC01CA016D
:1012B000B9010E941F02DC01CB019C01AD016981D3
:1012C0007A818B819C810E94F201DC01CB018983B0
:1012D0009A83AB83BC838D819E81FC0136962081ED
:1012E0003181EF81F88586819781A901481B590BCF
:1012F000CA01CC01A0E0B0E0BC01CD010E94FD0319
:101300009B01AC01CA01B9010E941F02DC01CB01A3
:101310009C01AD0169817A818B819C810E94F201DF
:10132000DC01CB0189839A83AB83BC838D819E8151
:10133000FC01389620813181EF81F8858085918587
:10134000A901481B590BCA01CC01A0E0B0E0BC01C7
:10135000CD010E94FD039B01AC01CA01B9010E94AD
:101360001F02DC01CB019C01AD0169817A818B8177
:101370009C810E94F201DC01CB0189839A83AB83BB
:10138000BC838D819E81FC013A9620813181EF8161
:10139000F88582859385A901481B590BCA01CC01A8
:1013A000A0E0B0E0BC01CD010E94FD039B01AC01B7
:1013B000CA01B9010E941F02DC01CB019C01AD01F1
:1013C00069817A818B819C810E94F201DC01CB01D1
:1013D00089839A83AB83BC838D819E81FC013C967B
:1013E00020813181EF81F88584859585A901481B8D
:1013F000590BCA01CC01A0E0B0E0BC01CD010E94B4
:10140000FD039B01AC01CA01B9010E941F02DC016E
:10141000CB019C01AD0169817A818B819C810E9405
:10142000F201DC01CB0189839A83AB83BC83898180
:101430009A81AB81BC81BC01CD010E94C123DC013A
:10144000CB01BC01CD0128960FB6F894DEBF0FBECC
:10145000CDBFCF91DF910895DF93CF93CDB7DEB7A6
:101460002F970FB6F894DEBF0FBECDBF9C878B873A
:101470007E876D874F871A868D859E852B853C8557
:10148000B9010E94D608DC01CB018E839F83A88717
:10149000B98781E08D8332C08D81882F90E09C01D7
:1014A00022953295307F3227207F32278B859C858D
:1014B000280F391F8D859E85B9010E94D608DC0151
:1014C000CB0189839A83AB83BC8369817A818B81C9
:1014D0009C812E813F81488559850E94790388230C
:1014E00054F489819A81AB81BC818E839F83A887C4
:1014F000B9878D818A878D818F5F8D839D818F854F
:10150000981750F28A852F960FB6F894DEBF0FBE5B
:10151000CDBFCF91DF910895DF93CF9300D000D05E
:101520000F92CDB7DEB79B838A837D836C838EEA6F
:1015300092E02A813B81B90144E10E942C0A89830F
:101540008981882F90E082959295907F9827807F5F
:101550009827FC01E454FD4F8081EC81FD8180835C
:101560008C819D81DC0111968981882F90E0829584
:101570009295907F9827807F9827FC01E354FD4F38
:1015800080818C930F900F900F900F900F90CF91C0
:10159000DF910895DF93CF9300D00F92CDB7DEB7E0
:1015A00089838981282F30E03B832A838A819B812C
:1015B000009769F02A813B812130310579F4AFE54C
:1015C000B0E0EFE5F0E0808180688C9307C0AFE584
:1015D000B0E0EFE5F0E080818F778C930F900F9073
:1015E0000F90CF91DF910895DF93CF9300D000D07B
:1015F00000D0CDB7DEB78A836B834C8319828A8192
:10160000282F30E03E832D838D819E81813091058E
:1016100009F449C02D813E81223031052CF48D81A1
:101620009E81009771F0D5C02D813E812230310519
:1016300009F46BC08D819E818330910509F497C0B8
:10164000C8C08C818823A9F4AAE3B0E0EAE3F0E003
:101650008081482F8B81282F30E081E090E0022E9E
:1016600002C0880F991F0A94E2F7809584238C9317
:10167000B2C08C818130A1F4AAE3B0E0EAE3F0E0EB
:101680008081482F8B81282F30E081E090E0022E6E
:1016900002C0880F991F0A94E2F7842B8C939BC099
:1016A00081E0898398C08C818823A9F4A7E3B0E006
:1016B000E7E3F0E08081482F8B81282F30E081E044
:1016C00090E0022E02C0880F991F0A94E2F78095DD
:1016D00084238C9380C08C818130A1F4A7E3B0E097
:1016E000E7E3F0E08081482F8B81282F30E081E014
:1016F00090E0022E02C0880F991F0A94E2F7842B13
:101700008C9369C081E0898366C08C818823A9F4A9
:10171000A4E3B0E0E4E3F0E08081482F8B81282F40
:1017200030E081E090E0022E02C0880F991F0A94F9
:10173000E2F7809584238C934EC08C818130A1F494
:10174000A4E3B0E0E4E3F0E08081482F8B81282F10
:1017500030E081E090E0022E02C0880F991F0A94C9
:10176000E2F7842B8C9337C081E0898334C08C816D
:101770008823A9F4A1E3B0E0E1E3F0E08081482F01
:101780008B81282F30E081E090E0022E02C0880F8C
:10179000991F0A94E2F7809584238C931CC08C8156
:1017A0008130A1F4A1E3B0E0E1E3F0E08081482FD3
:1017B0008B81282F30E081E090E0022E02C0880F5C
:1017C000991F0A94E2F7842B8C9305C081E08983EA
:1017D00002C081E08983898126960FB6F894DEBF26
:1017E0000FBECDBFCF91DF910895DF93CF9300D08F
:1017F00000D000D0CDB7DEB78A836B834C831982CB
:101800008A81282F30E03E832D838D819E81813017
:10181000910509F449C02D813E81223031052CF417
:101820008D819E81009771F0D5C02D813E8122303F
:10183000310509F46BC08D819E818330910509F4D7
:1018400097C0C8C08C818823A9F4ABE3B0E0EBE378
:10185000F0E08081482F8B81282F30E081E090E0FC
:10186000022E02C0880F991F0A94E2F78095842304
:101870008C93B2C08C818130A1F4ABE3B0E0EBE398
:10188000F0E08081482F8B81282F30E081E090E0CC
:10189000022E02C0880F991F0A94E2F7842B8C93C2
:1018A0009BC081E0898398C08C818823A9F4A8E338
:1018B000B0E0E8E3F0E08081482F8B81282F30E012
:1018C00081E090E0022E02C0880F991F0A94E2F78F
:1018D000809584238C9380C08C818130A1F4A8E30F
:1018E000B0E0E8E3F0E08081482F8B81282F30E0E2
:1018F00081E090E0022E02C0880F991F0A94E2F75F
:10190000842B8C9369C081E0898366C08C81882395
:10191000A9F4A5E3B0E0E5E3F0E08081482F8B81F6
:10192000282F30E081E090E0022E02C0880F991F3E
:101930000A94E2F7809584238C934EC08C81813089
:10194000A1F4A5E3B0E0E5E3F0E08081482F8B81CE
:10195000282F30E081E090E0022E02C0880F991F0E
:101960000A94E2F7842B8C9337C081E0898334C0DA
:101970008C818823A9F4A2E3B0E0E2E3F0E0808167
:10198000482F8B81282F30E081E090E0022E02C0AA
:10199000880F991F0A94E2F7809584238C931CC0CA
:1019A0008C818130A1F4A2E3B0E0E2E3F0E0808139
:1019B000482F8B81282F30E081E090E0022E02C07A
:1019C000880F991F0A94E2F7842B8C9305C081E05D
:1019D000898302C081E08983898126960FB6F894B5
:1019E000DEBF0FBECDBFCF91DF910895DF93CF93C0
:1019F000CDB7DEB727970FB6F894DEBF0FBECDBFC9
:101A00008A836B835D834C8319828B81883008F0D5
:101A100074C08A81282F30E03F832E834E815F81FE
:101A20004130510559F18E819F818230910534F406
:101A30002E813F812115310569F05CC04E815F81A7
:101A40004230510579F18E819F818330910509F4EF
:101A50003DC050C0E9E3F0E08081282F30E08B8169
:101A6000882F90E0A90102C0559547958A95E2F725
:101A7000CA018170EC81FD81808341C0E6E3F0E022
:101A80008081282F30E08B81882F90E0A90102C04F
:101A9000559547958A95E2F7CA018170EC81FD81E1
:101AA00080832DC0E3E3F0E08081282F30E08B813C
:101AB000882F90E0A90102C0559547958A95E2F7D5
:101AC000CA018170EC81FD81808319C0E0E3F0E000
:101AD0008081282F30E08B81882F90E0A90102C0FF
:101AE000559547958A95E2F7CA018170EC81FD8191
:101AF000808305C081E0898302C081E08983898178
:101B000027960FB6F894DEBF0FBECDBFCF91DF9101
:101B10000895DF93CF93CDB7DEB727970FB6F8942C
:101B2000DEBF0FBECDBF8A836B835D834C8319827A
:101B30008B81883008F074C08A81282F30E03F8381
:101B40002E834E815F814130510559F18E819F81F5
:101B50008230910534F42E813F812115310569F0E1
:101B60005CC04E815F814230510579F18E819F8149
:101B70008330910509F43DC050C0EAE3F0E0808174
:101B8000282F30E08B81882F90E0A90102C0559565
:101B900047958A95E2F7CA018170EC81FD818083C7
:101BA00041C0E7E3F0E08081282F30E08B81882F6F
:101BB00090E0A90102C0559547958A95E2F7CA01C0
:101BC0008170EC81FD8180832DC0E4E3F0E08081B1
:101BD000282F30E08B81882F90E0A90102C0559515
:101BE00047958A95E2F7CA018170EC81FD81808377
:101BF00019C0E1E3F0E08081282F30E08B81882F4D
:101C000090E0A90102C0559547958A95E2F7CA016F
:101C10008170EC81FD81808305C081E0898302C0F1
:101C200081E08983898127960FB6F894DEBF0FBEC5
:101C3000CDBFCF91DF910895DF93CF93CDB7DEB7BE
:101C40002E970FB6F894DEBF0FBECDBF8A836B838D
:101C50004C8319828B81883008F0DBC08A81282F61
:101C600030E03E872D878D859E858130910509F472
:101C700044C02D853E85223031052CF48D859E850E
:101C8000009771F0C3C02D853E852230310509F4DF
:101C900062C08D859E858330910509F489C0B6C0E8
:101CA0008C818130A9F4ABE3B0E0EBE3F0E080811C
:101CB000482F8B81282F30E081E090E0022E02C077
:101CC000880F991F0A94E2F7842B8C939C91A3C0F0
:101CD000ABE3B0E0EBE3F0E08081482F8B81282F6D
:101CE00030E081E090E002C0880F991F2A95E2F76A
:101CF000809584238C932C918EC08C818130A9F4A3
:101D0000A8E3B0E0E8E3F0E08081482F8B81282F42
:101D100030E081E090E0022E02C0880F991F0A9403
:101D2000E2F7842B8C933C9176C0A8E3B0E0E8E323
:101D3000F0E08081482F8B81282F30E081E090E017
:101D4000022E02C0880F991F0A94E2F7809584231F
:101D50008C938C9160C08C818130A9F4A5E3B0E0B4
:101D6000E5E3F0E08081482F8B81282F30E081E08F
:101D700090E0022E02C0880F991F0A94E2F7842B8C
:101D80008C939C9148C0A5E3B0E0E5E3F0E080814E
:101D9000482F8B81282F30E081E090E002C0880F2F
:101DA000991F2A95E2F7809584238C932C9133C058
:101DB0008C818130A9F4A2E3B0E0E2E3F0E080811D
:101DC000482F8B81282F30E081E090E0022E02C066
:101DD000880F991F0A94E2F7842B8C933C911BC0C7
:101DE000A2E3B0E0E2E3F0E08081482F8B81282F6E
:101DF00030E081E090E0022E02C0880F991F0A9423
:101E0000E2F7809584238C938C9105C081E08983CF
:101E100002C081E0898389812E960FB6F894DEBFD7
:101E20000FBECDBFCF91DF910895DF93CF9300D048
:101E300000D00F92CDB7DEB78A836B8319828A8177
:101E4000282F30E03D832C838C819D81813091054A
:101E5000D1F02C813D81223031052CF48C819D8183
:101E6000009761F01FC02C813D812230310581F047
:101E70008C819D818330910581F014C0EAE3F0E00C
:101E80008B81808311C0E7E3F0E08B8180830CC0FD
:101E9000E4E3F0E08B81808307C0E1E3F0E08B8135
:101EA000808302C081E0898389810F900F900F9019
:101EB0000F900F90CF91DF910895DF93CF9300D0D3
:101EC00000D00F92CDB7DEB78A836B8319828A81E7
:101ED000282F30E03D832C838C819D8181309105BA
:101EE000D1F02C813D81223031052CF48C819D81F3
:101EF000009761F01FC02C813D812230310581F0B7
:101F00008C819D818330910581F014C0EBE3F0E07A
:101F10008B81808311C0E8E3F0E08B8180830CC06B
:101F2000E5E3F0E08B81808307C0E2E3F0E08B81A2
:101F3000808302C081E0898389810F900F900F9088
:101F40000F900F90CF91DF910895DF93CF9300D042
:101F500000D000D0CDB7DEB78A837C836B83198233
:101F60008A81282F30E03E832D838D819E818130B0
:101F70009105E1F02D813E81223031052CF48D81D7
:101F80009E81009761F027C02D813E81223031056E
:101F9000A1F08D819E8183309105B1F01CC0E9E3F1
:101FA000F0E08081EB81FC81808317C0E6E3F0E004
:101FB0008081EB81FC81808310C0E3E3F0E08081CD
:101FC000EB81FC81808309C0E0E3F0E08081EB815C
:101FD000FC81808302C081E08983898126960FB6C7
:101FE000F894DEBF0FBECDBFCF91DF910895DF9390
:101FF000CF9300D000D00F92CDB7DEB78A836B832A
:1020000019828A81282F30E03D832C838C819D8129
:1020100081309105D1F02C813D81223031052CF4A5
:102020008C819D81009761F01FC02C813D81223001
:10203000310581F08C819D818330910581F014C040
:10204000EBE3F0E08B81808311C0E8E3F0E08B816B
:1020500080830CC0E5E3F0E08B81808307C0E2E37E
:10206000F0E08B81808302C081E0898389810F90B9
:102070000F900F900F900F90CF91DF910895DF9305
:10208000CF9300D00F92CDB7DEB78983A6E2B0E040
:10209000E6E2F0E0808180688C93A6E2B0E0E6E2C0
:1020A000F0E080818B7F8C93A6E2B0E0E6E2F0E086
:1020B000808182608C93A6E2B0E0E6E2F0E080816D
:1020C0008E7F8C938981282F30E03B832A838A81FD
:1020D0009B8181309105C9F02A813B8122303105F5
:1020E00029F08A819B810097F9F02CC0A7E2B0E02B
:1020F000E7E2F0E080818F778C93A7E2B0E0E7E23F
:10210000F0E080818F7B8C931DC0A7E2B0E0E7E216
:10211000F0E080818F778C93A7E2B0E0E7E2F0E017
:10212000808180648C930EC0A7E2B0E0E7E2F0E02B
:10213000808180688C93A7E2B0E0E7E2F0E08081E4
:1021400080648C93A6E2B0E0E6E2F0E080818F7DCF
:102150008C93A6E2B0E0E6E2F0E0808188608C93A8
:1021600081E00E94CA0AA7E2B0E0E7E2F0E08081E5
:102170008F7D8C930F900F900F90CF91DF910895EA
:10218000DF93CF9300D0CDB7DEB78A838A818830C2
:10219000C0F48A81882F90E0880F991FFC01E251DA
:1021A000FC4F20818A81882F90E0880F991FFC01C5
:1021B000E151FC4F9081822F692F40E00E94F40A88
:1021C00022C08A818830F9F419821AC08981882F47
:1021D00090E0880F991FFC01E251FC4F208189811A
:1021E000882F90E0880F991FFC01E151FC4F9081EE
:1021F000822F692F40E00E94F40A89818F5F8983D2
:102200008981883018F30F900F90CF91DF91089556
:10221000DF93CF930F92CDB7DEB7898389810E9478
:10222000B011A6E2B0E0E6E2F0E0808180648C9339
:102230000F90CF91DF910895DF93CF93CDB7DEB7A5
:10224000CF91DF910895DF93CF930F92CDB7DEB793
:1022500089838981882F90E081309105A9F4A0E5D8
:10226000B0E0E0E5F0E080818F7D8C93A0E5B0E008
:10227000E0E5F0E0808180648C93A0E5B0E0E0E5EB
:10228000F0E080818F778C930F90CF91DF9108954C
:10229000DF93CF9300D0CDB7DEB79A83898389814E
:1022A0009A8190931904809318040F900F90CF9106
:1022B000DF910895DF93CF9300D0CDB7DEB79A8337
:1022C000898389819A8190931704809316040F90D3
:1022D0000F90CF91DF9108951F920F920FB60F923A
:1022E00011242F933F934F935F936F937F938F931B
:1022F0009F93AF93BF93EF93FF93DF93CF93CDB7AC
:10230000DEB78091180490911904009759F0E0917C
:102310001804F0911904A4E2B0E08D919C911197FA
:10232000918380838091160490911704009729F07F
:10233000E0911604F09117040995CF91DF91FF9178
:10234000EF91BF91AF919F918F917F916F915F912D
:102350004F913F912F910F900FBE0F901F901895A6
:10236000DF93CF9300D00F92CDB7DEB789838981F9
:10237000282F30E03B832A838A819B81833091051B
:1023800009F49BC02A813B81243031058CF48A8179
:102390009B818130910509F448C02A813B8122301C
:1023A00031050CF066C08A819B810097D1F038C15D
:1023B0002A813B812530310509F4C7C08A819B8180
:1023C000853091050CF49DC02A813B812630310572
:1023D00009F4DFC08A819B818730910509F4FDC033
:1023E0001FC1A7E2B0E0E7E2F0E080818F7E8C932E
:1023F000A7E2B0E0E7E2F0E08081877F8C93A7E27C
:10240000B0E0E7E2F0E080818B7F8C93A7E2B0E060
:10241000E7E2F0E080818D7F8C93A7E2B0E0E7E215
:10242000F0E080818E7F8C93FBC0A7E2B0E0E7E212
:10243000F0E080818F7E8C93A7E2B0E0E7E2F0E0ED
:102440008081877F8C93A7E2B0E0E7E2F0E08081B3
:102450008B7F8C93A7E2B0E0E7E2F0E080818D7F94
:102460008C93A7E2B0E0E7E2F0E0808181608C939A
:10247000D7C0A7E2B0E0E7E2F0E080818F7E8C93E6
:10248000A7E2B0E0E7E2F0E08081877F8C93A7E2EB
:10249000B0E0E7E2F0E080818B7F8C93A7E2B0E0D0
:1024A000E7E2F0E0808182608C93A7E2B0E0E7E2AF
:1024B000F0E080818E7F8C93B3C0A7E2B0E0E7E2CA
:1024C000F0E080818F7E8C93A7E2B0E0E7E2F0E05D
:1024D0008081877F8C93A7E2B0E0E7E2F0E0808123
:1024E0008B7F8C93A7E2B0E0E7E2F0E0808182602E
:1024F0008C93A7E2B0E0E7E2F0E0808181608C930A
:102500008FC0A7E2B0E0E7E2F0E080818F7E8C939D
:10251000A7E2B0E0E7E2F0E08081877F8C93A7E25A
:10252000B0E0E7E2F0E0808184608C93A7E2B0E065
:10253000E7E2F0E080818D7F8C93A7E2B0E0E7E2F4
:10254000F0E080818E7F8C936BC0A7E2B0E0E7E281
:10255000F0E080818F7E8C93A7E2B0E0E7E2F0E0CC
:102560008081877F8C93A7E2B0E0E7E2F0E0808192
:1025700084608C93A7E2B0E0E7E2F0E080818D7F99
:102580008C93A7E2B0E0E7E2F0E0808181608C9379
:1025900047C0A7E2B0E0E7E2F0E080818F7E8C9355
:1025A000A7E2B0E0E7E2F0E08081877F8C93A7E2CA
:1025B000B0E0E7E2F0E0808184608C93A7E2B0E0D5
:1025C000E7E2F0E0808182608C93A7E2B0E0E7E28E
:1025D000F0E080818E7F8C9323C0A7E2B0E0E7E239
:1025E000F0E080818F7E8C93A7E2B0E0E7E2F0E03C
:1025F0008081877F8C93A7E2B0E0E7E2F0E0808102
:1026000084608C93A7E2B0E0E7E2F0E08081826032
:102610008C93A7E2B0E0E7E2F0E0808181608C93E8
:102620000F900F900F90CF91DF910895DF93CF938C
:1026300000D000D0CDB7DEB79C838B838B819C818B
:102640009C0140E050E080E291EAA7E0B0E0BC01EC
:10265000CD010E946423DA01C90101979A8389831D
:10266000E0E4F0E089819A81892F99278083E9E26B
:10267000F0E089818083AAE2B0E0EAE2F0E08081C4
:1026800080618C93AAE2B0E0EAE2F0E080818860A9
:102690008C93E0E4F0E086E880830F900F900F9039
:1026A0000F90CF91DF910895DF93CF930F92CDB725
:1026B000DEB78983EBE2F0E08081829586958770B2
:1026C000882F90E0817090700097A1F3ECE2F0E029
:1026D000898180830F90CF91DF910895DF93CF930D
:1026E000CDB7DEB7EBE2F0E080818823DCF7ECE2E7
:1026F000F0E08081CF91DF910895DF93CF93CDB744
:10270000DEB7AFE4B0E0EFE4F0E080818E7F8C9341
:10271000AFE4B0E0EFE4F0E080818D7F8C93AEE435
:10272000B0E0EEE4F0E0808188608C93AEE4B0E04D
:10273000EEE4F0E080818F7E8C93A9E5B0E0E9E5DE
:10274000F0E0808180618C93AEE4B0E0EEE4F0E0F4
:102750008081887F8C93AEE4B0E0EEE4F0E080818D
:1027600085608C93CF91DF910895DF93CF93CDB7A0
:10277000DEB7AEE4B0E0EEE4F0E08081887F8C93D9
:10278000CF91DF910895DF93CF9300D0CDB7DEB71F
:102790008A8319828A81883080F4AEE4B0E0EEE466
:1027A000F0E08081887F8C93AEE4B0E0EEE4F0E06E
:1027B00090818A81892B8C9302C081E089838981F1
:1027C0000F900F90CF91DF910895DF93CF930F92E9
:1027D000CDB7DEB78983ECE4F0E0898180830F9088
:1027E000CF91DF910895DF93CF930F92CDB7DEB7EE
:1027F0008983EAE4F0E0898180830F90CF91DF91B3
:102800000895DF93CF9300D000D000D0CDB7DEB7CE
:102810009A8389837C836B835E834D8389819A81CC
:10282000CC01A0E0B0E028EE33E040E050E0BC0195
:10283000CD010E942523DC01CB0120E03DE740E0F3
:1028400050E0BC01CD010E946423DA01C901EB8193
:10285000FC8191838083ED81FE818AEF80832696BF
:102860000FB6F894DEBF0FBECDBFCF91DF910895B4
:10287000DF93CF9300D0CDB7DEB79A838983898168
:102880009A8190931B0480931A040F900F90CF911C
:10289000DF910895DF93CF9300D0CDB7DEB79A8351
:1028A000898389819A8190931D0480931C040F90E1
:1028B0000F90CF91DF9108951F920F920FB60F9254
:1028C00011242F933F934F935F936F937F938F9335
:1028D0009F93AF93BF93EF93FF93DF93CF93CDB7C6
:1028E000DEB780911E0490911F04019690931F04FF
:1028F00080931E0420911E0430911F048091530484
:10290000909154042817390779F480911C04909110
:102910001D04009749F0E0911C04F0911D040995F5
:1029200010921F0410921E04CF91DF91FF91EF913E
:10293000BF91AF919F918F917F916F915F914F91D7
:102940003F912F910F900FBE0F901F9018951F92DF
:102950000F920FB60F9211242F933F934F935F93D3
:102960006F937F938F939F93AF93BF93EF93FF9357
:10297000DF93CF93CDB7DEB780911A0490911B04FB
:10298000009729F0E0911A04F0911B040995CF916A
:10299000DF91FF91EF91BF91AF919F918F917F91C7
:1029A0006F915F914F913F912F910F900FBE0F90BC
:1029B0001F901895DF93CF93CDB7DEB7A3E5B0E0B6
:1029C000E3E5F0E080818F7B8C93A3E5B0E0E3E565
:1029D000F0E0808188608C93A9E5B0E0E9E5F0E063
:1029E000808182608C93AFE5B0E0EFE5F0E080811C
:1029F00080688C93CF91DF910895DF93CF9300D0BF
:102A000000D0CDB7DEB79C838B838B819C810E94E5
:102A10008C159A838983ECE5F0E08981808310929C
:102A2000250410922404A3E5B0E0E3E5F0E0808102
:102A300083608C930F900F900F900F90CF91DF9148
:102A40000895DF93CF93CDB7DEB7A3E5B0E0E3E51C
:102A5000F0E08081887F8C93CF91DF910895DF93A0
:102A6000CF9300D0CDB7DEB79A83898389819A81CD
:102A700090932104809320040F900F90CF91DF91C9
:102A800008951F920F920FB60F9211242F933F9328
:102A90004F935F936F937F938F939F93AF93BF9366
:102AA000EF93FF93DF93CF93CDB7DEB780912404EC
:102AB00090912504019690932504809324042091FD
:102AC0002404309125048091220490912304281736
:102AD000390778F08091200490912104009729F023
:102AE000E0912004F09121040995109225041092A0
:102AF0002404CF91DF91FF91EF91BF91AF919F910E
:102B00008F917F916F915F914F913F912F910F9096
:102B10000FBE0F901F901895EF92FF920F931F9387
:102B2000DF93CF93CDB7DEB72A970FB6F894DEBF09
:102B30000FBECDBF9A87898781E090E0A0E0B0E02A
:102B40008D839E83AF83B88780E490E0A0E0B0E0FF
:102B50008D839E83AF83B8878D819E81AF81B88539
:102B600028EE33E040E050E0BC01CD010E94252377
:102B70009B01AC0180E092E1AAE7B0E0BC01CD018D
:102B80000E946423DA01C9017C018D0189859A853F
:102B90009C0140E050E0C801B7010E942523DC0100
:102BA000CB0189839A83AB83BC8389819A81AB8172
:102BB000BC818F3F9105A105B105E1F0D8F0898175
:102BC0009A81AB81BC812FEF30E040E050E0BC0146
:102BD000CD010E946423DA01C901909323048093FC
:102BE00022048FEF90E0A0E0B0E089839A83AB836A
:102BF000BC8306C081E090E090932304809322047C
:102C000089819A812A960FB6F894DEBF0FBECDBF98
:102C1000CF91DF911F910F91FF90EF900895DF9377
:102C2000CF9300D0CDB7DEB78A838A818830C0F4D5
:102C30008A81882F90E0880F991FFC01E250FC4F99
:102C400020818A81882F90E0880F991FFC01E15034
:102C5000FC4F9081822F692F40E00E94F40A22C02D
:102C60008A818830F9F419821AC08981882F90E00E
:102C7000880F991FFC01E250FC4F20818981882F29
:102C800090E0880F991FFC01E150FC4F9081822F4A
:102C9000692F40E00E94F40A89818F5F89838981CE
:102CA000883018F30F900F90CF91DF910895DF9344
:102CB000CF9300D00F92CDB7DEB79A8389836B8311
:102CC0008B81882F90E0880F991FFC01E250FC4F08
:102CD00040818B81882F90E0880F991FFC01E15083
:102CE000FC4F908129813A81842F692FA9010E948C
:102CF000F60C0F900F900F90CF91DF910895DF9316
:102D0000CF9300D00F92CDB7DEB79B838A838A81A1
:102D10009B81FC0132961082198221C08981882F03
:102D200090E0880F991FFC01E250FC4F408189819F
:102D3000882F90E0880F991FFC01E150FC4F5081D3
:102D40008981282F30E08A819B81280F391F842FA9
:102D5000652FA9010E94F60C89818F5F8983898183
:102D60008230E0F28A819B81FC01329681E080838F
:102D70000F900F900F90CF91DF910895DF93CF9335
:102D800000D00F92CDB7DEB78A836B838A816B81C7
:102D900041E00E94F40A898389810F900F900F907F
:102DA000CF91DF910895DF93CF9300D0CDB7DEB7F9
:102DB0008A838A816FEF0E94150F898389810F9022
:102DC0000F90CF91DF910895DF93CF9300D000D083
:102DD000CDB7DEB78B836C839E012E5F3F4F8B8117
:102DE0006C81A9010E94890D89838981882371F4EE
:102DF0008A81882329F48B816C810E94BE16898385
:102E00008B816C8141E00E94F50B898389810F9051
:102E10000F900F900F90CF91DF910895DF93CF9394
:102E200000D000D0CDB7DEB78B836C839E012E5FC0
:102E30003F4F8B816C81A9010E94890D8983898113
:102E4000882371F48A81882329F48B816C810E9404
:102E5000BE1689838B816C8140E00E94F50B8983CB
:102E600089810F900F900F900F90CF91DF9108956F
:102E7000DF93CF9300D000D00F92CDB7DEB78C8315
:102E80006D839E012D5F3F4F8C816D81A9010E9452
:102E9000890D89838981882321F58B81882329F4F1
:102EA0008C816D810E94BE1689839E012E5F3F4FEB
:102EB0008C816D81A9010E94F60C89838981882308
:102EC00081F48A81813039F48C816D8140E00E94E7
:102ED000F50B898306C08C816D8141E00E94F50B62
:102EE000898389810F900F900F900F900F90CF9151
:102EF000DF910895DF93CF93CDB7DEB7A2970FB6DA
:102F0000F894DEBF0FBECDBF8F8F68A35AA349A32D
:102F10009E01225E3F4F8F8D68A1A9010E94890DFD
:102F20008D8F8D8D882309F008C18E8D882329F41B
:102F30008F8D68A10E94BE168D8F8F8D68A10E9413
:102F4000E4168D8F89A19AA1CC01A0E0B0E0BC016C
:102F5000CD010E94FD03DC01CB01898F9A8FAB8FDD
:102F6000BC8F698D7A8D8B8D9C8D20E030E04AEF8F
:102F700054E40E941F02DC01CB018D8B9E8BAF8B32
:102F8000B88F6D897E898F89988D20E030E040E888
:102F90005FE30E94790388232CF481E090E09C8B0E
:102FA0008B8B3FC06D897E898F89988D20E03FEFA4
:102FB0004FE757E40E94190318164CF5698D7A8D76
:102FC0008B8D9C8D20E030E040E251E40E941F0296
:102FD000DC01CB01BC01CD010E944900DC01CB0129
:102FE0009C8B8B8B0FC088EC90E09A8B898B8989A6
:102FF0009A890197F1F79A8B898B8B899C89019724
:103000009C8B8B8B8B899C89009769F714C06D8989
:103010007E898F89988D0E944900DC01CB019C8BB1
:103020008B8B8B899C89988B8F878F85988901974B
:10303000F1F7988B8F878D8D882309F07EC08F8D57
:1030400068A10E940E178D8F89A19AA1CC01A0E0E2
:10305000B0E0BC01CD010E94FD03DC01CB018B87F8
:103060009C87AD87BE876B857C858D859E8520E09E
:1030700030E04AEF54E40E941F02DC01CB018F8351
:103080009887A987BA876F81788589859A8520E096
:1030900030E040E85FE30E94790388232CF481E06C
:1030A00090E09E838D833FC06F81788589859A8566
:1030B00020E03FEF4FE757E40E94190318164CF544
:1030C0006B857C858D859E8520E030E040E251E473
:1030D0000E941F02DC01CB01BC01CD010E9449000E
:1030E000DC01CB019E838D830FC088EC90E09C8334
:1030F0008B838B819C810197F1F79C838B838D81DE
:103100009E8101979E838D838D819E81009769F7B3
:1031100014C06F81788589859A850E944900DC01F9
:10312000CB019E838D838D819E819A838983898142
:103130009A810197F1F79A8389838D8DA2960FB6B4
:10314000F894DEBF0FBECDBFCF91DF910895DF931E
:10315000CF9300D00F92CDB7DEB78B839E012E5F49
:103160003F4F8B8160E0A9010E94890D898389818D
:10317000882361F48A81882321F48B810E94D316ED
:1031800089838B816FEF0E945D0F898389810F9006
:103190000F900F90CF91DF910895DF93CF9300D0E0
:1031A0000F92CDB7DEB78B839E012E5F3F4F8B8191
:1031B00060E0A9010E94890D89838981882361F4D7
:1031C0008A81882321F48B810E94D31689838B8185
:1031D00060E00E945D0F898389810F900F900F90AE
:1031E000CF91DF910895DF93CF9300D000D0CDB77A
:1031F000DEB78C839E012D5F3F4F8C8160E0A9017B
:103200000E94890D89838981882301F58B81882318
:1032100021F48C810E94D31689839E012E5F3F4F3B
:103220008C81B9010E94A50F89838981882371F45B
:103230008A81813031F48C8160E00E945D0F898346
:1032400005C08C816FEF0E945D0F898389810F908B
:103250000F900F900F90CF91DF910895DF93CF9350
:10326000CDB7DEB7A1970FB6F894DEBF0FBECDBFC6
:103270008F8F79A368A39E01225E3F4F8F8D60E000
:10328000A9010E94890D8D8F8D8D882309F005C1BC
:103290008E8D882321F48F8D0E94D3168D8F8F8D74
:1032A0000E94A7188D8F88A199A1CC01A0E0B0E061
:1032B000BC01CD010E94FD03DC01CB01898F9A8FF7
:1032C000AB8FBC8F698D7A8D8B8D9C8D20E030E02B
:1032D0004AEF54E40E941F02DC01CB018D8B9E8BD0
:1032E000AF8BB88F6D897E898F89988D20E030E013
:1032F00040E85FE30E94790388232CF481E090E0AA
:103300009C8B8B8B3FC06D897E898F89988D20E047
:103310003FEF4FE757E40E94190318164CF5698DEB
:103320007A8D8B8D9C8D20E030E040E251E40E944C
:103330001F02DC01CB01BC01CD010E944900DC0170
:10334000CB019C8B8B8B0FC088EC90E09A8B898B88
:1033500089899A890197F1F79A8B898B8B899C8946
:1033600001979C8B8B8B8B899C89009769F714C084
:103370006D897E898F89988D0E944900DC01CB017F
:103380009C8B8B8B8B899C89988B8F878F85988959
:103390000197F1F7988B8F878D8D882309F07DC079
:1033A0008F8D0E94CD188D8F88A199A1CC01A0E0AE
:1033B000B0E0BC01CD010E94FD03DC01CB018B8795
:1033C0009C87AD87BE876B857C858D859E8520E03B
:1033D00030E04AEF54E40E941F02DC01CB018F83EE
:1033E0009887A987BA876F81788589859A8520E033
:1033F00030E040E85FE30E94790388232CF481E009
:1034000090E09E838D833FC06F81788589859A8502
:1034100020E03FEF4FE757E40E94190318164CF5E0
:103420006B857C858D859E8520E030E040E251E40F
:103430000E941F02DC01CB01BC01CD010E944900AA
:10344000DC01CB019E838D830FC088EC90E09C83D0
:103450008B838B819C810197F1F79C838B838D817A
:103460009E8101979E838D838D819E81009769F750
:1034700014C06F81788589859A850E944900DC0196
:10348000CB019E838D838D819E819A8389838981DF
:103490009A810197F1F79A8389838D8DA1960FB652
:1034A000F894DEBF0FBECDBFCF91DF910895DF93BB
:1034B000CF93CDB7DEB72F970FB6F894DEBF0FBE10
:1034C000CDBF8F8782E067E041E00E94F50B82E08C
:1034D00065E040E00E94F50B81E06F850E945D0F82
:1034E00082E066E041E00E94F50B80E090E0A0E021
:1034F000B0E48B879C87AD87BE876B857C858D8587
:103500009E8520E030E04AEF54E40E941F02DC0177
:10351000CB018F839887A987BA876F817885898542
:103520009A8520E030E040E85FE30E947903882339
:103530002CF481E090E09E838D833FC06F8178857D
:1035400089859A8520E03FEF4FE757E40E941903F1
:1035500018164CF56B857C858D859E8520E030E0C6
:1035600040E251E40E941F02DC01CB01BC01CD010D
:103570000E944900DC01CB019E838D830FC088EC43
:1035800090E09C838B838B819C810197F1F79C83D6
:103590008B838D819E8101979E838D838D819E81FA
:1035A000009769F714C06F81788589859A850E9494
:1035B0004900DC01CB019E838D838D819E819A839E
:1035C000898389819A810197F1F79A83898382E0BF
:1035D00066E040E00E94F50B2F960FB6F894DEBF30
:1035E0000FBECDBFCF91DF910895DF93CF93CDB7BD
:1035F000DEB72F970FB6F894DEBF0FBECDBF8F8713
:1036000082E067E040E00E94F50B82E065E040E088
:103610000E94F50B81E06F850E945D0F82E066E0FD
:1036200041E00E94F50B80E090E0A0E0B0E48B87E1
:103630009C87AD87BE876B857C858D859E8520E0C8
:1036400030E04AEF54E40E941F02DC01CB018F837B
:103650009887A987BA876F81788589859A8520E0C0
:1036600030E040E85FE30E94790388232CF481E096
:1036700090E09E838D833FC06F81788589859A8590
:1036800020E03FEF4FE757E40E94190318164CF56E
:103690006B857C858D859E8520E030E040E251E49D
:1036A0000E941F02DC01CB01BC01CD010E94490038
:1036B000DC01CB019E838D830FC088EC90E09C835E
:1036C0008B838B819C810197F1F79C838B838D8108
:1036D0009E8101979E838D838D819E81009769F7DE
:1036E00014C06F81788589859A850E944900DC0124
:1036F000CB019E838D838D819E819A83898389816D
:103700009A810197F1F79A83898382E066E040E02D
:103710000E94F50B2F960FB6F894DEBF0FBECDBFFB
:10372000CF91DF910895DF93CF93CDB7DEB7E897C0
:103730000FB6F894DEBF0FBECDBF82E067E041E078
:103740000E94F40A82E065E041E00E94F40A82E00F
:1037500066E041E00E94F40A81E06FEF0E94150FDD
:1037600080E090E0A0E2B2E48DAB9EABAFABB8AF2F
:103770006DA97EA98FA998AD20E030E04AEF54E40E
:103780000E941F02DC01CB0189AB9AABABABBCAB97
:1037900069A97AA98BA99CA920E030E040E85FE301
:1037A0000E94790388232CF481E090E098AB8FA7E6
:1037B0003FC069A97AA98BA99CA920E03FEF4FE7F8
:1037C00057E40E94190318164CF56DA97EA98FA91C
:1037D00098AD20E030E040E251E40E941F02DC019D
:1037E000CB01BC01CD010E944900DC01CB0198ABAB
:1037F0008FA70FC088EC90E09EA78DA78DA59EA5F2
:103800000197F1F79EA78DA78FA598A9019798AB6F
:103810008FA78FA598A9009769F714C069A97AA9FD
:103820008BA99CA90E944900DC01CB0198AB8FA712
:103830008FA598A99CA78BA78BA59CA50197F1F7AD
:103840009CA78BA788E30E94F51A80E090E0A0E097
:10385000B0E48FA398A7A9A7BAA76FA178A589A557
:103860009AA520E030E04AEF54E40E941F02DC01F8
:10387000CB018BA39CA3ADA3BEA36BA17CA18DA107
:103880009EA120E030E040E85FE30E9479038823B6
:103890002CF481E090E09AA389A33FC06BA17CA1A6
:1038A0008DA19EA120E03FEF4FE757E40E9419034E
:1038B00018164CF56FA178A589A59AA520E030E0EF
:1038C00040E251E40E941F02DC01CB01BC01CD01AA
:1038D0000E944900DC01CB019AA389A30FC088ECA8
:1038E00090E098A38F8F8F8D98A10197F1F798A3FF
:1038F0008F8F89A19AA101979AA389A389A19AA1DF
:10390000009769F714C06BA17CA18DA19EA10E94B4
:103910004900DC01CB019AA389A389A19AA19E8FBA
:103920008D8F8D8D9E8D0197F1F79E8F8D8F8CE001
:103930000E94F51A80E090E0A0E0B0E4898F9A8FB1
:10394000AB8FBC8F698D7A8D8B8D9C8D20E030E0A4
:103950004AEF54E40E941F02DC01CB018D8B9E8B49
:10396000AF8BB88F6D897E898F89988D20E030E08C
:1039700040E85FE30E94790388232CF481E090E023
:103980009C8B8B8B3FC06D897E898F89988D20E0C1
:103990003FEF4FE757E40E94190318164CF5698D65
:1039A0007A8D8B8D9C8D20E030E040E251E40E94C6
:1039B0001F02DC01CB01BC01CD010E944900DC01EA
:1039C000CB019C8B8B8B0FC088EC90E09A8B898B02
:1039D00089899A890197F1F79A8B898B8B899C89C0
:1039E00001979C8B8B8B8B899C89009769F714C0FE
:1039F0006D897E898F89988D0E944900DC01CB01F9
:103A00009C8B8B8B8B899C89988B8F878F859889D2
:103A10000197F1F7988B8F8781E00E94F51A80E07B
:103A200090E0A0E0B0E48B879C87AD87BE876B8574
:103A30007C858D859E8520E030E04AEF54E40E942D
:103A40001F02DC01CB018F839887A987BA876F811A
:103A5000788589859A8520E030E040E85FE30E9420
:103A6000790388232CF481E090E09E838D833FC00E
:103A70006F81788589859A8520E03FEF4FE757E48D
:103A80000E94190318164CF56B857C858D859E85E3
:103A900020E030E040E251E40E941F02DC01CB0153
:103AA000BC01CD010E944900DC01CB019E838D83C6
:103AB0000FC088EC90E09C838B838B819C81019765
:103AC000F1F79C838B838D819E8101979E838D83EB
:103AD0008D819E81009769F714C06F8178858985F3
:103AE0009A850E944900DC01CB019E838D838D81E4
:103AF0009E819A83898389819A810197F1F79A83BC
:103B0000898386E00E94F51AE8960FB6F894DEBF26
:103B10000FBECDBFCF91DF910895DF93CF9300D03B
:103B20000F92CDB7DEB79B838A83198214C0898137
:103B3000803119F480EC0E94F51A8981282F30E039
:103B40008A819B81FC01E20FF31F80810E94571A3A
:103B500089818F5F89838981282F30E08A819B81C9
:103B6000FC01E20FF31F8081882309F70F900F906B
:103B70000F90CF91DF910895DF93CF93CDB7DEB74C
:103B800080EC0E94F51ACF91DF910895DF93CF93D7
:103B9000CDB7DEB762970FB6F894DEBF0FBECDBFCC
:103BA0009A8B898B1F86188A0EC08889282F30E04F
:103BB00089899A89FC01E20FF31F80810E94571ABC
:103BC00088898F5F888B8889282F30E089899A8936
:103BD000FC01E20FF31F8081882339F78F859889D4
:103BE000692F0E944423892F803119F480E80E94B4
:103BF000F51A88E10E94F51A80E090E0AAEFB3E49C
:103C00008B879C87AD87BE876B857C858D859E85E0
:103C100020E030E04AEF54E40E941F02DC01CB01B7
:103C20008F839887A987BA876F81788589859A85D8
:103C300020E030E040E85FE30E94790388232CF421
:103C400081E090E09E838D833FC06F817885898578
:103C50009A8520E03FEF4FE757E40E9419031816BA
:103C60004CF56B857C858D859E8520E030E040E2BB
:103C700051E40E941F02DC01CB01BC01CD010E9476
:103C80004900DC01CB019E838D830FC088EC90E05E
:103C90009C838B838B819C810197F1F79C838B8321
:103CA0008D819E8101979E838D838D819E8100975A
:103CB00069F714C06F81788589859A850E944900CB
:103CC000DC01CB019E838D838D819E819A838983C4
:103CD00089819A810197F1F79A8389838F858F5F14
:103CE0008F877CCFDF93CF93CDB7DEB762970FB6C8
:103CF000F894DEBF0FBECDBF9A8B898B1F86188AC2
:103D00000EC08889282F30E089899A89FC01E20F4A
:103D1000F31F80810E94571A88898F5F888B88895A
:103D2000282F30E089899A89FC01E20FF31F8081F6
:103D3000882339F78F859889692F0E944423892F1A
:103D4000803119F480E80E94F51A8CE10E94F51A7E
:103D500080E090E0AAEFB3E48B879C87AD87BE87B5
:103D60006B857C858D859E8520E030E04AEF54E4AC
:103D70000E941F02DC01CB018F839887A987BA8735
:103D80006F81788589859A8520E030E040E85FE39F
:103D90000E94790388232CF481E090E09E838D8338
:103DA0003FC06F81788589859A8520E03FEF4FE796
:103DB00057E40E94190318164CF56B857C858D8598
:103DC0009E8520E030E040E251E40E941F02DC01C9
:103DD000CB01BC01CD010E944900DC01CB019E83D7
:103DE0008D830FC088EC90E09C838B838B819C81BA
:103DF0000197F1F79C838B838D819E8101979E8330
:103E00008D838D819E81009769F714C06F817885BD
:103E100089859A850E944900DC01CB019E838D83B0
:103E20008D819E819A83898389819A810197F1F797
:103E30009A8389838F858F5F8F877CCFDF93CF9322
:103E4000CDB7DEB781E00E94F51ACF91DF910895DA
:103E5000DF93CF9300D0CDB7DEB789836A838981A2
:103E6000813041F48A81883228F48A8180580E9406
:103E7000F51A0FC08981823061F48A81882F90E021
:103E8000805C9F4F8736910524F48A8180540E947C
:103E9000F51A0F900F90CF91DF910895DF93CF9394
:103EA00000D0CDB7DEB789836A8389816A810E9499
:103EB000281F8FE00E94F51A0F900F90CF91DF918D
:103EC0000895DF93CF93CDB7DEB728970FB6F89458
:103ED000DEBF0FBECDBF98878F838F8198859E836D
:103EE0008D8381E090E09C838B831A828D819E81FB
:103EF0000097F9F480E30E94571A1BC08D819E81C0
:103F00002AE030E0B9010E945023CB019E838D83CB
:103F10008B819C819C01220F331FC901880F991F3F
:103F2000880F991F820F931F9C838B838A818F5FD9
:103F30008A838D819E81009709F78B819C812AE07D
:103F400030E0B9010E945023CB019C838B838A818E
:103F500080518983898188230CF03EC019823CC03E
:103F60008A81282F30E08981992787FD909528172D
:103F7000390719F480EC0E94F51A8F8198852B81FE
:103F80003C81B9010E945023CB01882F90E09E8391
:103F90008D838D81805D0E94571A2D813E818B819A
:103FA0009C81A901489F9001499F300D589F300D79
:103FB00011248F819885821B930B98878F838B8127
:103FC0009C812AE030E0B9010E945023CB019C8300
:103FD0008B838A8181508A838A81882309F6289677
:103FE0000FB6F894DEBF0FBECDBFCF91DF9108951D
:103FF000DF93CF930F92CDB7DEB7898382E00E9423
:104000003F1089810E94C0100F90CF91DF910895D9
:10401000DF93CF9300D00F92CDB7DEB79A83898319
:104020006B8389819A810E9448118B810E940811BB
:104030000F900F900F90CF91DF910895DF93CF9362
:1040400000D0CDB7DEB79A83898389819A810E9497
:104050005A110F900F90CF91DF910895DF93CF9376
:1040600000D0CDB7DEB79A83898310922604898168
:104070009A810E9416130F900F90CF91DF910895AF
:10408000DF93CF930F92CDB7DEB789838981809379
:10409000260480912604809306040F90CF91DF912F
:1040A0000895DF93CF9300D000D0CDB7DEB79A83C9
:1040B00089837C836B838B819C81892F9927E981FC
:1040C000FA81808389819A81FC0131968B8180837A
:1040D0000F900F900F900F90CF91DF910895DF9385
:1040E000CF9300D000D000D0CDB7DEB79E838D83B4
:1040F0001C821B8281E090E09A83898315C029810C
:104100003A818D819E81FC01E20FF31F8081282F6F
:1041100030E08B819C81820F931F9C838B838981EC
:104120009A8101969A83898389819A818730910542
:1041300034F38B819C81909581959F4F26960FB685
:10414000F894DEBF0FBECDBFCF91DF910895DF930E
:10415000CF9300D0CDB7DEB782E094E00E946F200D
:104160009A83898389E094E029813A81B9010E9488
:1041700051200F900F90CF91DF910895DF93CF934F
:1041800000D0CDB7DEB71A8219820DC089819A811D
:10419000FC01EE5FFB4F80810E94541389819A815C
:1041A00001969A83898389819A818A30910574F373
:1041B0000F900F90CF91DF910895DF93CF9300D0B0
:1041C00000D00F92CDB7DEB789837B836A835D838E
:1041D0004C838981809305048A81809307048C81B4
:1041E000809308040E94A7200E94BE200F900F9089
:1041F0000F900F900F90CF91DF910895DF93CF93A1
:1042000000D00F92CDB7DEB789837B836A83898123
:104210008093050487E094E02A813B81B9010E94E4
:1042200051200E94A7200E94BE200F900F900F9057
:10423000CF91DF910895DF93CF930F92CDB7DEB783
:10424000898389818093050487E094E060E070E0D1
:104250000E9451200E94A7200E94BE200F90CF9163
:10426000DF910895DF93CF9300D0CDB7DEB79A8367
:10427000898329813A8183E0B9010E94FE200F9051
:104280000F90CF91DF910895DF93CF93CDB7DEB735
:1042900081E00E941B21CF91DF910895DF93CF939E
:1042A000CDB7DEB782E00E941B21CF91DF91089548
:1042B000DF93CF9300D0CDB7DEB79A83898329816E
:1042C0003A8186E0B9010E94FE200F900F90CF91B5
:1042D000DF910895DF93CF9300D0CDB7DEB79A83F7
:1042E000898329813A8187E0B9010E94FE200F90DD
:1042F0000F90CF91DF910895DF93CF9300D0CDB78A
:10430000DEB79A83898329813A8189E0B9010E94C5
:10431000FE200F900F90CF91DF910895DF93CF9300
:10432000CDB7DEB78AE00E941B21CF91DF910895BF
:10433000DF93CF93CDB7DEB78CE00E941B21CF91E6
:10434000DF910895DF93CF93CDB7DEB78DE00E9464
:104350001B21CF91DF910895DF93CF93CDB7DEB7C7
:104360008EE00E941B21CF91DF910895DF93CF93C0
:1043700000D000D0CDB7DEB79A8389837C836B836E
:1043800029813A814B815C818FE0B9010E94DD2057
:104390000F900F900F900F90CF91DF910895DF93C2
:1043A000CF9300D0CDB7DEB79A83898329813A8134
:1043B00082E1B9010E94FE200F900F90CF91DF9112
:1043C0000895DF93CF93CDB7DEB782E40E941B211F
:1043D000CF91DF910895DF93CF93CDB7DEB783E41C
:1043E0000E941B21CF91DF910895DF93CF93CDB72A
:1043F000DEB787E40E941B21CF91DF910895DF9300
:10440000CF93CDB7DEB788E40E941B21CF91DF9117
:104410000895DF93CF93CDB7DEB789E40E941B21C7
:10442000CF91DF910895DF93CF93CDB7DEB78CE4C2
:104430000E941B21CF91DF910895DF93CF93CDB7D9
:10444000DEB78BE40E941B21CF91DF910895DF93AB
:10445000CF93CDB7DEB78DE40E941B21CF91DF91C2
:1044600008950F931F93DF93CF9300D00F92CDB792
:10447000DEB70E946E138E3711F01B821CC08EE7D0
:104480008093270481E090E09A8389830DC009819D
:104490001A810E946E13F801E95DFB4F80838981C8
:1044A0009A8101969A83898389819A818A309105BC
:1044B00074F381E08B838B810F900F900F90CF91DD
:1044C000DF911F910F910895DF93CF9300D0CDB767
:1044D000DEB781E00E94CA0A0E946C0881E394E082
:1044E0000E946B0685E594E067E00E9480080E94C8
:1044F0007D1323E534E0AE014E5F5F4F88EE93E01D
:10450000B9010E9401148A810E94F31384EB92E2A4
:104510000E944A140E949C08809131048823E1F78C
:1045200080910C048823C1F7198211C08981282F3A
:1045300030E08981882F90E0FC01EB59FB4F8081AE
:10454000F901E159FB4F808389818F5F89838981DC
:104550008A3060F381E080930C040E949C088FE60F
:1045600094E00E948C06D8CFDF93CF93CDB7DEB70F
:1045700080913204853008F061C08091630490918D
:104580006404009709F45AC080910C04882309F44C
:1045900055C083E067E00E94381780913204882F6D
:1045A00090E0880F991F9C012B593B4F85E594E0C3
:1045B000B9010E948C0A80913204882F90E0880F04
:1045C000991FFC01EB59FB4F8081882399F480915E
:1045D0003204882F90E0880F991F0196FC01EB5957
:1045E000FB4F8081813031F480913204815080937F
:1045F00032041CC080913204882F90E0880F991FEC
:10460000FC01EB59FB4F8081882381F480913204B7
:10461000882F90E0880F991F0196FC01EB59FB4F02
:104620008081882319F485E0809332040E949C08DD
:10463000809132048F5F8093320404C01092320460
:1046400010920C04CF91DF910895629FD001739F67
:10465000F001829FE00DF11D649FE00DF11D929F1E
:10466000F00D839FF00D749FF00D659FF00D99275D
:10467000729FB00DE11DF91F639FB00DE11DF91F81
:10468000BD01CF0111240895991B79E004C0991F41
:10469000961708F0961B881F7A95C9F7809508959C
:1046A000AA1BBB1B51E107C0AA1FBB1FA617B70758
:1046B00010F0A61BB70B881F991F5A95A9F7809574
:1046C0009095BC01CD010895A1E21A2EAA1BBB1B37
:1046D000FD010DC0AA1FBB1FEE1FFF1FA217B307CE
:1046E000E407F50720F0A21BB30BE40BF50B661FE4
:1046F000771F881F991F1A9469F7609570958095A8
:1047000090959B01AC01BD01CF0108952F923F927E
:104710004F925F926F927F928F929F92AF92BF92D1
:10472000CF92DF92EF92FF920F931F93CF93DF937D
:10473000CDB7DEB7CA1BDB0B0FB6F894DEBF0FBEDA
:10474000CDBF09942A88398848885F846E847D8427
:104750008C849B84AA84B984C884DF80EE80FD8029
:104760000C811B81AA81B981CE0FD11D0FB6F8949F
:10477000DEBF0FBECDBFED01089511F40EF44DC0A4
:104780003EC05DD0D0F39923D9F3CEF39F57550B9C
:1047900087FF46D00024A0E640EA90018058569555
:1047A000979528F4805C660F771F881F20F02617E6
:1047B0003707480730F4621B730B840B202931291B
:1047C0004A2BA69517940794202531254A2758F798
:1047D000660F771F881F20F026173707480730F429
:1047E000620B730B840B200D311D411DA09581F7C9
:1047F000B901842F9158880F9695879508959F3F0A
:1048000031F0915020F4879577956795B795880F8B
:10481000911D9695879597F908959FEF80EC0895DF
:1048200091505040660F771F881FD2F7089557FDAB
:104830009058440F551F59F05F3F71F04795880F0E
:1048400097FB991F61F09F3F79F0879508951216A5
:1048500013061406551FF2CF4695F1DF08C0161651
:1048600017061806991FF1CF869571056105089402
:064870000895F894FFCF4B
:104876000000000000000000000102020303030321
:1048860004040404040404040505050505050505DA
:1048960005050505050505050606060606060606BA
:1048A60006060606060606060606060606060606A2
:1048B600060606060606060607070707070707078A
:1048C6000707070707070707070707070707070772
:1048D6000707070707070707070707070707070762
:1048E6000707070707070707070707070707070752
:1048F600070707070707070708080808080808083A
:104906000808080808080808080808080808080821
:104916000808080808080808080808080808080811
:104926000808080808080808080808080808080801
:1049360008080808080808080808080808080808F1
:1049460008080808080808080808080808080808E1
:1049560008080808080808080808080808080808D1
:1049660008080808080808080808080808080808C1
:1049760008080808080808087E0401000100D60691
:1049860001000200140502000100B004030001004A
:104996004C04030002004C0403000300E803040077
:1049A6000100B00404000200E80304000300E2046E
:1049B600040004004C04050001004C04050002003C
:1049C600B00405000300DC050500040046050600EA
:1049D60001004C0406000200E80307000100B004D1
:1049E60007000200E20407000300B0040700040009
:1049F60049276D2000496E74656C6C6967656E7435
:104A060020005468616E6B20596F75200048656CF4
:104A16006C6F2C2000486F77200041726520596F1B
:104A26007520004920004C696B6520004D792000F7
:104A360046616D696C79200043616E2000596F757F
:104A4600200052656164200054686520426F6F6BD8
:104A56002000506C65617365200053746F702000F0
:104A66004920004C696B652000546F204561742015
:104A7600004170706C65732000E001E501F201FDF4
:104A86000105020A02130216021C02200228022D48
:104A9600023202380242024A0250025302590261AD
:104AA60002040C0A070408020503070404050907A3
:104AB6000502050707010001020304050607910028
:104AC6008700E300A700CF000100010001019C0060
:104AD6009F00C700A3009900000001000102B0007A
:104AE6009900B300AF00A700000001000201B80062
:104AF6009300B800B8009F00000001000301980071
:104B0600CE00C000A100CC00000001000302B000EE
:104B16008F00F000A700C700000001000303D100CA
:104B26007F00FF00D800CC00000001000401C00097
:104B36009800CF00B700BC00010001000402B000DD
:104B46009900AC00AC009C00000001000403C10009
:104B5600B000CE00C700BC00000001000404D8006D
:104B6600C600E100D300DE00000001000501CF0011
:104B76008F00E700CF00CF00000001000502E00033
:104B86008F00CE00C3009801010001000503C0009C
:104B96009100AC00B100A700010001000504B100BE
:104BA6009100AE00B100AC00010001000601AE00AC
:104BB6009800B000B3009F00010001000602D1007A
:104BC6007F00FF00D800CC00000001000701B600FE
:104BD6009800CF00B700BC00010001000702B60034
:104BE6009800D100CE00BE00000001000703C700F8
:104BF600EC00D100CE00D300010001000704000044
:104C0600000100020003000400050006000703007F
:0E4C160003017EFF06000000000000EF010019
:00000001FF
