:100000000C942A000C9447000C9447000C94470071
:100010000C9447000C9447000C9447000C94111664
:100020000C9447000C945C160C94F6160C94470044
:100030000C9447000C9447000C9447000C94470024
:100040000C9421130C9447000C9447000C94470027
:100050000C94470011241FBECFE5D8E0DEBFCDBF12
:1000600014E0A0E6B0E0E8EEFAE402C005900D92DC
:10007000A431B107D9F714E0A4E1B4E001C01D92A6
:10008000AF37B107E1F70E9419240C9472250C9444
:100090000000EF92FF920F931F937B018C0120E0F1
:1000A00030E040E05FE40E94F50388238CF0C80153
:1000B000B70120E030E040E05FE40E94C1010E940F
:1000C00055049B01AC01205030404040504806C0D0
:1000D000C801B7010E9455049B01AC01B901CA01D6
:1000E0001F910F91FF90EF900895A0E0B0E0EBE733
:1000F000F0E00C943B25DC012B01FA019C9192303D
:1001000008F439C1EB018881823008F433C194309E
:1001100069F4843009F02FC111969C91119789815F
:10012000981709F428C1A0E6B0E025C1843009F48D
:1001300021C18230A9F4923009F01DC19A01AD01AC
:1001400088E0EA010990AE01E90109929E0181501F
:10015000C1F7E201898111969C918923818308C1AD
:10016000923009F407C112962D903C901397EB0141
:100170008A819B811496AD90BD90CD90DC901797AD
:10018000EC80FD800E811F819101281B390BB90184
:1001900037FF04C066277727621B730B6032710537
:1001A0000CF061C0121613066CF537014801062EDB
:1001B00004C096948794779467940A94D2F721E0C8
:1001C00030E040E050E004C0220F331F441F551FB1
:1001D0006A95D2F721503040404050402E213F21B7
:1001E00040235123211531054105510521F021E01E
:1001F00030E040E050E079018A01E628F72808293C
:1002000019293CC0232BD1F1260E371E350146019A
:10021000062E04C096948794779467940A94D2F734
:1002200021E030E040E050E004C0220F331F441FC3
:10023000551F6A95D2F721503040404050402A2146
:100240003B214C215D21211531054105510521F04E
:1002500021E030E040E050E059016A01A628B728CB
:10026000C828D9280BC0821593052CF01C01AA249C
:10027000BB24650103C0EE24FF24870111969C91E5
:10028000D20111968C91981709F445C0992339F041
:10029000A80197012A193B094C095D0906C0A6016E
:1002A00095012E193F09400B510B57FD08C01182D3
:1002B0003382228224833583468357831DC081E0A5
:1002C00081833382228288279927DC01821B930B4A
:1002D000A40BB50B84839583A683B7830DC0220F2F
:1002E000331F441F551F24833583468357838281E0
:1002F000938101979383828324813581468157813D
:10030000DA01C9010197A109B1098F5F9F4FAF4F72
:10031000BF4328F30BC0918333822282EA0CFB1C7B
:100320000C1D1D1DE482F5820683178383E0808304
:10033000248135814681578157FF1AC0C901AA27F8
:1003400097FDA095BA2F81709070A070B0705695EF
:10035000479537952795822B932BA42BB52B848318
:100360009583A683B7838281938101969383828349
:10037000DF0101C0D201CD01CDB7DEB7E2E10C94BF
:100380005725A0E2B0E0E7ECF1E00C944725698343
:100390007A838B839C832D833E834F835887E9E048
:1003A000EE2EF12CEC0EFD1ECE010196B7010E943F
:1003B00046068E010F5E1F4FCE010596B8010E94C2
:1003C00046068A8991E089278A8BC701B801AE0168
:1003D000475E5F4F0E9475000E947105A096E6E09F
:1003E0000C946325A0E2B0E0E8EFF1E00C9447251F
:1003F00069837A838B839C832D833E834F835887C5
:10040000F9E0EF2EF12CEC0EFD1ECE010196B701A6
:100410000E9446068E010F5E1F4FCE010596B80161
:100420000E944606C701B801AE01475E5F4F0E94B9
:1004300075000E947105A096E6E00C946325A0E289
:10044000B0E0E5E2F2E00C943B2569837A838B838C
:100450009C832D833E834F835887CE010196BE0136
:10046000675F7F4F0E944606CE010596BE016F5E14
:100470007F4F0E9446069985923088F089898230A4
:10048000C8F0943019F4823051F404C0843029F457
:10049000923081F480E690E0C6C0923049F420E0CA
:1004A0009A858A89981321E02A87CE010996BBC0D4
:1004B000823049F420E09A858A89981321E02A8BBA
:1004C000CE014196B0C02D843E844F8458886D88FB
:1004D0007E888F88988CEE24FF248701AA24BB2471
:1004E000650140E050E060E070E0E0E0F0E0C10174
:1004F00081709070892BE9F0E60CF71C081D191D1E
:100500009A01AB012A0D3B1D4C1D5D1D80E090E062
:10051000A0E0B0E0E614F7040805190520F481E036
:1005200090E0A0E0B0E0BA01A901480F591F6A1F8E
:100530007B1FAA0CBB1CCC1CDD1C97FE08C081E0F5
:1005400090E0A0E0B0E0A82AB92ACA2ADB2A3196B6
:10055000E032F10549F0660C771C881C991C569412
:10056000479437942794C3CFFA85EA892B893C892D
:100570008B859C85280F391F2E5F3F4F17C0CA01FE
:1005800081709070892B61F016950795F794E79428
:1005900080E090E0A0E0B0E8E82AF92A0A2B1B2BC3
:1005A00076956795579547952F5F3F4F77FDE7CF36
:1005B0000CC0440F551F661F771F17FD4160EE0CDE
:1005C000FF1C001F111F21503040403090E05907A0
:1005D00090E0690790E4790760F32B8F3C8FDB0193
:1005E000CA018F779070A070B07080349105A1051A
:1005F000B10561F447FD0AC0E114F10401051105DC
:1006000029F0405C5F4F6F4F7F4F40781A8EFE1786
:1006100011F081E08A8F4D8F5E8F6F8F78A383E01A
:10062000898FCE0149960E947105A096E2E10C9453
:100630005725A8E1B0E0EFE1F3E00C94432569838E
:100640007A838B839C832D833E834F835887B9E0C5
:10065000EB2EF12CEC0EFD1ECE010196B7010E948F
:1006600046068E010F5E1F4FCE010596B8010E940F
:1006700046062985223008F47EC03989323010F4CC
:10068000B8017CC08A859A8989278A87243011F02D
:10069000223031F4231709F06EC060E670E06EC0BE
:1006A000343039F41D861E861F86188A1C861B86E8
:1006B00004C0323021F484E08987B7015FC02B8504
:1006C0003C858B899C89281B390B3C872B87ED84C3
:1006D000FE840F851889AD88BE88CF88D88CEA142F
:1006E000FB040C051D0540F4EE0CFF1C001F111F40
:1006F000215030403C872B8720E030E040E050E044
:1007000080E090E0A0E0B0E460E070E0EA14FB0478
:100710000C051D0540F0282B392B4A2B5B2BEA18C2
:10072000FB080C091D09B695A79597958795EE0CC2
:10073000FF1C001F111F6F5F7F4F6F31710531F775
:10074000DA01C9018F779070A070B0708034910584
:10075000A105B10561F427FD0AC0E114F10401050A
:10076000110529F0205C3F4F4F4F5F4F20782D87B8
:100770003E874F87588BBE01675F7F4FCB010E943A
:1007800071056896EAE00C945F25A8E1B0E0EBEC17
:10079000F3E00C94472569837A838B839C832D83B4
:1007A0003E834F83588789E0E82EF12CEC0EFD1E26
:1007B000CE010196B7010E9446068E010F5E1F4FC3
:1007C000CE010596B8010E9446068985823040F028
:1007D0008989823028F0C701B8010E94BE0601C095
:1007E0008FEF6896E6E00C946325A8E1B0E0EBEFAC
:1007F000F3E00C94472569837A838B839C832D8354
:100800003E834F83588789E0E82EF12CEC0EFD1EC5
:10081000CE010196B7010E9446068E010F5E1F4F62
:10082000CE010596B8010E9446068985823040F0C7
:100830008989823028F0C701B8010E94BE0601C034
:100840008FEF6896E6E00C946325A8E1B0E0EBE258
:10085000F4E00C94472569837A838B839C832D83F2
:100860003E834F83588789E0E82EF12CEC0EFD1E65
:10087000CE010196B7010E9446068E010F5E1F4F02
:10088000CE010596B8010E9446068985823040F067
:100890008989823028F0C701B8010E94BE0601C0D4
:1008A00081E06896E6E00C946325ACE0B0E0EBE50F
:1008B000F4E00C944B2569837A838B839C83CE016F
:1008C0000196BE016B5F7F4F0E9446068D8182308C
:1008D00061F1823050F1843021F48E81882351F10E
:1008E0002EC02F81388537FD20C06E812F31310514
:1008F0001CF06623F9F023C08EE190E0821B930B7D
:1009000029853A854B855C8504C056954795379572
:1009100027958A95D2F76623B1F05095409530958A
:1009200021953F4F4F4F5F4F0EC020E030E040E039
:1009300050E009C02FEF3FEF4FEF5FE704C020E02A
:1009400030E040E050E8B901CA012C96E2E00C9496
:100950006725A8E0B0E0EFEAF4E00C9443257B01C2
:100960008C01611571058105910519F482E0898377
:1009700060C083E089838EE1C82ED12CDC82CB82DB
:10098000ED82FE820F831887C801B7010E942205FD
:10099000FC013197F7FF3BC0222733272E1B3F0B6B
:1009A00057016801022E04C0D694C794B794A79447
:1009B0000A94D2F740E050E060E070E081E090E01F
:1009C000A0E0B0E004C0880F991FAA1FBB1F2A95A2
:1009D000D2F70197A109B1098E219F21A023B1234C
:1009E0000097A105B10521F041E050E060E070E022
:1009F0004A295B296C297D294D835E836F83788723
:100A00008EE190E08E1B9F0B9C838B8312C03097EE
:100A100081F00E2E04C0EE0CFF1C001F111F0A9463
:100A2000D2F7ED82FE820F831887CE1ADF0ADC82AE
:100A3000CB821A82CE0101960E9471052896EAE0C7
:100A40000C945F25EF92FF920F931F937B018C0113
:100A500080E0E81680E0F80681E0080780E01807EB
:100A600088F48FEFE816F1040105110531F028F044
:100A700088E090E0A0E0B0E017C080E090E0A0E067
:100A8000B0E012C080E0E81680E0F80680E00807D9
:100A900081E0180728F088E190E0A0E0B0E004C011
:100AA00080E190E0A0E0B0E020E230E040E050E003
:100AB000281B390B4A0B5B0B04C016950795F7945E
:100AC000E7948A95D2F7F701E859FF4F8081281BF8
:100AD000310941095109C9011F910F91FF90EF9010
:100AE0000895DF92EF92FF920F931F93FC01E48031
:100AF000F58006811781D1808081823048F480E0C2
:100B000090E0A0E1B0E0E82AF92A0A2B1B2BA5C04F
:100B1000843009F49FC0823021F4EE24FF24870141
:100B200005C0E114F1040105110519F4E0E0F0E05D
:100B300096C0628173819FEF623879070CF05BC0C9
:100B400022E83FEF261B370B2A3131052CF020E03D
:100B500030E040E050E02AC0B801A701022E04C0F6
:100B600076956795579547950A94D2F781E090E07E
:100B7000A0E0B0E004C0880F991FAA1FBB1F2A95F0
:100B8000D2F70197A109B1098E219F21A023B1239A
:100B90000097A105B10521F081E090E0A0E0B0E070
:100BA0009A01AB01282B392B4A2B5B2BDA01C901A7
:100BB0008F779070A070B07080349105A105B10559
:100BC00039F427FF09C0205C3F4F4F4F5F4F04C0EF
:100BD000215C3F4F4F4F5F4FE0E0F0E02030A0E05E
:100BE0003A07A0E04A07A0E45A0710F0E1E0F0E07D
:100BF00079018A0127C06038710564F5FB01E1586D
:100C0000FF4FD801C7018F779070A070B07080340B
:100C10009105A105B10539F4E7FE0DC080E490E02F
:100C2000A0E0B0E004C08FE390E0A0E0B0E0E80E08
:100C3000F91E0A1F1B1F17FF05C016950795F7948D
:100C4000E794319687E016950795F794E7948A958F
:100C5000D1F705C0EE24FF248701EFEFF0E06E2FFF
:100C6000679566276795902F9F77D794DD24D79453
:100C70008E2F8695492F462B582F5D29B701CA0123
:100C80001F910F91FF90EF90DF900895FC01DB0121
:100C9000408151812281622F6F7770E0221F2227CD
:100CA000221F9381892F880F822B282F30E0991FD4
:100CB0009927991F11969C93119721153105A9F534
:100CC000411551056105710511F482E037C082E8D4
:100CD0009FEF13969C938E9312979A01AB0167E056
:100CE000220F331F441F551F6A95D1F783E08C9361
:100CF0000DC0220F331F441F551F12968D919C91DA
:100D00001397019713969C938E931297203080E04F
:100D1000380780E0480780E4580758F314962D936D
:100D20003D934D935C93179708952F3F310579F4C8
:100D3000411551056105710519F484E08C930895FE
:100D400064FF03C081E08C9312C01C9210C02F5727
:100D5000304013963C932E93129783E08C9387E058
:100D6000440F551F661F771F8A95D1F7706414963C
:100D70004D935D936D937C93179708951F93DC01BA
:100D8000FB019C91923008F447C08081823008F4C6
:100D900043C0943051F411961C91843099F58181AF
:100DA000682F70E0611B71093FC0843021F09230E0
:100DB00031F48230B9F18181882389F12DC01196F7
:100DC0001C9111978230F1F081811817D9F4129695
:100DD0002D913C911397828193818217930794F010
:100DE00028173907BCF014968D919D910D90BC91F8
:100DF000A02D2481358146815781281739074A075C
:100E00005B0718F4112341F00AC082179307A40767
:100E1000B50740F4112319F061E070E005C06FEFF1
:100E20007FEF02C060E070E0CB011F910895DF9377
:100E3000CF9300D0CDB7DEB79A83898389819A8119
:100E40009093580480935704E981FA8110820E949C
:100E5000481D80E895E20E94E3210E948F168CE9EC
:100E600098E00E94E4160F900F90CF91DF910895C3
:100E7000DF93CF9300D000D0CDB7DEB78B836C83E8
:100E80001A8281E0898312C08981882F90E00197BE
:100E9000FC01EB55FD4F90818981989F902D112485
:100EA0008A81890F8A8389818F5F898399818B8168
:100EB000981750F39A818C81890F8A838A810F90C9
:100EC0000F900F900F90CF91DF910895DF93CF9304
:100ED000CDB7DEB7E8970FB6F894DEBF0FBECDBF33
:100EE0009BAB8AAB80E2FE013896DF01982F1D9202
:100EF0009A95E9F71F821D8215C08D81482F50E019
:100F00008D81282F30E08AA99BA9FC01E20FF31FF5
:100F10002081CE018896FC01E40FF51F20838D818E
:100F20008F5F8D838D818A3040F30E94D320E091C2
:100F30005704F091580481E080831E821C82B4C063
:100F40001E8241C08C81282F30E0CE018896FC01A2
:100F5000E20FF31F8081482F50E08E81282F30E070
:100F6000C901880F991F820F931F0196880F991F3F
:100F7000FC01E859FE4F808191814817590701F51E
:100F80008C81882F90E09C012F5F3F4FCE01889687
:100F9000FC01E20FF31F8081482F50E08E81282F43
:100FA00030E0C901880F991F820F931F880F991F86
:100FB000FC01E459FE4F808191814817590739F0AF
:100FC0008E818F5F8E838E81843108F4BBCF8091B8
:100FD00014048F5F809314048C81282F30E08E815D
:100FE000482F50E0C901880F991F820F931F880F67
:100FF000991F9C01275C3B4FCA01880F991F840FE2
:10100000951F880F991F88599E4F3DAB2CAB9FAB06
:101010008EABA6E0A8AFEEA9FFA900808EA99FA97C
:1010200001969FAB8EABACA9BDA90C92ECA9FDA912
:101030003196FDABECABF8ADF150F8AF88AD88233D
:1010400051F78E81882F90E0880F991FFC01E75996
:10105000FD4F808191819B838A83198218C08F8183
:10106000482F50E08981282F30E08A819B81FC0144
:10107000E20FF31F2081CE010896FC01E40FF51F5B
:1010800020838F818F5F8F8389818F5F89838E819A
:10109000882F90E0FC01EF56FD4F908189818917E0
:1010A000F0F28C818E5F8C838C81282F30E0CE0112
:1010B0008896FC01E20FF31F8081882379F08C81F0
:1010C000882F90E09C012F5F3F4FCE018896FC0156
:1010D000E20FF31F8081882309F032CF8F81282F00
:1010E00030E0CE010896FC01E20FF31F1082CE0122
:1010F00008960E94421F8091390490913A040E9400
:10110000B21680913B0490913C04282F80913D04BD
:1011100090913E04982F822F692F0E943807882FC4
:1011200090E00E94E722E8960FB6F894DEBF0FBE6B
:10113000CDBFCF91DF910895DF93CF93CDB7DEB7C9
:101140000E9461239091AC0280911404981708F0DA
:1011500043C08091AC02282F30E0C901880F991F4D
:10116000820F931F0196880F991FFC01E75CFB4FCC
:1011700080819181482F8091AC02282F30E0C901F5
:10118000880F991F820F931F880F991FFC01E35C42
:10119000FB4F80819181982F842F692F0E943807FF
:1011A000882F90E00E94E7228091AC02282F30E047
:1011B000C901880F991F820F931F880F991FFC0187
:1011C000E75CFB4F808191810E94B2168091AC0256
:1011D0008F5F8093AC020AC081E08093AC021092D2
:1011E0001404E0915704F09158041082CF91DF91DC
:1011F0000895DF93CF93CDB7DEB7209115043091DA
:10120000160480911A0490911B04880F991FF9010C
:10121000E80FF91F8091180490911904918380833D
:1012200080911704882F90E001979C0180911A0407
:1012300090911B048217930758F520911504309163
:10124000160480911704882F90E00296880F991F4A
:10125000F901E80FF91F1182108280911A04909110
:101260001B04019690931B0480931A041092190496
:101270001092180480911A0490911B04FC01E3550C
:10128000FD4F208188E194E0622F0E94BD2127C09C
:1012900080911704882F90E001979C0180911A0497
:1012A00090911B0428173907D1F410921B04109257
:1012B0001A04109219041092180420911504309108
:1012C000160480911704882F90E00296880F991FCA
:1012D000F901E80FF91F81E090E091838083CF91BD
:1012E000DF910895DF93CF93CDB7DEB788E00E94FA
:1012F000AD2182E00E94C41783E00E94C41789EFE9
:1013000098E00E94D321CF91DF910895DF93CF938E
:1013100000D00F92CDB7DEB79A8389836B83898122
:101320009A8190931604809315048B81893020F460
:101330008B818250809317040F900F900F90CF9164
:10134000DF910895DF93CF93CDB7DEB780911A0474
:1013500090911B04009769F58091150490911604F3
:101360009C0180911704882F90E0880F991F820FAD
:10137000931F62E00E940C1820911504309116040E
:1013800080911704882F90E00196880F991F820F93
:10139000931F63E00E940C1880911A0490911B0423
:1013A000FC01E355FD4F208188E194E0622F0E940B
:1013B000BD21CF91DF910895DF93CF93CDB7DEB7F5
:1013C0002A970FB6F894DEBF0FBECDBF6E837F8322
:1013D000888799874A8780E090E0A0E8BFE38A8306
:1013E0009B83AC83BD83198213C06A817B818C810E
:1013F0009D812E813F81488559850E941F02DC0115
:10140000CB018A839B83AC83BD8389818F5F898372
:1014100099818A85981748F38A819B81AC81BD8127
:10142000BC01CD012A960FB6F894DEBF0FBECDBF2A
:10143000CF91DF910895DF93CF93CDB7DEB760975B
:101440000FB6F894DEBF0FBECDBF6D877E878F8746
:10145000988B8D859E85AF85B88989879A87AB875C
:10146000BC8780E090E0A0E8BFE38D839E83AF83DC
:10147000B8878FE692E1A3E8BAE389839A83AB83C6
:10148000BC832AC069857A858B859C852D813E81A8
:101490004F8158850E94F201DC01CB01BC01CD01D6
:1014A00020E030E040E050E40E941903DC01CB0171
:1014B00089879A87AB87BC876D857E858F8598895C
:1014C00029853A854B855C850E941903DC01CB0197
:1014D0008D839E83AF83B88769857A858B859C854C
:1014E0002D813E814F8158850E94C101DC01CB01D5
:1014F000BC01CD0129813A814B815C810E94C503E9
:1015000018160CF4BFCF89859A85AB85BC85BC01C4
:10151000CD0160960FB6F894DEBF0FBECDBFCF9160
:10152000DF910895DF93CF93CDB7DEB728970FB63D
:10153000F894DEBF0FBECDBF9E838D8378876F8307
:1015400080E090E0A0E0B0E089839A83AB83BC8325
:10155000ED81FE8120813181EF81F885808191814B
:10156000A901481B590BCA01CC01A0E0B0E0BC01A5
:10157000CD010E94A904DC01CB01BC01CD0142E0F8
:101580000E94DC099B01AC0169817A818B819C817D
:101590000E94F201DC01CB0189839A83AB83BC8377
:1015A0008D819E81FC01329620813181EF81F88509
:1015B00082819381A901481B590BCA01CC01A0E08B
:1015C000B0E0BC01CD010E94A904DC01CB01BC014B
:1015D000CD0142E00E94DC099B01AC0169817A8166
:1015E0008B819C810E94F201DC01CB0189839A836B
:1015F000AB83BC838D819E81FC0134962081318137
:10160000EF81F88584819581A901481B590BCA0196
:10161000CC01A0E0B0E0BC01CD010E94A904DC0136
:10162000CB01BC01CD0142E00E94DC099B01AC0171
:1016300069817A818B819C810E94F201DC01CB015E
:1016400089839A83AB83BC838D819E81FC0136960E
:1016500020813181EF81F88586819781A901481B1E
:10166000590BCA01CC01A0E0B0E0BC01CD010E9441
:10167000A904DC01CB01BC01CD0142E00E94DC09E0
:101680009B01AC0169817A818B819C810E94F2016E
:10169000DC01CB0189839A83AB83BC838D819E81DE
:1016A000FC01389620813181EF81F8858085918514
:1016B000A901481B590BCA01CC01A0E0B0E0BC0154
:1016C000CD010E94A904DC01CB01BC01CD0142E0A7
:1016D0000E94DC099B01AC0169817A818B819C812C
:1016E0000E94F201DC01CB0189839A83AB83BC8326
:1016F0008D819E81FC013A9620813181EF81F885B0
:1017000082859385A901481B590BCA01CC01A0E031
:10171000B0E0BC01CD010E94A904DC01CB01BC01F9
:10172000CD0142E00E94DC099B01AC0169817A8114
:101730008B819C810E94F201DC01CB0189839A8319
:10174000AB83BC838D819E81FC013C9620813181DD
:10175000EF81F88584859585A901481B590BCA013D
:10176000CC01A0E0B0E0BC01CD010E94A904DC01E5
:10177000CB01BC01CD0142E00E94DC099B01AC0120
:1017800069817A818B819C810E94F201DC01CB010D
:1017900089839A83AB83BC8389819A81AB81BC8125
:1017A000BC01CD010E941B0ADC01CB01BC01CD01B3
:1017B00028960FB6F894DEBF0FBECDBFCF91DF9154
:1017C0000895DF93CF93CDB7DEB72F970FB6F89478
:1017D000DEBF0FBECDBF9C878B877E876D874F870F
:1017E0001A868D859E852B853C85B9010E94920ABB
:1017F000DC01CB018E839F83A887B98781E08D832D
:1018000032C08D81882F90E09C0122953295307FE7
:101810003227207F32278B859C85280F391F8D85A5
:101820009E85B9010E94920ADC01CB0189839A83CB
:10183000AB83BC8369817A818B819C812E813F81BE
:10184000488559850E942504882354F489819A810A
:10185000AB81BC818E839F83A887B9878D818A875E
:101860008D818F5F8D839D818F85981750F28A853A
:101870002F960FB6F894DEBF0FBECDBFCF91DF918C
:101880000895DF93CF9300D000D00F92CDB7DEB78D
:101890009B838A837D836C8385EB92E02A813B81E5
:1018A000B90144E10E94E10B89838981882F90E08E
:1018B00082959295907F9827807F9827FC01ED5321
:1018C000FD4F8081EC81FD8180838C819D81DC01D5
:1018D00011968981882F90E082959295907F982724
:1018E000807F9827FC01EC53FD4F80818C930F90F3
:1018F0000F900F900F900F90CF91DF910895DF938D
:10190000CF9300D00F92CDB7DEB789838981282F7E
:1019100030E03B832A838A819B81009769F02A818A
:101920003B812130310579F4AFE5B0E0EFE5F0E03F
:10193000808180688C9307C0AFE5B0E0EFE5F0E010
:1019400080818F778C930F900F900F90CF91DF91C4
:101950000895DF93CF9300D000D000D0CDB7DEB78D
:101960008A836B834C8319828A81282F30E03E83DF
:101970002D838D819E818130910509F449C02D818F
:101980003E81223031052CF48D819E81009771F0CB
:10199000D5C02D813E812230310509F46BC08D8187
:1019A0009E818330910509F497C0C8C08C8188233B
:1019B000A9F4AAE3B0E0EAE3F0E08081482F8B814C
:1019C000282F30E081E090E0022E02C0880F991F9E
:1019D0000A94E2F7809584238C93B2C08C81813085
:1019E000A1F4AAE3B0E0EAE3F0E08081482F8B8124
:1019F000282F30E081E090E0022E02C0880F991F6E
:101A00000A94E2F7842B8C939BC081E0898398C071
:101A10008C818823A9F4A7E3B0E0E7E3F0E08081BC
:101A2000482F8B81282F30E081E090E0022E02C009
:101A3000880F991F0A94E2F7809584238C9380C0C5
:101A40008C818130A1F4A7E3B0E0E7E3F0E080818E
:101A5000482F8B81282F30E081E090E0022E02C0D9
:101A6000880F991F0A94E2F7842B8C9369C081E058
:101A7000898366C08C818823A9F4A4E3B0E0E4E301
:101A8000F0E08081482F8B81282F30E081E090E0CA
:101A9000022E02C0880F991F0A94E2F780958423D2
:101AA0008C934EC08C818130A1F4A4E3B0E0E4E3D8
:101AB000F0E08081482F8B81282F30E081E090E09A
:101AC000022E02C0880F991F0A94E2F7842B8C9390
:101AD00037C081E0898334C08C818823A9F4A1E3D5
:101AE000B0E0E1E3F0E08081482F8B81282F30E0E7
:101AF00081E090E0022E02C0880F991F0A94E2F75D
:101B0000809584238C931CC08C818130A1F4A1E347
:101B1000B0E0E1E3F0E08081482F8B81282F30E0B6
:101B200081E090E0022E02C0880F991F0A94E2F72C
:101B3000842B8C9305C081E0898302C081E0898376
:101B4000898126960FB6F894DEBF0FBECDBFCF9128
:101B5000DF910895DF93CF9300D000D000D0CDB7B0
:101B6000DEB78A836B834C8319828A81282F30E009
:101B70003E832D838D819E818130910509F449C07A
:101B80002D813E81223031052CF48D819E8100977C
:101B900071F0D5C02D813E812230310509F46BC032
:101BA0008D819E818330910509F497C0C8C08C81D6
:101BB0008823A9F4ABE3B0E0EBE3F0E08081482FA9
:101BC0008B81282F30E081E090E0022E02C0880F48
:101BD000991F0A94E2F7809584238C93B2C08C817C
:101BE0008130A1F4ABE3B0E0EBE3F0E08081482F7B
:101BF0008B81282F30E081E090E0022E02C0880F18
:101C0000991F0A94E2F7842B8C939BC081E089830F
:101C100098C08C818823A9F4A8E3B0E0E8E3F0E061
:101C20008081482F8B81282F30E081E090E0022EC8
:101C300002C0880F991F0A94E2F7809584238C9341
:101C400080C08C818130A1F4A8E3B0E0E8E3F0E04B
:101C50008081482F8B81282F30E081E090E0022E98
:101C600002C0880F991F0A94E2F7842B8C9369C0F5
:101C700081E0898366C08C818823A9F4A5E3B0E064
:101C8000E5E3F0E08081482F8B81282F30E081E070
:101C900090E0022E02C0880F991F0A94E2F7809507
:101CA00084238C934EC08C818130A1F4A5E3B0E0F5
:101CB000E5E3F0E08081482F8B81282F30E081E040
:101CC00090E0022E02C0880F991F0A94E2F7842B3D
:101CD0008C9337C081E0898334C08C818823A9F438
:101CE000A2E3B0E0E2E3F0E08081482F8B81282F6F
:101CF00030E081E090E0022E02C0880F991F0A9424
:101D0000E2F7809584238C931CC08C818130A1F4F0
:101D1000A2E3B0E0E2E3F0E08081482F8B81282F3E
:101D200030E081E090E0022E02C0880F991F0A94F3
:101D3000E2F7842B8C9305C081E0898302C081E0A7
:101D40008983898126960FB6F894DEBF0FBECDBF7A
:101D5000CF91DF910895DF93CF93CDB7DEB727976B
:101D60000FB6F894DEBF0FBECDBF8A836B835D8351
:101D70004C8319828B81883008F074C08A81282FA7
:101D800030E03F832E834E815F814130510559F110
:101D90008E819F818230910534F42E813F812115FF
:101DA000310569F05CC04E815F814230510579F1A7
:101DB0008E819F818330910509F43DC050C0E9E3D5
:101DC000F0E08081282F30E08B81882F90E0A901FE
:101DD00002C0559547958A95E2F7CA018170EC815A
:101DE000FD81808341C0E6E3F0E08081282F30E070
:101DF0008B81882F90E0A90102C0559547958A955F
:101E0000E2F7CA018170EC81FD8180832DC0E3E39C
:101E1000F0E08081282F30E08B81882F90E0A901AD
:101E200002C0559547958A95E2F7CA018170EC8109
:101E3000FD81808319C0E0E3F0E08081282F30E04D
:101E40008B81882F90E0A90102C0559547958A950E
:101E5000E2F7CA018170EC81FD81808305C081E0D9
:101E6000898302C081E08983898127960FB6F8941F
:101E7000DEBF0FBECDBFCF91DF910895DF93CF932B
:101E8000CDB7DEB727970FB6F894DEBF0FBECDBF34
:101E90008A836B835D834C8319828B81883008F041
:101EA00074C08A81282F30E03F832E834E815F816A
:101EB0004130510559F18E819F818230910534F472
:101EC0002E813F812115310569F05CC04E815F8113
:101ED0004230510579F18E819F818330910509F45B
:101EE0003DC050C0EAE3F0E08081282F30E08B81D4
:101EF000882F90E0A90102C0559547958A95E2F791
:101F0000CA018170EC81FD81808341C0E7E3F0E08C
:101F10008081282F30E08B81882F90E0A90102C0BA
:101F2000559547958A95E2F7CA018170EC81FD814C
:101F300080832DC0E4E3F0E08081282F30E08B81A6
:101F4000882F90E0A90102C0559547958A95E2F740
:101F5000CA018170EC81FD81808319C0E1E3F0E06A
:101F60008081282F30E08B81882F90E0A90102C06A
:101F7000559547958A95E2F7CA018170EC81FD81FC
:101F8000808305C081E0898302C081E089838981E3
:101F900027960FB6F894DEBF0FBECDBFCF91DF916D
:101FA0000895DF93CF93CDB7DEB72E970FB6F89491
:101FB000DEBF0FBECDBF8A836B834C8319828B81BA
:101FC000883008F0DBC08A81282F30E03E872D87DB
:101FD0008D859E858130910509F444C02D853E850F
:101FE000223031052CF48D859E85009771F0C3C099
:101FF0002D853E852230310509F462C08D859E8590
:102000008330910509F489C0B6C08C818130A9F470
:10201000ABE3B0E0EBE3F0E08081482F8B81282F29
:1020200030E081E090E0022E02C0880F991F0A94F0
:10203000E2F7842B8C939C91A3C0ABE3B0E0EBE37D
:10204000F0E08081482F8B81282F30E081E090E004
:1020500002C0880F991F2A95E2F7809584238C93FC
:102060002C918EC08C818130A9F4A8E3B0E0E8E324
:10207000F0E08081482F8B81282F30E081E090E0D4
:10208000022E02C0880F991F0A94E2F7842B8C93CA
:102090003C9176C0A8E3B0E0E8E3F0E08081482F0F
:1020A0008B81282F30E081E090E0022E02C0880F63
:1020B000991F0A94E2F7809584238C938C9160C0D9
:1020C0008C818130A9F4A5E3B0E0E5E3F0E0808104
:1020D000482F8B81282F30E081E090E0022E02C053
:1020E000880F991F0A94E2F7842B8C939C9148C027
:1020F000A5E3B0E0E5E3F0E08081482F8B81282F55
:1021000030E081E090E002C0880F991F2A95E2F745
:10211000809584238C932C9133C08C818130A9F4D9
:10212000A2E3B0E0E2E3F0E08081482F8B81282F2A
:1021300030E081E090E0022E02C0880F991F0A94DF
:10214000E2F7842B8C933C911BC0A2E3B0E0E2E366
:10215000F0E08081482F8B81282F30E081E090E0F3
:10216000022E02C0880F991F0A94E2F780958423FB
:102170008C938C9105C081E0898302C081E08983C2
:1021800089812E960FB6F894DEBF0FBECDBFCF91DA
:10219000DF910895DF93CF9300D000D00F92CDB799
:1021A000DEB78A836B8319828A81282F30E03D83D2
:1021B0002C838C819D8181309105D1F02C813D81D2
:1021C000223031052CF48C819D81009761F01FC075
:1021D0002C813D812230310581F08C819D818330BD
:1021E000910581F014C0EAE3F0E08B81808311C097
:1021F000E7E3F0E08B8180830CC0E4E3F0E08B81C7
:10220000808307C0E1E3F0E08B81808302C081E03E
:10221000898389810F900F900F900F900F90CF912D
:10222000DF910895DF93CF9300D000D00F92CDB708
:10223000DEB78A836B8319828A81282F30E03D8341
:102240002C838C819D8181309105D1F02C813D8141
:10225000223031052CF48C819D81009761F01FC0E4
:102260002C813D812230310581F08C819D8183302C
:10227000910581F014C0EBE3F0E08B81808311C005
:10228000E8E3F0E08B8180830CC0E5E3F0E08B8134
:10229000808307C0E2E3F0E08B81808302C081E0AD
:1022A000898389810F900F900F900F900F90CF919D
:1022B000DF910895DF93CF9300D000D000D0CDB749
:1022C000DEB78A837C836B8319828A81282F30E072
:1022D0003E832D838D819E8181309105E1F02D819A
:1022E0003E81223031052CF48D819E81009761F072
:1022F00027C02D813E8122303105A1F08D819E8144
:1023000083309105B1F01CC0E9E3F0E08081EB81FE
:10231000FC81808317C0E6E3F0E08081EB81FC81E3
:10232000808310C0E3E3F0E08081EB81FC81808357
:1023300009C0E0E3F0E08081EB81FC81808302C092
:1023400081E08983898126960FB6F894DEBF0FBE9F
:10235000CDBFCF91DF910895DF93CF9300D000D010
:102360000F92CDB7DEB78A836B8319828A81282FBB
:1023700030E03D832C838C819D8181309105D1F0AB
:102380002C813D81223031052CF48C819D81009778
:1023900061F01FC02C813D812230310581F08C819C
:1023A0009D818330910581F014C0EBE3F0E08B81D7
:1023B000808311C0E8E3F0E08B8180830CC0E5E30B
:1023C000F0E08B81808307C0E2E3F0E08B818083C3
:1023D00002C081E0898389810F900F900F900F9048
:1023E0000F90CF91DF910895DF93CF9300D00F929C
:1023F000CDB7DEB78983A6E2B0E0E6E2F0E0808107
:1024000080688C93A6E2B0E0E6E2F0E080818B7F0A
:102410008C93A6E2B0E0E6E2F0E0808182608C93EB
:10242000A6E2B0E0E6E2F0E080818E7F8C938981C5
:10243000282F30E03B832A838A819B81813091055C
:10244000C9F02A813B812230310529F08A819B81A4
:102450000097F9F02CC0A7E2B0E0E7E2F0E080815D
:102460008F778C93A7E2B0E0E7E2F0E080818F7B8A
:102470008C931DC0A7E2B0E0E7E2F0E080818F77A7
:102480008C93A7E2B0E0E7E2F0E0808180648C9377
:102490000EC0A7E2B0E0E7E2F0E0808180688C93B4
:1024A000A7E2B0E0E7E2F0E0808180648C93A6E2EE
:1024B000B0E0E6E2F0E080818F7D8C93A6E2B0E0B0
:1024C000E6E2F0E0808188608C9381E00E947F0CDE
:1024D000A7E2B0E0E7E2F0E080818F7D8C930F907F
:1024E0000F900F90CF91DF910895DF93CF9300D09D
:1024F000CDB7DEB78A838A818830C0F48A81882F7D
:1025000090E0880F991FFC01EB50FC4F20818A81DD
:10251000882F90E0880F991FFC01EA50FC4F9081B2
:10252000822F692F40E00E94A90C22C08A81883046
:10253000F9F419821AC08981882F90E0880F991FB9
:10254000FC01EB50FC4F20818981882F90E0880F9F
:10255000991FFC01EA50FC4F9081822F692F40E0C7
:102560000E94A90C89818F5F89838981883018F343
:102570000F900F90CF91DF910895DF93CF930F923B
:10258000CDB7DEB7898389810E946513A6E2B0E0EA
:10259000E6E2F0E0808180648C930F90CF91DF9130
:1025A0000895DF93CF93CDB7DEB7CF91DF91089534
:1025B000DF93CF930F92CDB7DEB789838981882FC0
:1025C00090E081309105A9F4A0E5B0E0E0E5F0E00D
:1025D00080818F7D8C93A0E5B0E0E0E5F0E0808124
:1025E00080648C93A0E5B0E0E0E5F0E080818F7737
:1025F0008C930F90CF91DF910895DF93CF9300D00C
:10260000CDB7DEB79A83898389819A8190931F041D
:1026100080931E040F900F90CF91DF910895DF9368
:10262000CF9300D0CDB7DEB79A83898389819A8111
:1026300090931D0480931C040F900F90CF91DF9115
:1026400008951F920F920FB60F9211242F933F936C
:102650004F935F936F937F938F939F93AF93BF93AA
:10266000EF93FF93DF93CF93CDB7DEB780911E0436
:1026700090911F04009759F0E0911E04F0911F04FF
:10268000A4E2B0E08D919C91119791838083809119
:102690001C0490911D04009729F0E0911C04F09116
:1026A0001D040995CF91DF91FF91EF91BF91AF91FB
:1026B0009F918F917F916F915F914F913F912F915A
:1026C0000F900FBE0F901F901895DF93CF9300D0FF
:1026D0000F92CDB7DEB789838981282F30E03B8305
:1026E0002A838A819B818330910509F49BC02A81CA
:1026F0003B81243031058CF48A819B8181309105A6
:1027000009F448C02A813B81223031050CF066C0B3
:102710008A819B810097D1F038C12A813B81253085
:10272000310509F4C7C08A819B81853091050CF47D
:102730009DC02A813B812630310509F4DFC08A81A2
:102740009B818730910509F4FDC01FC1A7E2B0E06D
:10275000E7E2F0E080818F7E8C93A7E2B0E0E7E2D1
:10276000F0E08081877F8C93A7E2B0E0E7E2F0E0C1
:1027700080818B7F8C93A7E2B0E0E7E2F0E080817C
:102780008D7F8C93A7E2B0E0E7E2F0E080818E7F5E
:102790008C93FBC0A7E2B0E0E7E2F0E080818F7E9F
:1027A0008C93A7E2B0E0E7E2F0E08081877F8C9332
:1027B000A7E2B0E0E7E2F0E080818B7F8C93A7E2B4
:1027C000B0E0E7E2F0E080818D7F8C93A7E2B0E09B
:1027D000E7E2F0E0808181608C93D7C0A7E2B0E0AF
:1027E000E7E2F0E080818F7E8C93A7E2B0E0E7E241
:1027F000F0E08081877F8C93A7E2B0E0E7E2F0E031
:1028000080818B7F8C93A7E2B0E0E7E2F0E08081EB
:1028100082608C93A7E2B0E0E7E2F0E080818E7FF7
:102820008C93B3C0A7E2B0E0E7E2F0E080818F7E56
:102830008C93A7E2B0E0E7E2F0E08081877F8C93A1
:10284000A7E2B0E0E7E2F0E080818B7F8C93A7E223
:10285000B0E0E7E2F0E0808182608C93A7E2B0E034
:10286000E7E2F0E0808181608C938FC0A7E2B0E066
:10287000E7E2F0E080818F7E8C93A7E2B0E0E7E2B0
:10288000F0E08081877F8C93A7E2B0E0E7E2F0E0A0
:10289000808184608C93A7E2B0E0E7E2F0E0808181
:1028A0008D7F8C93A7E2B0E0E7E2F0E080818E7F3D
:1028B0008C936BC0A7E2B0E0E7E2F0E080818F7E0E
:1028C0008C93A7E2B0E0E7E2F0E08081877F8C9311
:1028D000A7E2B0E0E7E2F0E0808184608C93A7E2B9
:1028E000B0E0E7E2F0E080818D7F8C93A7E2B0E07A
:1028F000E7E2F0E0808181608C9347C0A7E2B0E01E
:10290000E7E2F0E080818F7E8C93A7E2B0E0E7E21F
:10291000F0E08081877F8C93A7E2B0E0E7E2F0E00F
:10292000808184608C93A7E2B0E0E7E2F0E08081F0
:1029300082608C93A7E2B0E0E7E2F0E080818E7FD6
:102940008C9323C0A7E2B0E0E7E2F0E080818F7EC5
:102950008C93A7E2B0E0E7E2F0E08081877F8C9380
:10296000A7E2B0E0E7E2F0E0808184608C93A7E228
:10297000B0E0E7E2F0E0808182608C93A7E2B0E013
:10298000E7E2F0E0808181608C930F900F900F90D0
:10299000CF91DF910895DF93CF9300D000D0CDB7D2
:1029A000DEB79C838B838B819C819C0140E050E04F
:1029B00080E291EAA7E0B0E0BC01CD010E941925B8
:1029C000DA01C90101979A838983E0E4F0E0898103
:1029D0009A81892F99278083E9E2F0E089818083B9
:1029E000AAE2B0E0EAE2F0E0808180618C93AAE2A2
:1029F000B0E0EAE2F0E0808188608C93E0E4F0E00F
:102A000086E880830F900F900F900F90CF91DF9109
:102A10000895DF93CF930F92CDB7DEB78983EBE2B2
:102A2000F0E08081829586958770882F90E0817094
:102A300090700097A1F3ECE2F0E0898180830F9021
:102A4000CF91DF910895DF93CF93CDB7DEB7EBE25F
:102A5000F0E080818823DCF7ECE2F0E08081CF9128
:102A6000DF910895DF93CF93CDB7DEB7AFE4B0E049
:102A7000EFE4F0E080818E7F8C93AFE4B0E0EFE490
:102A8000F0E080818D7F8C93AEE4B0E0EEE4F0E086
:102A9000808188608C93AEE4B0E0EEE4F0E0808169
:102AA0008F7E8C93A9E5B0E0E9E5F0E0808180615C
:102AB0008C93AEE4B0E0EEE4F0E08081887F8C930C
:102AC000AEE4B0E0EEE4F0E0808185608C93CF91DD
:102AD000DF910895DF93CF93CDB7DEB7AEE4B0E0DA
:102AE000EEE4F0E08081887F8C93CF91DF910895B0
:102AF000DF93CF9300D0CDB7DEB78A8319828A8166
:102B0000883080F4AEE4B0E0EEE4F0E08081887FCD
:102B10008C93AEE4B0E0EEE4F0E090818A81892B02
:102B20008C9302C081E0898389810F900F90CF91AF
:102B3000DF910895DF93CF930F92CDB7DEB78983EE
:102B4000ECE4F0E0898180830F90CF91DF910895CC
:102B5000DF93CF930F92CDB7DEB78983EAE4F0E03D
:102B6000898180830F90CF91DF910895DF93CF9378
:102B700000D000D000D0CDB7DEB79A8389837C83A4
:102B80006B835E834D8389819A81CC01A0E0B0E0A4
:102B900028EE33E040E050E0BC01CD010E94DA2491
:102BA000DC01CB0120E03DE740E050E0BC01CD017D
:102BB0000E941925DA01C901EB81FC819183808390
:102BC000ED81FE818AEF808326960FB6F894DEBFF2
:102BD0000FBECDBFCF91DF910895DF93CF9300D08B
:102BE000CDB7DEB79A83898389819A819093210436
:102BF000809320040F900F90CF91DF910895DF9381
:102C0000CF9300D0CDB7DEB79A83898389819A812B
:102C100090932304809322040F900F90CF91DF9123
:102C200008951F920F920FB60F9211242F933F9386
:102C30004F935F936F937F938F939F93AF93BF93C4
:102C4000EF93FF93DF93CF93CDB7DEB7809124044A
:102C5000909125040196909325048093240420915B
:102C60002404309125048091590490915A04281726
:102C7000390779F48091220490912304009749F058
:102C8000E0912204F09123040995109225041092FA
:102C90002404CF91DF91FF91EF91BF91AF919F916C
:102CA0008F917F916F915F914F913F912F910F90F5
:102CB0000FBE0F901F9018951F920F920FB60F9294
:102CC00011242F933F934F935F936F937F938F9331
:102CD0009F93AF93BF93EF93FF93DF93CF93CDB7C2
:102CE000DEB78091200490912104009729F0E091B3
:102CF0002004F09121040995CF91DF91FF91EF918C
:102D0000BF91AF919F918F917F916F915F914F9103
:102D10003F912F910F900FBE0F901F901895DF934A
:102D2000CF93CDB7DEB7A3E5B0E0E3E5F0E0808177
:102D30008F7B8C93A3E5B0E0E3E5F0E080818860D1
:102D40008C93A9E5B0E0E9E5F0E0808182608C93A6
:102D5000AFE5B0E0EFE5F0E0808180688C93CF9143
:102D6000DF910895DF93CF9300D000D0CDB7DEB7C9
:102D70009C838B838B819C810E9441179A838983DA
:102D8000ECE5F0E08981808310922B0410922A04F4
:102D9000A3E5B0E0E3E5F0E0808183608C930F90E1
:102DA0000F900F900F90CF91DF910895DF93CF9305
:102DB000CDB7DEB7A3E5B0E0E3E5F0E08081887F42
:102DC0008C93CF91DF910895DF93CF9300D0CDB74F
:102DD000DEB79A83898389819A81909327048093AF
:102DE00026040F900F90CF91DF9108951F920F92BC
:102DF0000FB60F9211242F933F934F935F936F93CE
:102E00007F938F939F93AF93BF93EF93FF93DF9342
:102E1000CF93CDB7DEB780912A0490912B04019611
:102E200090932B0480932A0420912A0430912B0440
:102E300080912804909129042817390778F080910F
:102E4000260490912704009729F0E0912604F09140
:102E50002704099510922B0410922A04CF91DF9138
:102E6000FF91EF91BF91AF919F918F917F916F9162
:102E70005F914F913F912F910F900FBE0F901F9038
:102E80001895EF92FF920F931F93DF93CF93CDB7D7
:102E9000DEB72A970FB6F894DEBF0FBECDBF9A8774
:102EA000898781E090E0A0E0B0E08D839E83AF83CE
:102EB000B88780E490E0A0E0B0E08D839E83AF838C
:102EC000B8878D819E81AF81B88528EE33E040E0E0
:102ED00050E0BC01CD010E94DA249B01AC0180E0EE
:102EE00092E1AAE7B0E0BC01CD010E941925DA0108
:102EF000C9017C018D0189859A859C0140E050E0E3
:102F0000C801B7010E94DA24DC01CB0189839A83CE
:102F1000AB83BC8389819A81AB81BC818F3F910552
:102F2000A105B105E1F0D8F089819A81AB81BC811E
:102F30002FEF30E040E050E0BC01CD010E941925A8
:102F4000DA01C90190932904809328048FEF90E05F
:102F5000A0E0B0E089839A83AB83BC8306C081E0A4
:102F600090E0909329048093280489819A812A967D
:102F70000FB6F894DEBF0FBECDBFCF91DF911F918A
:102F80000F91FF90EF900895DF93CF9300D0CDB7CE
:102F9000DEB78A838A818830C0F48A81882F90E0E6
:102FA000880F991FFC01EB5FFB4F20818A81882FDE
:102FB00090E0880F991FFC01EA5FFB4F9081822F00
:102FC000692F40E00E94A90C22C08A818830F9F460
:102FD00019821AC08981882F90E0880F991FFC01FF
:102FE000EB5FFB4F20818981882F90E0880F991F2C
:102FF000FC01EA5FFB4F9081822F692F40E00E9425
:10300000A90C89818F5F89838981883018F30F909B
:103010000F90CF91DF910895DF93CF9300D00F925F
:10302000CDB7DEB79A8389836B838B81882F90E03D
:10303000880F991FFC01EB5FFB4F40818B81882F2C
:1030400090E0880F991FFC01EA5FFB4F9081298176
:103050003A81842F692FA9010E94AB0E0F900F9027
:103060000F90CF91DF910895DF93CF9300D00F920F
:10307000CDB7DEB79B838A838A819B81FC01329620
:103080001082198221C08981882F90E0880F991FB2
:10309000FC01EB5FFB4F40818981882F90E0880F16
:1030A000991FFC01EA5FFB4F50818981282F30E096
:1030B0008A819B81280F391F842F652FA9010E94C7
:1030C000AB0E89818F5F898389818230E0F28A81AA
:1030D0009B81FC01329681E080830F900F900F90CE
:1030E000CF91DF910895DF93CF9300D00F92CDB7AA
:1030F000DEB78A836B838A816B8141E00E94A90CD1
:10310000898389810F900F900F90CF91DF9108955F
:10311000DF93CF9300D0CDB7DEB78A838A816FEF7C
:103120000E94CA10898389810F900F90CF91DF91FF
:103130000895DF93CF9300D000D0CDB7DEB78B8357
:103140006C839E012E5F3F4F8B816C81A9010E9491
:103150003E0F89838981882371F48A81882329F429
:103160008B816C810E94731889838B816C8141E013
:103170000E94AA0D898389810F900F900F900F9064
:10318000CF91DF910895DF93CF9300D000D0CDB7DA
:10319000DEB78B836C839E012E5F3F4F8B816C81EA
:1031A000A9010E943E0F89838981882371F48A8155
:1031B000882329F48B816C810E94731889838B8109
:1031C0006C8140E00E94AA0D898389810F900F9045
:1031D0000F900F90CF91DF910895DF93CF9300D0A0
:1031E00000D00F92CDB7DEB78C836D839E012D5F2B
:1031F0003F4F8C816D81A9010E943E0F8983898197
:10320000882321F58B81882329F48C816D810E948C
:10321000731889839E012E5F3F4F8C816D81A901B8
:103220000E94AB0E89838981882381F48A81813051
:1032300039F48C816D8140E00E94AA0D898306C01B
:103240008C816D8141E00E94AA0D898389810F9054
:103250000F900F900F900F90CF91DF910895DF9313
:10326000CF93CDB7DEB7A2970FB6F894DEBF0FBEEF
:10327000CDBF8F8F68A35AA349A39E01225E3F4F03
:103280008F8D68A1A9010E943E0F8D8F8D8D88239F
:1032900009F008C18E8D882329F48F8D68A10E94C2
:1032A00073188D8F8F8D68A10E9499188D8F89A1B9
:1032B0009AA1CC01A0E0B0E0BC01CD010E94A9041C
:1032C000DC01CB01898F9A8FAB8FBC8F698D7A8D92
:1032D0008B8D9C8D20E030E04AEF54E40E941F0269
:1032E000DC01CB018D8B9E8BAF8BB88F6D897E8976
:1032F0008F89988D20E030E040E85FE30E9425044C
:1033000088232CF481E090E09C8B8B8B3FC06D89EF
:103310007E898F89988D20E03FEF4FE757E40E9428
:10332000C50318164CF5698D7A8D8B8D9C8D20E028
:1033300030E040E251E40E941F02DC01CB01BC01FD
:10334000CD010E944900DC01CB019C8B8B8B0FC00F
:1033500088EC90E09A8B898B89899A890197F1F79B
:103360009A8B898B8B899C8901979C8B8B8B8B8902
:103370009C89009769F714C06D897E898F89988D23
:103380000E944900DC01CB019C8B8B8B8B899C8933
:10339000988B8F878F8598890197F1F7988B8F8706
:1033A0008D8D882309F07EC08F8D68A10E94C3187F
:1033B0008D8F89A19AA1CC01A0E0B0E0BC01CD0124
:1033C0000E94A904DC01CB018B879C87AD87BE8757
:1033D0006B857C858D859E8520E030E04AEF54E446
:1033E0000E941F02DC01CB018F839887A987BA87CF
:1033F0006F81788589859A8520E030E040E85FE339
:103400000E94250488232CF481E090E09E838D8324
:103410003FC06F81788589859A8520E03FEF4FE72F
:1034200057E40E94C50318164CF56B857C858D8585
:103430009E8520E030E040E251E40E941F02DC0162
:10344000CB01BC01CD010E944900DC01CB019E8370
:103450008D830FC088EC90E09C838B838B819C8153
:103460000197F1F79C838B838D819E8101979E83C9
:103470008D838D819E81009769F714C06F81788557
:1034800089859A850E944900DC01CB019E838D834A
:103490008D819E819A83898389819A810197F1F731
:1034A0009A8389838D8DA2960FB6F894DEBF0FBEE6
:1034B000CDBFCF91DF910895DF93CF9300D00F92CE
:1034C000CDB7DEB78B839E012E5F3F4F8B8160E0CF
:1034D000A9010E943E0F89838981882361F48A8132
:1034E000882321F48B810E94881889838B816FEF58
:1034F0000E941211898389810F900F900F90CF91B4
:10350000DF910895DF93CF9300D00F92CDB7DEB750
:103510008B839E012E5F3F4F8B8160E0A9010E944B
:103520003E0F89838981882361F48A81882321F46D
:103530008B810E94881889838B8160E00E94121120
:10354000898389810F900F900F90CF91DF9108951B
:10355000DF93CF9300D000D0CDB7DEB78C839E0130
:103560002D5F3F4F8C8160E0A9010E943E0F89834F
:103570008981882301F58B81882321F48C810E9425
:10358000881889839E012E5F3F4F8C81B9010E946C
:103590005A1189838981882371F48A81813031F4B9
:1035A0008C8160E00E941211898305C08C816FEFCD
:1035B0000E941211898389810F900F900F900F90B4
:1035C000CF91DF910895DF93CF93CDB7DEB7A19769
:1035D0000FB6F894DEBF0FBECDBF8F8F79A368A35F
:1035E0009E01225E3F4F8F8D60E0A9010E943E0F39
:1035F0008D8F8D8D882309F005C18E8D882321F450
:103600008F8D0E9488188D8F8F8D0E945C1A8D8FF0
:1036100088A199A1CC01A0E0B0E0BC01CD010E943D
:10362000A904DC01CB01898F9A8FAB8FBC8F698D88
:103630007A8D8B8D9C8D20E030E04AEF54E40E941F
:103640001F02DC01CB018D8B9E8BAF8BB88F6D89F8
:103650007E898F89988D20E030E040E85FE30E940A
:10366000250488232CF481E090E09C8B8B8B3FC059
:103670006D897E898F89988D20E03FEF4FE757E471
:103680000E94C50318164CF5698D7A8D8B8D9C8D23
:1036900020E030E040E251E40E941F02DC01CB0157
:1036A000BC01CD010E944900DC01CB019C8B8B8BBE
:1036B0000FC088EC90E09A8B898B89899A89019751
:1036C000F1F79A8B898B8B899C8901979C8B8B8BCB
:1036D0008B899C89009769F714C06D897E898F89D1
:1036E000988D0E944900DC01CB019C8B8B8B8B89D0
:1036F0009C89988B8F878F8598890197F1F7988B94
:103700008F878D8D882309F07DC08F8D0E94821A4E
:103710008D8F88A199A1CC01A0E0B0E0BC01CD01C2
:103720000E94A904DC01CB018B879C87AD87BE87F3
:103730006B857C858D859E8520E030E04AEF54E4E2
:103740000E941F02DC01CB018F839887A987BA876B
:103750006F81788589859A8520E030E040E85FE3D5
:103760000E94250488232CF481E090E09E838D83C1
:103770003FC06F81788589859A8520E03FEF4FE7CC
:1037800057E40E94C50318164CF56B857C858D8522
:103790009E8520E030E040E251E40E941F02DC01FF
:1037A000CB01BC01CD010E944900DC01CB019E830D
:1037B0008D830FC088EC90E09C838B838B819C81F0
:1037C0000197F1F79C838B838D819E8101979E8366
:1037D0008D838D819E81009769F714C06F817885F4
:1037E00089859A850E944900DC01CB019E838D83E7
:1037F0008D819E819A83898389819A810197F1F7CE
:103800009A8389838D8DA1960FB6F894DEBF0FBE83
:10381000CDBFCF91DF910895DF93CF93CDB7DEB7C2
:103820002F970FB6F894DEBF0FBECDBF8F8782E013
:1038300067E041E00E94AA0D82E065E040E00E945E
:10384000AA0D81E06F850E94121182E066E041E0DE
:103850000E94AA0D80E090E0A0E0B0E48B879C87F6
:10386000AD87BE876B857C858D859E8520E030E0A9
:103870004AEF54E40E941F02DC01CB018F8398873A
:10388000A987BA876F81788589859A8520E030E09D
:1038900040E85FE30E94250488232CF481E090E057
:1038A0009E838D833FC06F81788589859A8520E0CE
:1038B0003FEF4FE757E40E94C50318164CF56B85A0
:1038C0007C858D859E8520E030E040E251E40E94B9
:1038D0001F02DC01CB01BC01CD010E944900DC01CB
:1038E000CB019E838D830FC088EC90E09C838B83FB
:1038F0008B819C810197F1F79C838B838D819E81C5
:1039000001979E838D838D819E81009769F714C0F6
:103910006F81788589859A850E944900DC01CB01F9
:103920009E838D838D819E819A83898389819A81EB
:103930000197F1F79A83898382E066E040E00E9474
:10394000AA0D2F960FB6F894DEBF0FBECDBFCF9154
:10395000DF910895DF93CF93CDB7DEB72F970FB6E2
:10396000F894DEBF0FBECDBF8F8782E067E040E0F6
:103970000E94AA0D82E065E040E00E94AA0D81E06D
:103980006F850E94121182E066E041E00E94AA0D5C
:1039900080E090E0A0E0B0E48B879C87AD87BE8795
:1039A0006B857C858D859E8520E030E04AEF54E470
:1039B0000E941F02DC01CB018F839887A987BA87F9
:1039C0006F81788589859A8520E030E040E85FE363
:1039D0000E94250488232CF481E090E09E838D834F
:1039E0003FC06F81788589859A8520E03FEF4FE75A
:1039F00057E40E94C50318164CF56B857C858D85B0
:103A00009E8520E030E040E251E40E941F02DC018C
:103A1000CB01BC01CD010E944900DC01CB019E839A
:103A20008D830FC088EC90E09C838B838B819C817D
:103A30000197F1F79C838B838D819E8101979E83F3
:103A40008D838D819E81009769F714C06F81788581
:103A500089859A850E944900DC01CB019E838D8374
:103A60008D819E819A83898389819A810197F1F75B
:103A70009A83898382E066E040E00E94AA0D2F9637
:103A80000FB6F894DEBF0FBECDBFCF91DF91089582
:103A9000DF93CF93CDB7DEB7E8970FB6F894DEBFCC
:103AA0000FBECDBF82E067E041E00E94A90C82E03A
:103AB00065E041E00E94A90C82E066E041E00E94DE
:103AC000A90C81E06FEF0E94CA1080E090E0A0E2B4
:103AD000B2E48DAB9EABAFABB8AF6DA97EA98FA999
:103AE00098AD20E030E04AEF54E40E941F02DC0170
:103AF000CB0189AB9AABABABBCAB69A97AA98BA95B
:103B00009CA920E030E040E85FE30E942504882380
:103B10002CF481E090E098AB8FA73FC069A97AA907
:103B20008BA99CA920E03FEF4FE757E40E94C50313
:103B300018164CF56DA97EA98FA998AD20E030E04C
:103B400040E251E40E941F02DC01CB01BC01CD0127
:103B50000E944900DC01CB0198AB8FA70FC088EC15
:103B600090E09EA78DA78DA59EA50197F1F79EA732
:103B70008DA78FA598A9019798AB8FA78FA598A916
:103B8000009769F714C069A97AA98BA99CA90E941A
:103B90004900DC01CB0198AB8FA78FA598A99CA702
:103BA0008BA78BA59CA50197F1F79CA78BA788E312
:103BB0000E94AA1C80E090E0A0E0B0E48FA398A748
:103BC000A9A7BAA76FA178A589A59AA520E030E09A
:103BD0004AEF54E40E941F02DC01CB018BA39CA39B
:103BE000ADA3BEA36BA17CA18DA19EA120E030E07E
:103BF00040E85FE30E94250488232CF481E090E0F4
:103C00009AA389A33FC06BA17CA18DA19EA120E0B6
:103C10003FEF4FE757E40E94C50318164CF56FA11C
:103C200078A589A59AA520E030E040E251E40E9401
:103C30001F02DC01CB01BC01CD010E944900DC0167
:103C4000CB019AA389A30FC088EC90E098A38F8F33
:103C50008F8D98A10197F1F798A38F8F89A19AA1D1
:103C600001979AA389A389A19AA1009769F714C023
:103C70006BA17CA18DA19EA10E944900DC01CB011A
:103C80009AA389A389A19AA19E8F8D8F8D8D9E8DD8
:103C90000197F1F79E8F8D8F8CE00E94AA1C80E027
:103CA00090E0A0E0B0E4898F9A8FAB8FBC8F698DD4
:103CB0007A8D8B8D9C8D20E030E04AEF54E40E9499
:103CC0001F02DC01CB018D8B9E8BAF8BB88F6D8972
:103CD0007E898F89988D20E030E040E85FE30E9484
:103CE000250488232CF481E090E09C8B8B8B3FC0D3
:103CF0006D897E898F89988D20E03FEF4FE757E4EB
:103D00000E94C50318164CF5698D7A8D8B8D9C8D9C
:103D100020E030E040E251E40E941F02DC01CB01D0
:103D2000BC01CD010E944900DC01CB019C8B8B8B37
:103D30000FC088EC90E09A8B898B89899A890197CA
:103D4000F1F79A8B898B8B899C8901979C8B8B8B44
:103D50008B899C89009769F714C06D897E898F894A
:103D6000988D0E944900DC01CB019C8B8B8B8B8949
:103D70009C89988B8F878F8598890197F1F7988B0D
:103D80008F8781E00E94AA1C80E090E0A0E0B0E470
:103D90008B879C87AD87BE876B857C858D859E854F
:103DA00020E030E04AEF54E40E941F02DC01CB0126
:103DB0008F839887A987BA876F81788589859A8547
:103DC00020E030E040E85FE30E94250488232CF4E3
:103DD00081E090E09E838D833FC06F8178858985E7
:103DE0009A8520E03FEF4FE757E40E94C50318167D
:103DF0004CF56B857C858D859E8520E030E040E22A
:103E000051E40E941F02DC01CB01BC01CD010E94E4
:103E10004900DC01CB019E838D830FC088EC90E0CC
:103E20009C838B838B819C810197F1F79C838B838F
:103E30008D819E8101979E838D838D819E810097C8
:103E400069F714C06F81788589859A850E94490039
:103E5000DC01CB019E838D838D819E819A83898332
:103E600089819A810197F1F79A83898386E00E947C
:103E7000AA1CE8960FB6F894DEBF0FBECDBFCF9157
:103E8000DF910895DF93CF9300D00F92CDB7DEB7C7
:103E90009B838A83198214C08981803119F480EC54
:103EA0000E94AA1C8981282F30E08A819B81FC0115
:103EB000E20FF31F80810E940C1C89818F5F898330
:103EC0008981282F30E08A819B81FC01E20FF31F5A
:103ED0008081882309F70F900F900F90CF91DF9189
:103EE0000895DF93CF93CDB7DEB780EC0E94AA1C74
:103EF000CF91DF910895DF93CF93CDB7DEB762976F
:103F00000FB6F894DEBF0FBECDBF9A8B898B1F868C
:103F1000188A0EC08889282F30E089899A89FC0187
:103F2000E20FF31F80810E940C1C88898F5F888BB1
:103F30008889282F30E089899A89FC01E20FF31FD4
:103F40008081882339F78F859889692F0E94F92409
:103F5000892F803119F480E80E94AA1C88E10E9410
:103F6000AA1C80E090E0AAEFB3E48B879C87AD8722
:103F7000BE876B857C858D859E8520E030E04AEF8D
:103F800054E40E941F02DC01CB018F839887A9872C
:103F9000BA876F81788589859A8520E030E040E88E
:103FA0005FE30E94250488232CF481E090E09E8347
:103FB0008D833FC06F81788589859A8520E03FEFAA
:103FC0004FE757E40E94C50318164CF56B857C85B6
:103FD0008D859E8520E030E040E251E40E941F0282
:103FE000DC01CB01BC01CD010E944900DC01CB0109
:103FF0009E838D830FC088EC90E09C838B838B81A4
:104000009C810197F1F79C838B838D819E81019721
:104010009E838D838D819E81009769F714C06F8187
:10402000788589859A850E944900DC01CB019E83B1
:104030008D838D819E819A83898389819A8101975D
:10404000F1F79A8389838F858F5F8F877CCFDF938A
:10405000CF93CDB7DEB762970FB6F894DEBF0FBE31
:10406000CDBF9A8B898B1F86188A0EC08889282F0E
:1040700030E089899A89FC01E20FF31F80810E9458
:104080000C1C88898F5F888B8889282F30E089896C
:104090009A89FC01E20FF31F8081882339F78F850D
:1040A0009889692F0E94F924892F803119F480E8BA
:1040B0000E94AA1C8CE10E94AA1C80E090E0AAEF5A
:1040C000B3E48B879C87AD87BE876B857C858D85A8
:1040D0009E8520E030E04AEF54E40E941F02DC019C
:1040E000CB018F839887A987BA876F817885898567
:1040F0009A8520E030E040E85FE30E9425048823B1
:104100002CF481E090E09E838D833FC06F817885A1
:1041100089859A8520E03FEF4FE757E40E94C50369
:1041200018164CF56B857C858D859E8520E030E0EA
:1041300040E251E40E941F02DC01CB01BC01CD0131
:104140000E944900DC01CB019E838D830FC088EC67
:1041500090E09C838B838B819C810197F1F79C83FA
:104160008B838D819E8101979E838D838D819E811E
:10417000009769F714C06F81788589859A850E94B8
:104180004900DC01CB019E838D838D819E819A83C2
:10419000898389819A810197F1F79A8389838F8531
:1041A0008F5F8F877CCFDF93CF93CDB7DEB781E072
:1041B0000E94AA1CCF91DF910895DF93CF9300D086
:1041C000CDB7DEB789836A838981813041F48A81E2
:1041D000883228F48A8180580E94AA1C0FC08981E5
:1041E000823061F48A81882F90E0805C9F4F87360F
:1041F000910524F48A8180540E94AA1C0F900F908C
:10420000CF91DF910895DF93CF9300D0CDB7DEB784
:1042100089836A8389816A810E94DD208FE00E9400
:10422000AA1C0F900F90CF91DF910895DF93CF9349
:10423000CDB7DEB728970FB6F894DEBF0FBECDBF5F
:1042400098878F838F8198859E838D8381E090E00E
:104250009C838B831A828D819E810097F9F480E381
:104260000E940C1C1BC08D819E812AE030E0B901A8
:104270000E940525CB019E838D838B819C819C01AF
:10428000220F331FC901880F991F880F991F820FB2
:10429000931F9C838B838A818F5F8A838D819E810C
:1042A000009709F78B819C812AE030E0B9010E94D8
:1042B0000525CB019C838B838A81805189838981E9
:1042C00088230CF03EC019823CC08A81282F30E040
:1042D0008981992787FD90952817390719F480EC73
:1042E0000E94AA1C8F8198852B813C81B9010E9474
:1042F0000525CB01882F90E09E838D838D81805D85
:104300000E940C1C2D813E818B819C81A901489FBC
:104310009001499F300D589F300D11248F81988551
:10432000821B930B98878F838B819C812AE030E0DE
:10433000B9010E940525CB019C838B838A81815022
:104340008A838A81882309F628960FB6F894DEBFFF
:104350000FBECDBFCF91DF910895DF93CF930F9222
:10436000CDB7DEB7898382E00E94F41189810E9473
:1043700075120F90CF91DF910895DF93CF9300D006
:104380000F92CDB7DEB79A8389836B8389819A8137
:104390000E94FD128B810E94BD120F900F900F9012
:1043A000CF91DF910895DF93CF9300D0CDB7DEB7E3
:1043B0009A83898389819A810E940F130F900F90AD
:1043C000CF91DF910895DF93CF9300D0CDB7DEB7C3
:1043D0009A83898310922C0489819A810E94CB143C
:1043E0000F900F90CF91DF910895DF93CF930F92AD
:1043F000CDB7DEB78983898180932C0480912C040A
:1044000080930D040F90CF91DF910895DF93CF93A8
:1044100000D000D0CDB7DEB79A8389837C836B83CD
:104420008B819C81892F9927E981FA8180838981F9
:104430009A81FC0131968B8180830F900F900F90B1
:104440000F90CF91DF910895DF93CF9300D000D0EC
:1044500000D0CDB7DEB79E838D831C821B8281E0A6
:1044600090E09A83898315C029813A818D819E814C
:10447000FC01E20FF31F8081282F30E08B819C81AB
:10448000820F931F9C838B8389819A8101969A83E3
:10449000898389819A818730910534F38B819C814E
:1044A000909581959F4F26960FB6F894DEBF0FBE6C
:1044B000CDBFCF91DF910895DF93CF9300D0CDB7DB
:1044C000DEB789E094E00E9424229A83898380E108
:1044D00094E029813A81B9010E9406220F900F9041
:1044E000CF91DF910895DF93CF9300D0CDB7DEB7A2
:1044F0001A8219820DC089819A81FC01E75FFB4F06
:1045000080810E94091589819A8101969A83898305
:1045100089819A818A30910574F30F900F90CF9121
:10452000DF910895DF93CF9300D000D00F92CDB7E5
:10453000DEB789837B836A835D834C838981809323
:104540000C048A8180930E048C8180930F040E9456
:104550005C220E9473220F900F900F900F900F908B
:10456000CF91DF910895DF93CF9300D00F92CDB715
:10457000DEB789837B836A83898180930C048EE014
:1045800094E02A813B81B9010E9406220E945C22AC
:104590000E9473220F900F900F90CF91DF9108959A
:1045A000DF93CF930F92CDB7DEB789838981809354
:1045B0000C048EE094E060E070E00E9406220E940D
:1045C0005C220E9473220F90CF91DF910895DF93B8
:1045D000CF9300D0CDB7DEB79A83898329813A8102
:1045E00083E0B9010E94B3220F900F90CF91DF9129
:1045F0000895DF93CF93CDB7DEB781E00E94D0223C
:10460000CF91DF910895DF93CF93CDB7DEB782E0EE
:104610000E94D022CF91DF910895DF93CF9300D0F5
:10462000CDB7DEB79A83898329813A8186E0B901C3
:104630000E94B3220F900F90CF91DF910895DF93E6
:10464000CF9300D0CDB7DEB79A83898329813A8191
:1046500087E0B9010E94B3220F900F90CF91DF91B4
:104660000895DF93CF9300D0CDB7DEB79A838983C7
:1046700029813A8189E0B9010E94B3220F900F90FD
:10468000CF91DF910895DF93CF93CDB7DEB78AE066
:104690000E94D022CF91DF910895DF93CF93CDB7C1
:1046A000DEB78CE00E94D022CF91DF910895DF9396
:1046B000CF93CDB7DEB78DE00E94D022CF91DF91AE
:1046C0000895DF93CF93CDB7DEB78EE00E94D0225E
:1046D000CF91DF910895DF93CF9300D000D0CDB775
:1046E000DEB79A8389837C836B8329813A814B81EE
:1046F0005C818FE0B9010E9492220F900F900F9081
:104700000F90CF91DF910895DF93CF9300D0CDB775
:10471000DEB79A83898329813A8182E1B9010E94B7
:10472000B3220F900F90CF91DF910895DF93CF9335
:10473000CDB7DEB782E40E94D022CF91DF910895F9
:10474000DF93CF93CDB7DEB783E40E94D022CF9121
:10475000DF910895DF93CF93CDB7DEB787E40E9452
:10476000D022CF91DF910895DF93CF93CDB7DEB7FD
:1047700088E40E94D022CF91DF910895DF93CF93F8
:10478000CDB7DEB789E40E94D022CF91DF910895A2
:10479000DF93CF93CDB7DEB78CE40E94D022CF91C8
:1047A000DF910895DF93CF93CDB7DEB78BE40E94FE
:1047B000D022CF91DF910895DF93CF93CDB7DEB7AD
:1047C0008DE40E94D022CF91DF9108950F931F9323
:1047D000DF93CF9300D00F92CDB7DEB70E942315A1
:1047E0008E3711F01B821CC08EE780932D0481E070
:1047F00090E09A8389830DC009811A810E94231554
:10480000F801E35DFB4F808389819A8101969A8349
:10481000898389819A818A30910574F381E08B8341
:104820008B810F900F900F90CF91DF911F910F917F
:104830000895DF93CF9300D0CDB7DEB781E00E941B
:104840007F0C0E94720987E394E00E9417078BE5B2
:1048500094E067E00E9486090E94321529E534E061
:10486000AE014E5F5F4F88EE93E0B9010E94B6152E
:104870008A810E94A81589E694E20E94FF150E9491
:10488000A209809137048823E1F7809113048823DB
:10489000C1F7198211C08981282F30E08981882FC2
:1048A00090E0FC01E559FB4F8081F901EB58FB4F8B
:1048B000808389818F5F898389818A3060F381E079
:1048C000809313040E94A20985E794E00E94660782
:1048D000D8CFDF93CF93CDB7DEB780913804853042
:1048E00008F061C08091690490916A04009709F40E
:1048F0005AC080911304882309F455C083E067E00F
:104900000E94ED1880913804882F90E0880F991F3D
:104910009C0125593B4F8BE594E0B9010E94410C65
:1049200080913804882F90E0880F991FFC01E55989
:10493000FB4F8081882399F480913804882F90E080
:10494000880F991F0196FC01E559FB4F808181304A
:1049500031F4809138048150809338041CC08091D8
:104960003804882F90E0880F991FFC01E559FB4F10
:104970008081882381F480913804882F90E0880F0B
:10498000991F0196FC01E559FB4F8081882319F49A
:1049900085E0809338040E94A209809138048F5FDB
:1049A0008093380404C01092380410921304CF91FD
:1049B000DF910895629FD001739FF001829FE00D07
:1049C000F11D649FE00DF11D929FF00D839FF00D8E
:1049D000749FF00D659FF00D9927729FB00DE11D3A
:1049E000F91F639FB00DE11DF91FBD01CF01112417
:1049F0000895991B79E004C0991F961708F0961B3B
:104A0000881F7A95C9F780950895AA1BBB1B51E1B1
:104A100007C0AA1FBB1FA617B70710F0A61BB70B2E
:104A2000881F991F5A95A9F780959095BC01CD01D3
:104A30000895A1E21A2EAA1BBB1BFD010DC0AA1FDF
:104A4000BB1FEE1FFF1FA217B307E407F50720F0F7
:104A5000A21BB30BE40BF50B661F771F881F991F72
:104A60001A9469F760957095809590959B01AC01BB
:104A7000BD01CF0108952F923F924F925F926F92A6
:104A80007F928F929F92AF92BF92CF92DF92EF92DE
:104A9000FF920F931F93CF93DF93CDB7DEB7CA1B5F
:104AA000DB0B0FB6F894DEBF0FBECDBF09942A888A
:104AB000398848885F846E847D848C849B84AA8432
:104AC000B984C884DF80EE80FD800C811B81AA81BF
:104AD000B981CE0FD11D0FB6F894DEBF0FBECDBF8A
:084AE000ED010895F894FFCFE9
:104AE80000000000000000000001020203030303AD
:104AF8000404040404040404050505050505050566
:104B08000505050505050505060606060606060645
:104B1800060606060606060606060606060606062D
:104B28000606060606060606070707070707070715
:104B380007070707070707070707070707070707FD
:104B480007070707070707070707070707070707ED
:104B580007070707070707070707070707070707DD
:104B680007070707070707070808080808080808C5
:104B780008080808080808080808080808080808AD
:104B8800080808080808080808080808080808089D
:104B9800080808080808080808080808080808088D
:104BA800080808080808080808080808080808087D
:104BB800080808080808080808080808080808086D
:104BC800080808080808080808080808080808085D
:104BD800080808080808080808080808080808084D
:104BE80008080808080808087E0401000100D6061D
:104BF80001000200140502000100B00403000100D6
:104C08004C04030002004C0403000300E803040002
:104C18000100B00404000200E80304000300E204F9
:104C2800040004004C04050001004C0405000200C7
:104C3800B00405000300DC05050004004605060075
:104C480001004C0406000200E80307000100B0045C
:104C580007000200E20407000300B0040700040094
:104C680049276D2000496E74656C6C6967656E74C0
:104C780020005468616E6B20596F75200048656C80
:104C88006C6F2C2000486F77200041726520596FA7
:104C98007520004920004C696B6520004D79200083
:104CA80046616D696C79200043616E2000596F750B
:104CB800200052656164200054686520426F6F6B64
:104CC8002000506C65617365200053746F7020007C
:104CD8004920004C696B652000546F2045617420A1
:104CE800004170706C65732000E001E501F201FD80
:104CF8000105020A02130216021C02200228022DD4
:104D0800023202380242024A025002530259026138
:104D180002040C0A0704080205030704040509072E
:104D28000502050707020103040402040100010249
:104D3800030405060791008700E300A700CF0001E0
:104D480000010001019C009F00C700A3009900001A
:104D58000001000102B0009900B300AF00A70000F5
:104D68000001000201B8009300B800B8009F0000DD
:104D780000010003019800CE00C000A100CC000093
:104D88000001000302B0008F00F000A700C7000078
:104D98000001000303D1007F00FF00D800CC000011
:104DA8000001000401C0009800CF00B700BC00015A
:104DB8000001000402B0009900AC00AC009C0000A7
:104DC8000001000403C100B000CE00C700BC000011
:104DD8000001000404D800C600E100D300DE000092
:104DE8000001000501CF008F00E700CF00CF0000D1
:104DF8000001000502E0008F00CE00C30098010109
:104E08000001000503C0009100AC00B100A700013B
:104E18000001000504B1009100AE00B100AC000132
:104E28000001000601AE009800B000B3009F000129
:104E38000001000602D1007F00FF00D800CC00006E
:104E48000001000701B6009800CF00B700BC0001C0
:104E58000001000702B6009800D100CE00BE000095
:104E68000001000703C700EC00D100CE00D3000109
:104E78000001000704000000010002000300040014
:104E88000500060007030003017EFF06000000007E
:044E98000000EF0126
:00000001FF
