:100000000C942A000C9447000C9447000C94470071
:100010000C9447000C9447000C9447000C94121267
:100020000C9447000C945D120C9494130C9461137F
:100030000C9447000C9447000C9447000C94470024
:100040000C94220F0C9447000C9447000C9447002A
:100050000C94470011241FBECFE5D8E0DEBFCDBF12
:1000600013E0A0E6B0E0ECEBFBE302C005900D92DC
:10007000AE3BB107D9F714E0AEEBB3E001C01D927F
:10008000AC31B107E1F70E949B1C0C94DC1D0C9471
:100090000000EF92FF920F931F937B018C0120E0F1
:1000A00030E040E05FE40E94490388238CF0C801FF
:1000B000B70120E030E040E05FE40E94C1010E940F
:1000C000A9039B01AC01205030404040504806C07D
:1000D000C801B7010E94A9039B01AC01B901CA0183
:1000E0001F910F91FF90EF900895A0E0B0E0EBE733
:1000F000F0E00C94A51DDC012B01FA019C919230DB
:1001000008F439C1EB018881823008F433C194309E
:1001100069F4843009F02FC111969C91119789815F
:10012000981709F428C1A4E6B0E025C1843009F489
:1001300021C18230A9F4923009F01DC19A01AD01AC
:1001400088E0EA010990AE01E90109929E0181501F
:10015000C1F7E201898111969C918923818308C1AD
:10016000923009F407C112962D903C901397EB0141
:100170008A819B811496AD90BD90CD90DC901797AD
:10018000EC80FD800E811F819101281B390BB90184
:1001900037FF04C066277727621B730B6032710537
:1001A0000CF061C0121613066CF537014801062EDB
:1001B00004C096948794779467940A94D2F721E0C8
:1001C00030E040E050E004C0220F331F441F551FB1
:1001D0006A95D2F721503040404050402E213F21B7
:1001E00040235123211531054105510521F021E01E
:1001F00030E040E050E079018A01E628F72808293C
:1002000019293CC0232BD1F1260E371E350146019A
:10021000062E04C096948794779467940A94D2F734
:1002200021E030E040E050E004C0220F331F441FC3
:10023000551F6A95D2F721503040404050402A2146
:100240003B214C215D21211531054105510521F04E
:1002500021E030E040E050E059016A01A628B728CB
:10026000C828D9280BC0821593052CF01C01AA249C
:10027000BB24650103C0EE24FF24870111969C91E5
:10028000D20111968C91981709F445C0992339F041
:10029000A80197012A193B094C095D0906C0A6016E
:1002A00095012E193F09400B510B57FD08C01182D3
:1002B0003382228224833583468357831DC081E0A5
:1002C00081833382228288279927DC01821B930B4A
:1002D000A40BB50B84839583A683B7830DC0220F2F
:1002E000331F441F551F24833583468357838281E0
:1002F000938101979383828324813581468157813D
:10030000DA01C9010197A109B1098F5F9F4FAF4F72
:10031000BF4328F30BC0918333822282EA0CFB1C7B
:100320000C1D1D1DE482F5820683178383E0808304
:10033000248135814681578157FF1AC0C901AA27F8
:1003400097FDA095BA2F81709070A070B0705695EF
:10035000479537952795822B932BA42BB52B848318
:100360009583A683B7838281938101969383828349
:10037000DF0101C0D201CD01CDB7DEB7E2E10C94BF
:10038000C11DA0E2B0E0E7ECF1E00C94B11D69837F
:100390007A838B839C832D833E834F835887E9E048
:1003A000EE2EF12CEC0EFD1ECE010196B7010E943F
:1003B000D2048E010F5E1F4FCE010596B8010E9438
:1003C000D2048A8991E089278A8BC701B801AE01DE
:1003D000475E5F4F0E9475000E94FD03A096E6E015
:1003E0000C94CD1DA0E2B0E0E8EFF1E00C94B11D5B
:1003F00069837A838B839C832D833E834F835887C5
:10040000F9E0EF2EF12CEC0EFD1ECE010196B701A6
:100410000E94D2048E010F5E1F4FCE010596B801D7
:100420000E94D204C701B801AE01475E5F4F0E942F
:1004300075000E94FD03A096E6E00C94CD1DA0E29D
:10044000B0E0E5E2F2E00C94A51D69837A838B832A
:100450009C832D833E834F835887CE010196BE0136
:10046000675F7F4F0E94D204CE010596BE016F5E8A
:100470007F4F0E94D2049985923088F0898982301A
:10048000C8F0943019F4823051F404C0843029F457
:10049000923081F484E690E0C6C0923049F420E0C6
:1004A0009A858A89981321E02A87CE010996BBC0D4
:1004B000823049F420E09A858A89981321E02A8BBA
:1004C000CE014196B0C02D843E844F8458886D88FB
:1004D0007E888F88988CEE24FF248701AA24BB2471
:1004E000650140E050E060E070E0E0E0F0E0C10174
:1004F00081709070892BE9F0E60CF71C081D191D1E
:100500009A01AB012A0D3B1D4C1D5D1D80E090E062
:10051000A0E0B0E0E614F7040805190520F481E036
:1005200090E0A0E0B0E0BA01A901480F591F6A1F8E
:100530007B1FAA0CBB1CCC1CDD1C97FE08C081E0F5
:1005400090E0A0E0B0E0A82AB92ACA2ADB2A3196B6
:10055000E032F10549F0660C771C881C991C569412
:10056000479437942794C3CFFA85EA892B893C892D
:100570008B859C85280F391F2E5F3F4F17C0CA01FE
:1005800081709070892B61F016950795F794E79428
:1005900080E090E0A0E0B0E8E82AF92A0A2B1B2BC3
:1005A00076956795579547952F5F3F4F77FDE7CF36
:1005B0000CC0440F551F661F771F17FD4160EE0CDE
:1005C000FF1C001F111F21503040403090E05907A0
:1005D00090E0690790E4790760F32B8F3C8FDB0193
:1005E000CA018F779070A070B07080349105A1051A
:1005F000B10561F447FD0AC0E114F10401051105DC
:1006000029F0405C5F4F6F4F7F4F40781A8EFE1786
:1006100011F081E08A8F4D8F5E8F6F8F78A383E01A
:10062000898FCE0149960E94FD03A096E2E10C94C9
:10063000C11DA8E1B0E0EFE1F3E00C94B11D6983C6
:100640007A838B839C832D833E834F83588789E0F5
:10065000E82EF12CEC0EFD1ECE010196B7010E9492
:10066000D2048E010F5E1F4FCE010596B8010E9485
:10067000D2048985823040F08989823028F0C70110
:10068000B8010E944A0501C08FEF6896E6E00C941D
:10069000CD1DA8E1B0E0EFE4F3E00C94B11D698357
:1006A0007A838B839C832D833E834F83588789E095
:1006B000E82EF12CEC0EFD1ECE010196B7010E9432
:1006C000D2048E010F5E1F4FCE010596B8010E9425
:1006D000D2048985823040F08989823028F0C701B0
:1006E000B8010E944A0501C08FEF6896E6E00C94BD
:1006F000CD1DA8E1B0E0EFE7F3E00C94B11D6983F4
:100700007A838B839C832D833E834F83588789E034
:10071000E82EF12CEC0EFD1ECE010196B7010E94D1
:10072000D2048E010F5E1F4FCE010596B8010E94C4
:10073000D2048985823040F08989823028F0C7014F
:10074000B8010E944A0501C081E06896E6E00C9479
:10075000CD1DACE0B0E0EFEAF3E00C94B51D698389
:100760007A838B839C83CE010196BE016B5F7F4FA2
:100770000E94D2048D81823061F1823050F1843048
:1007800021F48E81882351F12EC02F81388537FDC9
:1007900020C06E812F3131051CF06623F9F023C093
:1007A0008EE190E0821B930B29853A854B855C8511
:1007B00004C056954795379527958A95D2F76623B5
:1007C000B1F050954095309521953F4F4F4F5F4F79
:1007D0000EC020E030E040E050E009C02FEF3FEFD6
:1007E0004FEF5FE704C020E030E040E050E8B9019F
:1007F000CA012C96E2E00C94D11DDF92EF92FF9299
:100800000F931F93FC01E480F58006811781D1804E
:100810008081823048F480E090E0A0E1B0E0E82AF6
:10082000F92A0A2B1B2BA5C0843009F49FC0823003
:1008300021F4EE24FF24870105C0E114F104010531
:10084000110519F4E0E0F0E096C0628173819FEF3A
:10085000623879070CF05BC022E83FEF261B370BAC
:100860002A3131052CF020E030E040E050E02AC091
:10087000B801A701022E04C0769567955795479554
:100880000A94D2F781E090E0A0E0B0E004C0880FC5
:10089000991FAA1FBB1F2A95D2F70197A109B10979
:1008A0008E219F21A023B1230097A105B10521F03E
:1008B00081E090E0A0E0B0E09A01AB01282B392B59
:1008C0004A2B5B2BDA01C9018F779070A070B07052
:1008D00080349105A105B10539F427FF09C0205CDA
:1008E0003F4F4F4F5F4F04C0215C3F4F4F4F5F4F13
:1008F000E0E0F0E02030A0E03A07A0E04A07A0E402
:100900005A0710F0E1E0F0E079018A0127C0603871
:10091000710564F5FB01E158FF4FD801C7018F77DE
:100920009070A070B07080349105A105B10539F4C4
:10093000E7FE0DC080E490E0A0E0B0E004C08FE3EB
:1009400090E0A0E0B0E0E80EF91E0A1F1B1F17FFA1
:1009500005C016950795F794E794319687E01695AC
:100960000795F794E7948A95D1F705C0EE24FF2404
:100970008701EFEFF0E06E2F679566276795902F60
:100980009F77D794DD24D7948E2F8695492F462BB9
:10099000582F5D29B701CA011F910F91FF90EF9069
:1009A000DF900895FC01DB01408151812281622F9B
:1009B0006F7770E0221F2227221F9381892F880FD3
:1009C000822B282F30E0991F9927991F11969C930D
:1009D000119721153105A9F54115510561057105DD
:1009E00011F482E037C082E89FEF13969C938E93B8
:1009F00012979A01AB0167E0220F331F441F551F66
:100A00006A95D1F783E08C930DC0220F331F441FEA
:100A1000551F12968D919C911397019713969C9355
:100A20008E931297203080E0380780E0480780E4FA
:100A3000580758F314962D933D934D935C93179755
:100A400008952F3F310579F4411551056105710570
:100A500019F484E08C93089564FF03C081E08C93C3
:100A600012C01C9210C02F57304013963C932E9307
:100A7000129783E08C9387E0440F551F661F771F02
:100A80008A95D1F7706414964D935D936D937C9322
:100A9000179708951F93DC01FB019C91923008F495
:100AA00047C08081823008F443C0943051F41196DD
:100AB0001C91843099F58181682F70E0611B710968
:100AC0003FC0843021F0923031F48230B9F181811D
:100AD000882389F12DC011961C9111978230F1F075
:100AE00081811817D9F412962D913C911397828128
:100AF00093818217930794F028173907BCF0149656
:100B00008D919D910D90BC91A02D248135814681C0
:100B10005781281739074A075B0718F4112341F05A
:100B20000AC082179307A407B50740F4112319F0F0
:100B300061E070E005C06FEF7FEF02C060E070E041
:100B4000CB011F910895DF93CF9300D0CDB7DEB7CF
:100B50009A83898389819A819093F3038093F20326
:100B6000E981FA81108280E895E20E94651A0E946C
:100B7000CA150E94901281EB96E00E944F130F90CD
:100B80000F90CF91DF910895DF93CF93CDB7DEB76C
:100B900064970FB6F894DEBF0FBECDBF9F878E87D8
:100BA0001A8215C08A81482F50E08A81282F30E0B0
:100BB0008E859F85FC01E20FF31F2081CE010496F4
:100BC000FC01E40FF51F20838A818F5F8A838A816D
:100BD0008A3040F30E945519E091F203F091F3033B
:100BE00081E080831B8219827EC01B8234C0898190
:100BF000282F30E0CE010496FC01E20FF31F408164
:100C00008B81282F30E0C901880F991F820F931F15
:100C1000FC01E359FF4F80814817D1F48981882F67
:100C200090E09C012F5F3F4FCE010496FC01E20F44
:100C3000F31F40818B81282F30E0C901880F991F55
:100C4000820F931FFC01E259FF4F8081481731F05A
:100C50008B818F5F8B838B81843148F28091BE03BF
:100C60008F5F8093BE038981282F30E08B81482FCE
:100C700050E0C901880F991F820F931F9C012D51CD
:100C80003C4FCA01880F991F840F951F84599F4FAD
:100C9000398B288B9B8B8A8B83E08C8BEA89FB8931
:100CA00000808A899B8901969B8B8A8BE889F989C8
:100CB0000082888999890196998B888B9C899150AB
:100CC0009C8BEC89EE2351F78B81882F90E0880F65
:100CD000991FFC01EF5CFE4F808191810E94C41737
:100CE00089818E5F89838981282F30E0CE01049627
:100CF000FC01E20FF31F8081882379F08981882F1E
:100D000090E09C012F5F3F4FCE010496FC01E20F63
:100D1000F31F8081882309F068CF8091E303882F37
:100D200090E026EF33E042EE53E0B9010E94061353
:100D30008091E2030E94F8128091E403482F50E072
:100D40008091E503282F30E0CA01B9010E94ED1B14
:100D500064960FB6F894DEBF0FBECDBFCF91DF9182
:100D60000895DF93CF93CDB7DEB70E94E31B809148
:100D70005901282F30E08091BE03882F90E0019721
:100D8000281739070CF042C080915901282F30E014
:100D9000C901880F991F820F931FFC01EC51FC4F72
:100DA0008081482F50E080915901282F30E0C901FF
:100DB000880F991F820F931FFC01EB51FC4F80811C
:100DC000282F30E0CA01B9010E94ED1B8091590122
:100DD000282F30E0C901880F991F820F931FFC0153
:100DE000ED51FC4F8081882F90E026EF33E042EEFA
:100DF00053E0B9010E9406138091E2030E94F812A9
:100E0000809159018F5F809359010AC081E08093DE
:100E100059011092BE03E091F203F091F3031082A6
:100E2000CF91DF910895DF93CF93CDB7DEB72091B7
:100E3000BF033091C0038091C4039091C503880F14
:100E4000991FF901E80FF91F8091C2039091C30324
:100E5000918380838091C103882F90E001979C014A
:100E60008091C4039091C5038217930758F5209190
:100E7000BF033091C0038091C103882F90E0029698
:100E8000880F991FF901E80FF91F118210828091D4
:100E9000C4039091C50301969093C5038093C40346
:100EA0001092C3031092C2038091C4039091C503B2
:100EB000FC01E65AFE4F208182EC93E0622F0E94F3
:100EC0003F1A27C08091C103882F90E001979C01B1
:100ED0008091C4039091C50328173907D1F410926B
:100EE000C5031092C4031092C3031092C203209151
:100EF000BF033091C0038091C103882F90E0029618
:100F0000880F991FF901E80FF91F81E090E09183A4
:100F10008083CF91DF910895DF93CF93CDB7DEB774
:100F200088E00E942F1A80E00E94DF1381E00E9477
:100F3000DF1383E197E00E94551ACF91DF91089566
:100F4000DF93CF9300D00F92CDB7DEB79A8389831A
:100F50006B8389819A819093C0038093BF038B81B7
:100F6000893020F48B8182508093C1030F900F90C1
:100F70000F90CF91DF910895DF93CF93CDB7DEB778
:100F80008091C4039091C503009769F58091BF03D8
:100F90009091C0039C018091C103882F90E0880F3D
:100FA000991F820F931F60E00E9427142091BF03B6
:100FB0003091C0038091C103882F90E00196880F83
:100FC000991F820F931F61E00E9427148091C40330
:100FD0009091C503FC01E65AFE4F208182EC93E01C
:100FE000622F0E943F1ACF91DF910895DF93CF9334
:100FF00000D000D00F92CDB7DEB79B838A837D836C
:101000006C83198271C08A819B81FC013A96408170
:1010100051818981282F30E08AE190E0BC01269F30
:10102000C001279F900D369F900D1124FC01EA58B6
:10103000FE4F808191814817590709F046C08A8187
:101040009B81FC013C96408151818981282F30E0B1
:101050008AE190E0BC01269FC001279F900D369F3A
:10106000900D1124FC01E858FE4F808191814817B2
:10107000590759F58981282F30E08AE190E0AC01C9
:10108000249FC001259F900D349F900D1124FC01D9
:10109000E658FE4F8081EC81FD8180838C819D81AB
:1010A000DC0111968981282F30E08AE190E0BC01B3
:1010B000269FC001279F900D369F900D1124FC01A3
:1010C000E558FE4F80818C9313C080919C03EC8186
:1010D000FD8180838C819D81FC01319680919D03EF
:1010E000808389818F5F89838981853108F48BCFE3
:1010F0000F900F900F900F900F90CF91DF91089568
:10110000DF93CF9300D00F92CDB7DEB7898389816B
:10111000282F30E03B832A838A819B81009769F0E6
:101120002A813B812130310579F4AFE5B0E0EFE56C
:10113000F0E0808180688C9307C0AFE5B0E0EFE518
:10114000F0E080818F778C930F900F900F90CF916C
:10115000DF910895DF93CF9300D000D000D0CDB7BA
:10116000DEB78A836B834C8319828A81282F30E013
:101170003E832D838D819E818130910509F449C084
:101180002D813E81223031052CF48D819E81009786
:1011900071F0D5C02D813E812230310509F46BC03C
:1011A0008D819E818330910509F497C0C8C08C81E0
:1011B0008823A9F4AAE3B0E0EAE3F0E08081482FB5
:1011C0008B81282F30E081E090E0022E02C0880F52
:1011D000991F0A94E2F7809584238C93B2C08C8186
:1011E0008130A1F4AAE3B0E0EAE3F0E08081482F87
:1011F0008B81282F30E081E090E0022E02C0880F22
:10120000991F0A94E2F7842B8C939BC081E0898319
:1012100098C08C818823A9F4A7E3B0E0E7E3F0E06D
:101220008081482F8B81282F30E081E090E0022ED2
:1012300002C0880F991F0A94E2F7809584238C934B
:1012400080C08C818130A1F4A7E3B0E0E7E3F0E057
:101250008081482F8B81282F30E081E090E0022EA2
:1012600002C0880F991F0A94E2F7842B8C9369C0FF
:1012700081E0898366C08C818823A9F4A4E3B0E06F
:10128000E4E3F0E08081482F8B81282F30E081E07B
:1012900090E0022E02C0880F991F0A94E2F7809511
:1012A00084238C934EC08C818130A1F4A4E3B0E000
:1012B000E4E3F0E08081482F8B81282F30E081E04B
:1012C00090E0022E02C0880F991F0A94E2F7842B47
:1012D0008C9337C081E0898334C08C818823A9F442
:1012E000A1E3B0E0E1E3F0E08081482F8B81282F7B
:1012F00030E081E090E0022E02C0880F991F0A942E
:10130000E2F7809584238C931CC08C818130A1F4FA
:10131000A1E3B0E0E1E3F0E08081482F8B81282F4A
:1013200030E081E090E0022E02C0880F991F0A94FD
:10133000E2F7842B8C9305C081E0898302C081E0B1
:101340008983898126960FB6F894DEBF0FBECDBF84
:10135000CF91DF910895DF93CF9300D000D000D0DC
:10136000CDB7DEB78A836B834C8319828A81282F9D
:1013700030E03E832D838D819E818130910509F47B
:1013800049C02D813E81223031052CF48D819E8112
:10139000009771F0D5C02D813E812230310509F4CE
:1013A0006BC08D819E818330910509F497C0C8C0C0
:1013B0008C818823A9F4ABE3B0E0EBE3F0E080811B
:1013C000482F8B81282F30E081E090E0022E02C070
:1013D000880F991F0A94E2F7809584238C93B2C0FA
:1013E0008C818130A1F4ABE3B0E0EBE3F0E08081ED
:1013F000482F8B81282F30E081E090E0022E02C040
:10140000880F991F0A94E2F7842B8C939BC081E08C
:10141000898398C08C818823A9F4A8E3B0E0E8E32D
:10142000F0E08081482F8B81282F30E081E090E030
:10143000022E02C0880F991F0A94E2F78095842338
:101440008C9380C08C818130A1F4A8E3B0E0E8E304
:10145000F0E08081482F8B81282F30E081E090E000
:10146000022E02C0880F991F0A94E2F7842B8C93F6
:1014700069C081E0898366C08C818823A9F4A5E3D3
:10148000B0E0E5E3F0E08081482F8B81282F30E049
:1014900081E090E0022E02C0880F991F0A94E2F7C3
:1014A000809584238C934EC08C818130A1F4A5E378
:1014B000B0E0E5E3F0E08081482F8B81282F30E019
:1014C00081E090E0022E02C0880F991F0A94E2F793
:1014D000842B8C9337C081E0898334C08C8188232E
:1014E000A9F4A2E3B0E0E2E3F0E08081482F8B8131
:1014F000282F30E081E090E0022E02C0880F991F73
:101500000A94E2F7809584238C931CC08C818130EF
:10151000A1F4A2E3B0E0E2E3F0E08081482F8B8108
:10152000282F30E081E090E0022E02C0880F991F42
:101530000A94E2F7842B8C9305C081E0898302C072
:1015400081E08983898126960FB6F894DEBF0FBEAD
:10155000CDBFCF91DF910895DF93CF93CDB7DEB7A5
:1015600027970FB6F894DEBF0FBECDBF8A836B837B
:101570005D834C8319828B81883008F074C08A8126
:10158000282F30E03F832E834E815F81413051050B
:1015900059F18E819F818230910534F42E813F81F3
:1015A0002115310569F05CC04E815F8142305105E3
:1015B00079F18E819F818330910509F43DC050C03F
:1015C000E9E3F0E08081282F30E08B81882F90E0E4
:1015D000A90102C0559547958A95E2F7CA01817025
:1015E000EC81FD81808341C0E6E3F0E08081282F1B
:1015F00030E08B81882F90E0A90102C05595479576
:101600008A95E2F7CA018170EC81FD8180832DC04B
:10161000E3E3F0E08081282F30E08B81882F90E099
:10162000A90102C0559547958A95E2F7CA018170D4
:10163000EC81FD81808319C0E0E3F0E08081282FF8
:1016400030E08B81882F90E0A90102C05595479525
:101650008A95E2F7CA018170EC81FD81808305C023
:1016600081E0898302C081E08983898127960FB652
:10167000F894DEBF0FBECDBFCF91DF910895DF9309
:10168000CF93CDB7DEB727970FB6F894DEBF0FBE66
:10169000CDBF8A836B835D834C8319828B818830B5
:1016A00008F074C08A81282F30E03F832E834E815A
:1016B0005F814130510559F18E819F8182309105C2
:1016C00034F42E813F812115310569F05CC04E81D3
:1016D0005F814230510579F18E819F818330910580
:1016E00009F43DC050C0EAE3F0E08081282F30E0EB
:1016F0008B81882F90E0A90102C0559547958A9566
:10170000E2F7CA018170EC81FD81808341C0E7E38B
:10171000F0E08081282F30E08B81882F90E0A901B4
:1017200002C0559547958A95E2F7CA018170EC8110
:10173000FD8180832DC0E4E3F0E08081282F30E03C
:101740008B81882F90E0A90102C0559547958A9515
:10175000E2F7CA018170EC81FD81808319C0E1E369
:10176000F0E08081282F30E08B81882F90E0A90164
:1017700002C0559547958A95E2F7CA018170EC81C0
:10178000FD81808305C081E0898302C081E0898377
:10179000898127960FB6F894DEBF0FBECDBFCF91DB
:1017A000DF910895DF93CF93CDB7DEB72E970FB6B5
:1017B000F894DEBF0FBECDBF8A836B834C83198242
:1017C0008B81883008F0DBC08A81282F30E03E878B
:1017D0002D878D859E858130910509F444C02D8526
:1017E0003E85223031052CF48D859E85009771F061
:1017F000C3C02D853E852230310509F462C08D8538
:101800009E858330910509F489C0B6C08C818130F2
:10181000A9F4ABE3B0E0EBE3F0E08081482F8B81EB
:10182000282F30E081E090E0022E02C0880F991F3F
:101830000A94E2F7842B8C939C91A3C0ABE3B0E0B5
:10184000EBE3F0E08081482F8B81282F30E081E0AE
:1018500090E002C0880F991F2A95E2F780958423B3
:101860008C932C918EC08C818130A9F4A8E3B0E0D8
:10187000E8E3F0E08081482F8B81282F30E081E081
:1018800090E0022E02C0880F991F0A94E2F7842B81
:101890008C933C9176C0A8E3B0E0E8E3F0E080816F
:1018A000482F8B81282F30E081E090E0022E02C08B
:1018B000880F991F0A94E2F7809584238C938C916A
:1018C00060C08C818130A9F4A5E3B0E0E5E3F0E0ED
:1018D0008081482F8B81282F30E081E090E0022E1C
:1018E00002C0880F991F0A94E2F7842B8C939C9175
:1018F00048C0A5E3B0E0E5E3F0E08081482F8B81AC
:10190000282F30E081E090E002C0880F991F2A95CF
:10191000E2F7809584238C932C9133C08C818130A5
:10192000A9F4A2E3B0E0E2E3F0E08081482F8B81EC
:10193000282F30E081E090E0022E02C0880F991F2E
:101940000A94E2F7842B8C933C911BC0A2E3B0E095
:10195000E2E3F0E08081482F8B81282F30E081E0A6
:1019600090E0022E02C0880F991F0A94E2F780953A
:1019700084238C938C9105C081E0898302C081E02F
:10198000898389812E960FB6F894DEBF0FBECDBF36
:10199000CF91DF910895DF93CF9300D000D00F92C5
:1019A000CDB7DEB78A836B8319828A81282F30E016
:1019B0003D832C838C819D8181309105D1F02C81D8
:1019C0003D81223031052CF48C819D81009761F09E
:1019D0001FC02C813D812230310581F08C819D8199
:1019E0008330910581F014C0EAE3F0E08B818083BD
:1019F00011C0E7E3F0E08B8180830CC0E4E3F0E00A
:101A00008B81808307C0E1E3F0E08B81808302C09B
:101A100081E0898389810F900F900F900F900F9034
:101A2000CF91DF910895DF93CF9300D000D00F9234
:101A3000CDB7DEB78A836B8319828A81282F30E085
:101A40003D832C838C819D8181309105D1F02C8147
:101A50003D81223031052CF48C819D81009761F00D
:101A60001FC02C813D812230310581F08C819D8108
:101A70008330910581F014C0EBE3F0E08B8180832B
:101A800011C0E8E3F0E08B8180830CC0E5E3F0E077
:101A90008B81808307C0E2E3F0E08B81808302C00A
:101AA00081E0898389810F900F900F900F900F90A4
:101AB000CF91DF910895DF93CF9300D000D000D075
:101AC000CDB7DEB78A837C836B8319828A81282F06
:101AD00030E03E832D838D819E8181309105E1F040
:101AE0002D813E81223031052CF48D819E8100971D
:101AF00061F027C02D813E8122303105A1F08D811A
:101B00009E8183309105B1F01CC0E9E3F0E0808153
:101B1000EB81FC81808317C0E6E3F0E08081EB81FC
:101B2000FC81808310C0E3E3F0E08081EB81FC81E5
:101B3000808309C0E0E3F0E08081EB81FC81808359
:101B400002C081E08983898126960FB6F894DEBFB2
:101B50000FBECDBFCF91DF910895DF93CF9300D01B
:101B600000D00F92CDB7DEB78A836B8319828A814A
:101B7000282F30E03D832C838C819D81813091051D
:101B8000D1F02C813D81223031052CF48C819D8156
:101B9000009761F01FC02C813D812230310581F01A
:101BA0008C819D818330910581F014C0EBE3F0E0DE
:101BB0008B81808311C0E8E3F0E08B8180830CC0CF
:101BC000E5E3F0E08B81808307C0E2E3F0E08B8106
:101BD000808302C081E0898389810F900F900F90EC
:101BE0000F900F90CF91DF910895DF93CF9300D0A6
:101BF0000F92CDB7DEB78983A6E2B0E0E6E2F0E06F
:101C0000808180688C93A6E2B0E0E6E2F0E080811B
:101C10008B7F8C93A6E2B0E0E6E2F0E08081826008
:101C20008C93A6E2B0E0E6E2F0E080818E7F8C93B8
:101C30008981282F30E03B832A838A819B818130F0
:101C40009105C9F02A813B812230310529F08A8132
:101C50009B810097F9F02CC0A7E2B0E0E7E2F0E04A
:101C600080818F778C93A7E2B0E0E7E2F0E080819B
:101C70008F7B8C931DC0A7E2B0E0E7E2F0E08081AB
:101C80008F778C93A7E2B0E0E7E2F0E08081806498
:101C90008C930EC0A7E2B0E0E7E2F0E080818068BC
:101CA0008C93A7E2B0E0E7E2F0E0808180648C935F
:101CB000A6E2B0E0E6E2F0E080818F7D8C93A6E2C0
:101CC000B0E0E6E2F0E0808188608C9381E00E94E1
:101CD0008008A7E2B0E0E7E2F0E080818F7D8C939E
:101CE0000F900F900F90CF91DF910895DF93CF93D6
:101CF00000D0CDB7DEB78A838A818830C0F48A816C
:101D0000882F90E0880F991FFC01E256FC4F20813C
:101D10008A81882F90E0880F991FFC01E156FC4FC3
:101D20009081822F692F40E00E94AA0822C08A81F8
:101D30008830F9F419821AC08981882F90E0880FC1
:101D4000991FFC01E256FC4F20818981882F90E089
:101D5000880F991FFC01E156FC4F9081822F692F5B
:101D600040E00E94AA0889818F5F89838981883039
:101D700018F30F900F90CF91DF910895DF93CF93D9
:101D80000F92CDB7DEB7898389810E94660FA6E2E4
:101D9000B0E0E6E2F0E0808180648C930F90CF9118
:101DA000DF910895DF93CF93CDB7DEB7CF91DF9169
:101DB0000895DF93CF930F92CDB7DEB789838981E2
:101DC000882F90E081309105A9F4A0E5B0E0E0E52E
:101DD000F0E080818F7D8C93A0E5B0E0E0E5F0E05D
:101DE000808180648C93A0E5B0E0E0E5F0E0808144
:101DF0008F778C930F90CF91DF910895DF93CF93DE
:101E000000D0CDB7DEB79A83898389819A81909378
:101E1000C9038093C8030F900F90CF91DF9108956D
:101E2000DF93CF9300D0CDB7DEB79A8389838981C2
:101E30009A819093C7038093C6030F900F90CF9120
:101E4000DF9108951F920F920FB60F9211242F93D6
:101E50003F934F935F936F937F938F939F93AF9332
:101E6000BF93EF93FF93DF93CF93CDB7DEB780910E
:101E7000C8039091C903009759F0E091C803F0910D
:101E8000C903A4E2B0E08D919C9111979183808366
:101E90008091C6039091C703009729F0E091C60393
:101EA000F091C7030995CF91DF91FF91EF91BF9119
:101EB000AF919F918F917F916F915F914F913F91E2
:101EC0002F910F900FBE0F901F901895DF93CF9317
:101ED00000D00F92CDB7DEB789838981282F30E0FB
:101EE0003B832A838A819B818330910509F49BC0BF
:101EF0002A813B81243031058CF48A819B81813099
:101F0000910509F448C02A813B81223031050CF04B
:101F100066C08A819B810097D1F038C12A813B81BC
:101F20002530310509F4C7C08A819B818530910530
:101F30000CF49DC02A813B812630310509F4DFC0B5
:101F40008A819B818730910509F4FDC01FC1A7E2FA
:101F5000B0E0E7E2F0E080818F7E8C93A7E2B0E012
:101F6000E7E2F0E08081877F8C93A7E2B0E0E7E2D0
:101F7000F0E080818B7F8C93A7E2B0E0E7E2F0E0B5
:101F800080818D7F8C93A7E2B0E0E7E2F0E0808172
:101F90008E7F8C93FBC0A7E2B0E0E7E2F0E08081A7
:101FA0008F7E8C93A7E2B0E0E7E2F0E08081877F4C
:101FB0008C93A7E2B0E0E7E2F0E080818B7F8C9326
:101FC000A7E2B0E0E7E2F0E080818D7F8C93A7E2AA
:101FD000B0E0E7E2F0E0808181608C93D7C0A7E2B7
:101FE000B0E0E7E2F0E080818F7E8C93A7E2B0E082
:101FF000E7E2F0E08081877F8C93A7E2B0E0E7E240
:10200000F0E080818B7F8C93A7E2B0E0E7E2F0E024
:10201000808182608C93A7E2B0E0E7E2F0E080810B
:102020008E7F8C93B3C0A7E2B0E0E7E2F0E080815E
:102030008F7E8C93A7E2B0E0E7E2F0E08081877FBB
:102040008C93A7E2B0E0E7E2F0E080818B7F8C9395
:10205000A7E2B0E0E7E2F0E0808182608C93A7E243
:10206000B0E0E7E2F0E0808181608C938FC0A7E26E
:10207000B0E0E7E2F0E080818F7E8C93A7E2B0E0F1
:10208000E7E2F0E08081877F8C93A7E2B0E0E7E2AF
:10209000F0E0808184608C93A7E2B0E0E7E2F0E0BA
:1020A00080818D7F8C93A7E2B0E0E7E2F0E0808151
:1020B0008E7F8C936BC0A7E2B0E0E7E2F0E0808116
:1020C0008F7E8C93A7E2B0E0E7E2F0E08081877F2B
:1020D0008C93A7E2B0E0E7E2F0E0808184608C932B
:1020E000A7E2B0E0E7E2F0E080818D7F8C93A7E289
:1020F000B0E0E7E2F0E0808181608C9347C0A7E226
:10210000B0E0E7E2F0E080818F7E8C93A7E2B0E060
:10211000E7E2F0E08081877F8C93A7E2B0E0E7E21E
:10212000F0E0808184608C93A7E2B0E0E7E2F0E029
:10213000808182608C93A7E2B0E0E7E2F0E08081EA
:102140008E7F8C9323C0A7E2B0E0E7E2F0E08081CD
:102150008F7E8C93A7E2B0E0E7E2F0E08081877F9A
:102160008C93A7E2B0E0E7E2F0E0808184608C939A
:10217000A7E2B0E0E7E2F0E0808182608C93A7E222
:10218000B0E0E7E2F0E0808181608C930F900F90E7
:102190000F90CF91DF910895DF93CF9300D000D0BF
:1021A000CDB7DEB79C838B838B819C819C0140E003
:1021B00050E080E291EAA7E0B0E0BC01CD010E94CE
:1021C000831DDA01C90101979A838983E0E4F0E075
:1021D00089819A81892F99278083E9E2F0E08981BA
:1021E0008083AAE2B0E0EAE2F0E0808180618C9333
:1021F000AAE2B0E0EAE2F0E0808188608C93E0E45B
:10220000F0E086E880830F900F900F900F90CF91B1
:10221000DF910895DF93CF930F92CDB7DEB7898317
:10222000EBE2F0E08081829586958770882F90E0C0
:10223000817090700097A1F3ECE2F0E089818083D7
:102240000F90CF91DF910895DF93CF93CDB7DEB795
:10225000EBE2F0E080818823DCF7ECE2F0E08081C3
:10226000CF91DF910895DF93CF93CDB7DEB7AFE481
:10227000B0E0EFE4F0E080818E7F8C93AFE4B0E0DB
:10228000EFE4F0E080818D7F8C93AEE4B0E0EEE48B
:10229000F0E0808188608C93AEE4B0E0EEE4F0E0A2
:1022A00080818F7E8C93A9E5B0E0E9E5F0E0808144
:1022B00080618C93AEE4B0E0EEE4F0E08081887F52
:1022C0008C93AEE4B0E0EEE4F0E0808185608C9326
:1022D000CF91DF910895DF93CF93CDB7DEB7AEE412
:1022E000B0E0EEE4F0E08081887F8C93CF91DF91C5
:1022F0000895DF93CF9300D0CDB7DEB78A831982DC
:102300008A81883080F4AEE4B0E0EEE4F0E08081D1
:10231000887F8C93AEE4B0E0EEE4F0E090818A81B7
:10232000892B8C9302C081E0898389810F900F9063
:10233000CF91DF910895DF93CF930F92CDB7DEB7A2
:102340008983ECE4F0E0898180830F90CF91DF9165
:102350000895DF93CF930F92CDB7DEB78983EAE478
:10236000F0E0898180830F90CF91DF910895DF9312
:10237000CF9300D000D000D0CDB7DEB79A83898349
:102380007C836B835E834D8389819A81CC01A0E03D
:10239000B0E028EE33E040E050E0BC01CD010E9407
:1023A000441DDC01CB0120E03DE740E050E0BC01F2
:1023B000CD010E94831DDA01C901EB81FC8191836B
:1023C0008083ED81FE818AEF808326960FB6F89494
:1023D000DEBF0FBECDBFCF91DF910895DF93CF93C6
:1023E00000D0CDB7DEB79A83898389819A81909393
:1023F000CB038093CA030F900F90CF91DF91089584
:10240000DF93CF9300D0CDB7DEB79A8389838981DC
:102410009A819093CD038093CC030F900F90CF912E
:10242000DF9108951F920F920FB60F9211242F93F0
:102430003F934F935F936F937F938F939F93AF934C
:10244000BF93EF93FF93DF93CF93CDB7DEB7809128
:10245000CE039091CF0301969093CF038093CE0348
:102460002091CE033091CF038091F4039091F50336
:102470002817390779F48091CC039091CD03009708
:1024800049F0E091CC03F091CD0309951092CF0370
:102490001092CE03CF91DF91FF91EF91BF91AF9159
:1024A0009F918F917F916F915F914F913F912F916C
:1024B0000F900FBE0F901F9018951F920F920FB69E
:1024C0000F9211242F933F934F935F936F937F93BA
:1024D0008F939F93AF93BF93EF93FF93DF93CF932C
:1024E000CDB7DEB78091CA039091CB03009729F056
:1024F000E091CA03F091CB030995CF91DF91FF9151
:10250000EF91BF91AF919F918F917F916F915F916B
:102510004F913F912F910F900FBE0F901F901895E4
:10252000DF93CF93CDB7DEB7A3E5B0E0E3E5F0E00E
:1025300080818F7B8C93A3E5B0E0E3E5F0E08081C0
:1025400088608C93A9E5B0E0E9E5F0E080818260E5
:102550008C93A3E5B0E0E3E5F0E08081887F8C9385
:10256000A3E5B0E0E3E5F0E0808185608C93CF9156
:10257000DF910895DF93CF93CDB7DEB7A3E5B0E049
:10258000E3E5F0E08081887F8C93CF91DF9108951F
:10259000DF93CF9300D0CDB7DEB78A8319828A81CB
:1025A000883080F4A3E5B0E0E3E5F0E08081887F47
:1025B0008C93A3E5B0E0E3E5F0E090818A81892B7C
:1025C0008C9302C081E0898389810F900F90CF9115
:1025D000DF910895DF93CF930F92CDB7DEB7898354
:1025E000E2E5F0E0898180830F90CF91DF9108953B
:1025F000DF93CF930F92CDB7DEB78983ECE5F0E0A0
:10260000898180830F90CF91DF910895DF93CF93DD
:1026100000D000D000D0CDB7DEB79A8389837C8309
:102620006B835E834D8389819A81CC01A0E0B0E009
:1026300028EE33E040E050E0BC01CD010E94441D93
:10264000DC01CB0120E03DE740E050E0BC01CD01E2
:102650000E94831DDA01C901EB81FC819183808393
:10266000ED81FE818AEF808326960FB6F894DEBF57
:102670000FBECDBFCF91DF910895DF93CF9300D0F0
:10268000CDB7DEB79A83898389819A819093D103EC
:102690008093D0030F900F90CF91DF910895DF9337
:1026A000CF9300D0CDB7DEB79A83898389819A8191
:1026B0009093D3038093D2030F900F90CF91DF912B
:1026C00008951F920F920FB60F9211242F933F93EC
:1026D0004F935F936F937F938F939F93AF93BF932A
:1026E000EF93FF93DF93CF93CDB7DEB78091D00305
:1026F0009091D103009729F0E091D003F091D1039C
:102700000995CF91DF91FF91EF91BF91AF919F918B
:102710008F917F916F915F914F913F912F910F908A
:102720000FBE0F901F9018951F920F920FB60F9229
:1027300011242F933F934F935F936F937F938F93C6
:102740009F93AF93BF93EF93FF93DF93CF93CDB757
:10275000DEB78091D4039091D50301969093D50371
:102760008093D4032091D4033091D5038091F60354
:102770009091F7032817390779F48091D20390914B
:10278000D303009749F0E091D203F091D303099568
:102790001092D5031092D403CF91DF91FF91EF9166
:1027A000BF91AF919F918F917F916F915F914F9169
:1027B0003F912F910F900FBE0F901F901895DF93B0
:1027C000CF9300D0CDB7DEB78A838A818830C0F43A
:1027D0008A81882F90E0880F991FFC01E255FC4FF9
:1027E00020818A81882F90E0880F991FFC01E15594
:1027F000FC4F9081822F692F40E00E94AA0822C0DE
:102800008A818830F9F419821AC08981882F90E072
:10281000880F991FFC01E255FC4F20818981882F88
:1028200090E0880F991FFC01E155FC4F9081822FA9
:10283000692F40E00E94AA0889818F5F898389817E
:10284000883018F30F900F90CF91DF910895DF93A8
:10285000CF9300D00F92CDB7DEB79A8389836B8375
:102860008B81882F90E0880F991FFC01E255FC4F67
:1028700040818B81882F90E0880F991FFC01E155E2
:10288000FC4F908129813A81842F692FA9010E94F0
:10289000AC0A0F900F900F90CF91DF910895DF93C6
:1028A000CF9300D00F92CDB7DEB79B838A838A8106
:1028B0009B81FC0132961082198221C08981882F68
:1028C00090E0880F991FFC01E255FC4F40818981FF
:1028D000882F90E0880F991FFC01E155FC4F508133
:1028E0008981282F30E08A819B81280F391F842F0E
:1028F000652FA9010E94AC0A89818F5F8983898134
:102900008230E0F28A819B81FC01329681E08083F3
:102910000F900F900F90CF91DF910895DF93CF9399
:10292000CDB7DEB72F970FB6F894DEBF0FBECDBF81
:102930008F8782E067E041E00E94AB0982E065E0BA
:1029400040E00E94AB0981E06F850E94130D82E098
:1029500066E041E00E94AB0980E090E0A0E0B0E4D6
:102960008B879C87AD87BE876B857C858D859E8593
:1029700020E030E04AEF54E40E941F02DC01CB016A
:102980008F839887A987BA876F81788589859A858B
:1029900020E030E040E85FE30E94790388232CF4D4
:1029A00081E090E09E838D833FC06F81788589852B
:1029B0009A8520E03FEF4FE757E40E94190318166D
:1029C0004CF56B857C858D859E8520E030E040E26E
:1029D00051E40E941F02DC01CB01BC01CD010E9429
:1029E0004900DC01CB019E838D830FC088EC90E011
:1029F0009C838B838B819C810197F1F79C838B83D4
:102A00008D819E8101979E838D838D819E8100970C
:102A100069F714C06F81788589859A850E9449007D
:102A2000DC01CB019E838D838D819E819A83898376
:102A300089819A810197F1F79A83898382E066E020
:102A400040E00E94AB092F960FB6F894DEBF0FBE90
:102A5000CDBFCF91DF910895DF93CF93CDB7DEB790
:102A60002F970FB6F894DEBF0FBECDBF8F8782E0E1
:102A700067E040E00E94AB0982E065E040E00E9430
:102A8000AB0981E06F850E94130D82E066E041E0B2
:102A90000E94AB0980E090E0A0E0B0E48B879C87C7
:102AA000AD87BE876B857C858D859E8520E030E077
:102AB0004AEF54E40E941F02DC01CB018F83988708
:102AC000A987BA876F81788589859A8520E030E06B
:102AD00040E85FE30E94790388232CF481E090E0D2
:102AE0009E838D833FC06F81788589859A8520E09C
:102AF0003FEF4FE757E40E94190318164CF56B851A
:102B00007C858D859E8520E030E040E251E40E9486
:102B10001F02DC01CB01BC01CD010E944900DC0198
:102B2000CB019E838D830FC088EC90E09C838B83C8
:102B30008B819C810197F1F79C838B838D819E8192
:102B400001979E838D838D819E81009769F714C0C4
:102B50006F81788589859A850E944900DC01CB01C7
:102B60009E838D838D819E819A83898389819A81B9
:102B70000197F1F79A83898382E066E040E00E9442
:102B8000AB092F960FB6F894DEBF0FBECDBFCF9125
:102B9000DF910895DF93CF93CDB7DEB7E8970FB6F7
:102BA000F894DEBF0FBECDBF82E067E041E00E9437
:102BB000AA0882E065E041E00E94AA0882E066E09F
:102BC00041E00E94AA0881E06FEF0E94CB0C80E0F8
:102BD00090E0A0E2B2E48DAB9EABAFABB8AF6DA915
:102BE0007EA98FA998AD20E030E04AEF54E40E941E
:102BF0001F02DC01CB0189AB9AABABABBCAB69A9C3
:102C00007AA98BA99CA920E030E040E85FE30E940C
:102C1000790388232CF481E090E098AB8FA73FC024
:102C200069A97AA98BA99CA920E03FEF4FE757E457
:102C30000E94190318164CF56DA97EA98FA998ADAD
:102C400020E030E040E251E40E941F02DC01CB01B1
:102C5000BC01CD010E944900DC01CB0198AB8FA7DC
:102C60000FC088EC90E09EA78DA78DA59EA501972B
:102C7000F1F79EA78DA78FA598A9019798AB8FA76D
:102C80008FA598A9009769F714C069A97AA98BA99B
:102C90009CA90E944900DC01CB0198AB8FA78FA5AE
:102CA00098A99CA78BA78BA59CA50197F1F79CA73A
:102CB0008BA788E30E942C1580E090E0A0E0B0E4B0
:102CC0008FA398A7A9A7BAA76FA178A589A59AA548
:102CD00020E030E04AEF54E40E941F02DC01CB0107
:102CE0008BA39CA3ADA3BEA36BA17CA18DA19EA130
:102CF00020E030E040E85FE30E94790388232CF471
:102D000081E090E09AA389A33FC06BA17CA18DA133
:102D10009EA120E03FEF4FE757E40E9419031816E9
:102D20004CF56FA178A589A59AA520E030E040E296
:102D300051E40E941F02DC01CB01BC01CD010E94C5
:102D40004900DC01CB019AA389A30FC088EC90E075
:102D500098A38F8F8F8D98A10197F1F798A38F8FEC
:102D600089A19AA101979AA389A389A19AA1009701
:102D700069F714C06BA17CA18DA19EA10E9449009E
:102D8000DC01CB019AA389A389A19AA19E8F8D8F83
:102D90008D8D9E8D0197F1F79E8F8D8F8CE00E9417
:102DA0002C1580E090E0A0E0B0E4898F9A8FAB8F83
:102DB000BC8F698D7A8D8B8D9C8D20E030E04AEF41
:102DC00054E40E941F02DC01CB018D8B9E8BAF8BE4
:102DD000B88F6D897E898F89988D20E030E040E83A
:102DE0005FE30E94790388232CF481E090E09C8BC0
:102DF0008B8B3FC06D897E898F89988D20E03FEF56
:102E00004FE757E40E94190318164CF5698D7A8D27
:102E10008B8D9C8D20E030E040E251E40E941F0247
:102E2000DC01CB01BC01CD010E944900DC01CB01DA
:102E30009C8B8B8B0FC088EC90E09A8B898B898957
:102E40009A890197F1F79A8B898B8B899C890197D5
:102E50009C8B8B8B8B899C89009769F714C06D893B
:102E60007E898F89988D0E944900DC01CB019C8B63
:102E70008B8B8B899C89988B8F878F8598890197FD
:102E8000F1F7988B8F8781E00E942C1580E090E00D
:102E9000A0E0B0E48B879C87AD87BE876B857C857F
:102EA0008D859E8520E030E04AEF54E40E941F02A9
:102EB000DC01CB018F839887A987BA876F817885DA
:102EC00089859A8520E030E040E85FE30E9479033D
:102ED00088232CF481E090E09E838D833FC06F8136
:102EE000788589859A8520E03FEF4FE757E40E9477
:102EF000190318164CF56B857C858D859E8520E021
:102F000030E040E251E40E941F02DC01CB01BC0131
:102F1000CD010E944900DC01CB019E838D830FC04F
:102F200088EC90E09C838B838B819C810197F1F7E7
:102F30009C838B838D819E8101979E838D838D8160
:102F40009E81009769F714C06F81788589859A857D
:102F50000E944900DC01CB019E838D838D819E817F
:102F60009A83898389819A810197F1F79A8389836A
:102F700086E00E942C15E8960FB6F894DEBF0FBECF
:102F8000CDBFCF91DF910895DF93CF9300D00F9203
:102F9000CDB7DEB79B838A83198214C089818031C3
:102FA00019F480EC0E942C158981282F30E08A8149
:102FB0009B81FC01E20FF31F80810E948E148981A6
:102FC0008F5F89838981282F30E08A819B81FC0172
:102FD000E20FF31F8081882309F70F900F900F9065
:102FE000CF91DF910895DF93CF93CDB7DEB780EC1B
:102FF0000E942C15CF91DF910895DF93CF93CDB729
:10300000DEB762970FB6F894DEBF0FBECDBF9A8BC6
:10301000898B1F86188A0EC08889282F30E08989FD
:103020009A89FC01E20FF31F80810E948E14888927
:103030008F5F888B8889282F30E089899A89FC01E5
:10304000E20FF31F8081882339F78F859889692FD4
:103050000E94631D892F803119F480E80E942C158D
:1030600088E10E942C1580E090E0AAEFB3E48B8702
:103070009C87AD87BE876B857C858D859E8520E08E
:1030800030E04AEF54E40E941F02DC01CB018F8341
:103090009887A987BA876F81788589859A8520E086
:1030A00030E040E85FE30E94790388232CF481E05C
:1030B00090E09E838D833FC06F81788589859A8556
:1030C00020E03FEF4FE757E40E94190318164CF534
:1030D0006B857C858D859E8520E030E040E251E463
:1030E0000E941F02DC01CB01BC01CD010E944900FE
:1030F000DC01CB019E838D830FC088EC90E09C8324
:103100008B838B819C810197F1F79C838B838D81CD
:103110009E8101979E838D838D819E81009769F7A3
:1031200014C06F81788589859A850E944900DC01E9
:10313000CB019E838D838D819E819A838983898132
:103140009A810197F1F79A8389838F858F5F8F87A3
:103150007CCFDF93CF93CDB7DEB762970FB6F894ED
:10316000DEBF0FBECDBF9A8B898B1F86188A0EC01B
:103170008889282F30E089899A89FC01E20FF31FA2
:1031800080810E948E1488898F5F888B8889282F80
:1031900030E089899A89FC01E20FF31F808188233E
:1031A00039F78F859889692F0E94631D892F803197
:1031B00019F480E80E942C158CE10E942C1580E007
:1031C00090E0AAEFB3E48B879C87AD87BE876B85C1
:1031D0007C858D859E8520E030E04AEF54E40E9496
:1031E0001F02DC01CB018F839887A987BA876F8183
:1031F000788589859A8520E030E040E85FE30E9489
:10320000790388232CF481E090E09E838D833FC076
:103210006F81788589859A8520E03FEF4FE757E4F5
:103220000E94190318164CF56B857C858D859E854B
:1032300020E030E040E251E40E941F02DC01CB01BB
:10324000BC01CD010E944900DC01CB019E838D832E
:103250000FC088EC90E09C838B838B819C810197CD
:10326000F1F79C838B838D819E8101979E838D8353
:103270008D819E81009769F714C06F81788589855B
:103280009A850E944900DC01CB019E838D838D814C
:103290009E819A83898389819A810197F1F79A8324
:1032A00089838F858F5F8F877CCFDF93CF93CDB757
:1032B000DEB781E00E942C15CF91DF910895DF9356
:1032C000CF9300D0CDB7DEB789836A8389818130FF
:1032D00041F48A81883228F48A8180580E942C1512
:1032E0000FC08981823061F48A81882F90E0805CF0
:1032F0009F4F8736910524F48A8180540E942C15B3
:103300000F900F90CF91DF910895DF93CF9300D06E
:10331000CDB7DEB789836A8389816A810E945F198C
:103320008FE00E942C150F900F90CF91DF910895A0
:10333000DF93CF93CDB7DEB728970FB6F894DEBFF3
:103340000FBECDBF98878F838F8198859E838D8395
:1033500081E090E09C838B831A828D819E8100970F
:10336000F9F480E30E948E141BC08D819E812AE0B7
:1033700030E0B9010E946F1DCB019E838D838B814C
:103380009C819C01220F331FC901880F991F880F50
:10339000991F820F931F9C838B838A818F5F8A83FF
:1033A0008D819E81009709F78B819C812AE030E016
:1033B000B9010E946F1DCB019C838B838A81805150
:1033C0008983898188230CF03EC019823CC08A81A0
:1033D000282F30E08981992787FD90952817390794
:1033E00019F480EC0E942C158F8198852B813C81EB
:1033F000B9010E946F1DCB01882F90E09E838D83C1
:103400008D81805D0E948E142D813E818B819C81F7
:10341000A901489F9001499F300D589F300D1124FC
:103420008F819885821B930B98878F838B819C81DA
:103430002AE030E0B9010E946F1DCB019C838B8391
:103440008A8181508A838A81882309F628960FB65B
:10345000F894DEBF0FBECDBFCF91DF910895DF930B
:10346000CF930F92CDB7DEB7898382E00E94F50D2E
:1034700089810E94760E0F90CF91DF910895DF939E
:10348000CF9300D00F92CDB7DEB79A8389836B8339
:1034900089819A810E94FE0E8B810E94BE0E0F9040
:1034A0000F900F90CF91DF910895DF93CF9300D0CD
:1034B000CDB7DEB79A83898389819A810E94100FE4
:1034C0000F900F90CF91DF910895DF93CF9300D0AD
:1034D000CDB7DEB79A8389831092D60389819A810A
:1034E0000E94CC100F900F90CF91DF910895DF9341
:1034F000CF930F92CDB7DEB7898389818093D603AE
:103500008091D6038093B6030F90CF91DF910895F9
:10351000DF93CF9300D000D0CDB7DEB79A838983F5
:103520007C836B838B819C81892F9927E981FA8128
:10353000808389819A81FC0131968B8180830F90F1
:103540000F900F900F90CF91DF910895DF93CF935D
:1035500000D000D000D0CDB7DEB79E838D831C8213
:103560001B8281E090E09A83898315C029813A818A
:103570008D819E81FC01E20FF31F8081282F30E0B6
:103580008B819C81820F931F9C838B8389819A817D
:1035900001969A83898389819A818730910534F3D2
:1035A0008B819C81909581959F4F26960FB6F894BC
:1035B000DEBF0FBECDBFCF91DF910895DF93CF93D4
:1035C00000D0CDB7DEB782EB93E00E94A61A9A83B3
:1035D000898389EB93E029813A81B9010E94881A95
:1035E0000F900F90CF91DF910895DF93CF9300D08C
:1035F000CDB7DEB71A8219820DC089819A81FC018C
:10360000EE54FC4F80810E940A1189819A810196B3
:103610009A83898389819A818A30910574F30F9006
:103620000F90CF91DF910895DF93CF9300D000D01A
:103630000F92CDB7DEB789837B836A835D834C832A
:1036400089818093B5038A818093B7038C818093AD
:10365000B8030E94DE1A0E94F51A0F900F900F9087
:103660000F900F90CF91DF910895DF93CF9300D00B
:103670000F92CDB7DEB789837B836A83898180937C
:10368000B50387EB93E02A813B81B9010E94881A38
:103690000E94DE1A0E94F51A0F900F900F90CF91A2
:1036A000DF910895DF93CF930F92CDB7DEB7898373
:1036B00089818093B50387EB93E060E070E00E941E
:1036C000881A0E94DE1A0E94F51A0F90CF91DF919E
:1036D0000895DF93CF9300D0CDB7DEB79A83898367
:1036E00029813A8183E0B9010E94351B0F900F9028
:1036F000CF91DF910895DF93CF93CDB7DEB781E00F
:103700000E94521BCF91DF910895DF93CF93CDB7E5
:10371000DEB782E00E94521BCF91DF910895DF93C4
:10372000CF9300D0CDB7DEB79A83898329813A81C0
:1037300086E0B9010E94351B0F900F90CF91DF9169
:103740000895DF93CF9300D0CDB7DEB79A838983F6
:1037500029813A8187E0B9010E94351B0F900F90B3
:10376000CF91DF910895DF93CF9300D0CDB7DEB72F
:103770009A83898329813A8189E0B9010E94351BA6
:103780000F900F90CF91DF910895DF93CF93CDB736
:10379000DEB78AE00E94521BCF91DF910895DF933C
:1037A000CF93CDB7DEB78CE00E94521BCF91DF9153
:1037B0000895DF93CF93CDB7DEB78DE00E94521B03
:1037C000CF91DF910895DF93CF93CDB7DEB78EE031
:1037D0000E94521BCF91DF910895DF93CF9300D0C9
:1037E00000D0CDB7DEB79A8389837C836B83298130
:1037F0003A814B815C818FE0B9010E94141B0F90CC
:103800000F900F900F90CF91DF910895DF93CF939A
:1038100000D0CDB7DEB79A83898329813A8182E1CE
:10382000B9010E94351B0F900F90CF91DF91089541
:10383000DF93CF93CDB7DEB782E40E94521BCF91C6
:10384000DF910895DF93CF93CDB7DEB783E40E9475
:10385000521BCF91DF910895DF93CF93CDB7DEB7A1
:1038600087E40E94521BCF91DF910895DF93CF939D
:10387000CDB7DEB788E40E94521BCF91DF91089547
:10388000DF93CF93CDB7DEB789E40E94521BCF916F
:10389000DF910895DF93CF93CDB7DEB78CE40E941C
:1038A000521BCF91DF910895DF93CF93CDB7DEB751
:1038B0008BE40E94521BCF91DF910895DF93CF9349
:1038C000CDB7DEB78DE40E94521BCF91DF910895F2
:1038D0000F931F93DF93CF9300D00F92CDB7DEB736
:1038E0000E9424118E3711F01B821CC08EE780933A
:1038F000D70381E090E09A8389830DC009811A8102
:103900000E942411F801E952FC4F808389819A8139
:1039100001969A83898389819A818A30910574F30B
:1039200081E08B838B810F900F900F90CF91DF916F
:103930001F910F910895DF93CF9300D0CDB7DEB7DD
:1039400081E00E94800819820E948C07CE010196B6
:103950000E94A30588EF93E067E00E94A0070E9401
:10396000331124EF33E0AE014E5F5F4F84E690E009
:10397000B9010E94B7118A810E94A91183ED9CE1CF
:103980000E9400120E94BC0789818823E9F780E623
:1039900090E00E94C41781E08093BC0382E194E030
:1039A0000E94C405F1CFDF93CF93CDB7DEB78091EE
:1039B000E103853008F061C080910604909107040E
:1039C000009709F45AC08091BC03882309F455C0BC
:1039D00082E690E00E94C4178091E103882F90E076
:1039E000880F991F9C01285F3B4F88EF93E0B90136
:1039F0000E94F6078091E103882F90E0880F991FBD
:103A0000FC01E85FFB4F8081882399F48091E103FA
:103A1000882F90E0880F991F0196FC01E85FFB4F0B
:103A20008081813031F48091E10381508093E10302
:103A30001CC08091E103882F90E0880F991FFC0142
:103A4000E85FFB4F8081882381F48091E103882F18
:103A500090E0880F991F0196FC01E85FFB4F808181
:103A6000882319F485E08093E1030E94BC078091CC
:103A7000E1038F5F8093E10304C01092E103109291
:103A8000BC03CF91DF910895629FD001739FF00135
:103A9000829FE00DF11D649FE00DF11D929FF00DDE
:103AA000839FF00D749FF00D659FF00D9927729F15
:103AB000B00DE11DF91F639FB00DE11DF91FBD01A0
:103AC000CF0111240895991B79E004C0991F96171E
:103AD00008F0961B881F7A95C9F780950895AA1B50
:103AE000BB1B51E107C0AA1FBB1FA617B70710F0E9
:103AF000A61BB70B881F991F5A95A9F7809590951B
:103B0000BC01CD010895A1E21A2EAA1BBB1BFD0129
:103B10000DC0AA1FBB1FEE1FFF1FA217B307E407AC
:103B2000F50720F0A21BB30BE40BF50B661F771F04
:103B3000881F991F1A9469F76095709580959095E4
:103B40009B01AC01BD01CF0108952F923F924F928E
:103B50005F926F927F928F929F92AF92BF92CF921D
:103B6000DF92EF92FF920F931F93CF93DF93CDB726
:103B7000DEB7CA1BDB0B0FB6F894DEBF0FBECDBF9E
:103B800009942A88398848885F846E847D848C846F
:103B90009B84AA84B984C884DF80EE80FD800C8178
:103BA0001B81AA81B981CE0FD11D0FB6F894DEBF5B
:0C3BB0000FBECDBFED010895F894FFCFCB
:103BBC004800410000000000000000007E0101D61A
:103BCC000102140201B003014C03024C0303E8048C
:103BDC0001B00402E80403E204044C05014C0502A4
:103BEC00B00503DC05044606014C0602E80701B0EB
:103BFC000702E20703B0070449276D2000496E74E1
:103C0C00656C6C6967656E7420005468616E6B201E
:103C1C00596F75200048656C6C6F2C2000486F77CD
:103C2C00200041726520596F7520004920004C69B5
:103C3C006B6520004D79200046616D696C79200020
:103C4C0043616E2000596F7520005265616420003D
:103C5C0054686520426F6F6B2000506C6561736512
:103C6C00200053746F7020004920004C696B652054
:103C7C0000546F2045617420004170706C65732096
:103C8C0000A800AD00BA00C500CD00D200DB00DEFC
:103C9C0000E400E800F000F500FA0000010A01124F
:103CAC000118011B01210129010100010203040576
:103CBC00060787009B007D009100D900ED009D0058
:103CCC00B100C500D9000100010001019200A6005D
:103CDC009500A900BD00D1009900AD008F00A30094
:103CEC00000001000102A600BA008F00A300A90089
:103CFC00BD00A500B9009D00B1000000010002014B
:103D0C00AE00C20089009D00AE00C200AE00C20031
:103D1C009500A9000000010003018E00A200C40060
:103D2C00D800B600CA009700AB00C200D600000055
:103D3C0001000302A600BA0085009900E600FA0013
:103D4C009D00B100BD00D100000001000303C700BD
:103D5C00DB0075008900F5000901CE00E200C2000D
:103D6C00D600000001000401B600CA008E00A200BB
:103D7C00C500D900AD00C100B200C60001000100B1
:103D8C000402A600BA008F00A300A200B600A20095
:103D9C00B6009200A600000001000403B700CB009F
:103DAC00A600BA00C400D800BD00D100B200C60005
:103DBC00000001000404CE00E200BC00D000D700DB
:103DCC00EB00C900DD00D400E80000000100050193
:103DDC00C500D90085009900DD00F100C500D900AF
:103DEC00C500D900000001000502D600EA008500DC
:103DFC009900C400D800B900CD00C200D600010063
:103E0C0001000503B600CA0087009B00A200B600A3
:103E1C00A700BB009D00B100010001000504A70034
:103E2C00BB0087009B00A400B800A700BB00A20049
:103E3C00B600010001000601A400B8008E00A2002B
:103E4C00A600BA00A900BD009500A9000100010060
:103E5C000602C700DB0075008900F5000901CE00E1
:103E6C00E200C200D600000001000701B600CA0043
:103E7C008E00A200C500D900AD00C100B200C60082
:103E8C00010001000702AC00C0008E00A200C700B8
:103E9C00DB00C400D800B400C80000000100070318
:103EAC00BD00D100E200F600C700DB00C400D80062
:103EBC00C900DD00010001000704AA00BE0091004A
:103ECC00A500B400C800B600CA00B400C8000000C9
:103EDC000100000064007800640078006400780041
:103EEC00640078006400780001000100000100000B
:103EFC000001000200030004000500060007030097
:0E3F0C0003017EFF06000000000000EF010030
:00000001FF
